:020000040800F2
:100000000000032095050008651C0008671C000817
:10001000691C00086B1C00086D1C00080000000033
:10002000000000000000000000000000F18800084F
:100030006F1C00080000000081890008E5890008A5
:10004000E5050008E5050008E5050008E5050008E8
:10005000E5050008E5050008E5050008E5050008D8
:10006000E5050008E5050008E5050008E5050008C8
:10007000E5050008E5050008E5050008E5050008B8
:10008000E5050008E5050008E5050008E5050008A8
:10009000E5050008E5050008E5050008E505000898
:1000A000E5050008E5050008E5050008E505000888
:1000B000E5050008E5050008E5050008E505000878
:1000C000E5050008E5050008E5050008E505000868
:1000D000E5050008E5050008E5050008E505000858
:1000E000E5050008E5050008E5050008E505000848
:1000F000E5050008E5050008E5050008E505000838
:10010000E5050008E5050008E5050008E505000827
:10011000E5050008E5050008711C0008E505000874
:10012000E5050008E5050008E5050008E505000807
:10013000E5050008E5050008E5050008E5050008F7
:10014000E5050008E5050008E5050008E5050008E7
:10015000E5050008E5050008E5050008E5050008D7
:10016000E5050008E5050008E5050008E5050008C7
:10017000E5050008E5050008E505000800000000A9
:10018000E5050008E5050008E5050008E5050008A7
:10019000E5050008E5050008E5050008E505000897
:0C01A0007D1C0008E5050008891C000813
:1001B00010B5054C237833B9044B13B10448AFF3A1
:1001C00000800123237010BD6401002000000000A6
:1001D000D01D020808B5034B1BB103490348AFF318
:1001E000008008BD0000000068010020D01D02084A
:1001F00001F0FF01102A2BDB10F0070F08D010F8D8
:10020000013B013A8B422DD010F0070F42B3F6D1DB
:10021000F0B441EA012141EA014122F007047FF0F4
:1002200000070023F0E80256083C85EA010586EA4B
:10023000010685FA47F5A3FA87F586FA47F6A5FA87
:1002400087F68EB9EED1F0BC01F0FF0102F0070293
:1002500032B110F8013B013A83EA010313B1F8D13E
:100260000020704701387047002D06BF354603381F
:10027000073815F0010F07D1013015F4807F02BF58
:10028000013015F4C03F0130F0BC0138704700BFA9
:1002900053B94AB9002908BF00281CBF4FF0FF31ED
:1002A0004FF0FF3000F074B9ADF1080C6DE904CEE9
:1002B00000F006F8DDF804E0DDE9022304B0704741
:1002C0002DE9F047089D04468E46002B4DD18A4209
:1002D000944669D9B2FA82F252B101FA02F3C2F13C
:1002E000200120FA01F10CFA02FC41EA030E9440CD
:1002F0004FEA1C48210CBEFBF8F61FFA8CF708FBEE
:1003000016E341EA034306FB07F199420AD91CEBC5
:10031000030306F1FF3080F01F81994240F21C81F7
:10032000023E63445B1AA4B2B3FBF8F008FB10333F
:1003300044EA034400FB07F7A7420AD91CEB040474
:1003400000F1FF3380F00A81A74240F20781644444
:10035000023840EA0640E41B00261DB1D4400023C9
:10036000C5E900433146BDE8F0878B4209D9002D2D
:1003700000F0EF800026C5E9000130463146BDE8B7
:10038000F087B3FA83F6002E4AD18B4202D3824221
:1003900000F2F980841A61EB030301209E46002DD0
:1003A000E0D0C5E9004EDDE702B9FFDEB2FA82F225
:1003B000002A40F09280A1EB0C014FEA1C471FFA83
:1003C0008CFE0126200CB1FBF7F307FB131140EA6A
:1003D00001410EFB03F0884208D91CEB010103F137
:1003E000FF3802D2884200F2CB804346091AA4B2F9
:1003F000B1FBF7F007FB101144EA01440EFB00FECD
:10040000A64508D91CEB040400F1FF3102D2A64531
:1004100000F2BB800846A4EB0E0440EA03409CE7D0
:10042000C6F12007B34022FA07FC4CEA030C20FA7D
:1004300007F401FA06F31C43F9404FEA1C4900FA9D
:1004400006F3B1FBF9F8200C1FFA8CFE09FB18111A
:1004500040EA014108FB0EF0884202FA06F20BD98D
:100460001CEB010108F1FF3A80F08880884240F2DD
:100470008580A8F102086144091AA4B2B1FBF9F021
:1004800009FB101144EA014100FB0EFE8E4508D91C
:100490001CEB010100F1FF346CD28E456AD90238A1
:1004A000614440EA0840A0FB0294A1EB0E01A14286
:1004B000C846A64656D353D05DB1B3EB080261EBF4
:1004C0000E0101FA07F722FA06F3F1401F43C5E9CE
:1004D000007100263146BDE8F087C2F12003D84004
:1004E0000CFA02FC21FA03F3914001434FEA1C4746
:1004F0001FFA8CFEB3FBF7F007FB10360B0C43EA38
:10050000064300FB0EF69E4204FA02F408D91CEBE7
:10051000030300F1FF382FD29E422DD902386344E5
:100520009B1B89B2B3FBF7F607FB163341EA034185
:1005300006FB0EF38B4208D91CEB010106F1FF38D4
:1005400016D28B4214D9023E6144C91A46EA0046CB
:1005500038E72E46284605E70646E3E61846F8E65D
:100560004B45A9D2B9EB020864EB0C0E0138A3E7A6
:100570004646EAE7204694E74046D1E7D0467BE787
:10058000023B614432E7304609E76444023842E7FF
:10059000704700BFDFF834D0002103E00C4B5B58FC
:1005A000435004310B480C4B42189A42F6D30B4A85
:1005B00002E0002342F8043B094B9A42F9D305F0CC
:1005C00029FB20F061FB00F06DFE70470000032066
:1005D00018BF04080000002064010020640100200E
:1005E000243C0120FEE700F073BC00F0E3BC704740
:1005F00010B5042104461FF070FD204610BD000018
:1006000038B50C4B0C4C18800C4B82201980636859
:10061000984740F6110398420AD1094D23682C608F
:10062000822098472B688220DB689847002038BDDD
:100630000120FCE7800100204C0000208201002006
:10064000840100204FF4A071F020FFF7D9BF000013
:10065000F7B52D4D2B6804461B698220984780B260
:100660002080002843D02B680DF106025B6901A9A8
:1006700082209847BDF80620A2F5B47292B20A2AE9
:1006800037D90B23B2FBF3F2204B1B889A4201D9D6
:10069000013B9AB2BDF8043040F6B8318B422AD8FB
:1006A000C3F571630E339BB20F21B3FBF1F318490D
:1006B00009888B4201D94B1E9BB2164E164D3068ED
:1006C0002F68834281B28CBF591AC91AB8B2BA4294
:1006D0008CBF101A801A89B280B201440529C8BFA4
:1006E00033603368C8BF2A6063802B68A38003B07F
:1006F000F0BD0022CEE7C3F56D6308339BB20E2B2D
:10070000D2D80023D9E700BF840100208201002055
:1007100080010020880100208C01002037B5684648
:100720000D461446FFF794FFBDF8000030B1BDF848
:1007300002302B60BDF804302360012003B030BDCF
:10074000704770477047012380F8741080F8753047
:100750007047002070470000034B4164003918BF08
:1007600001211970704700BF5F39012000207047D8
:10077000836B0BB10846184770474FF6FF70704700
:10078000406803689B69184770477047704700F0DE
:10079000B1BC08B503680446D3F880309847236895
:1007A00020469B6F984700F021F9236820461B6F75
:1007B0009847292000F08EFF00F018F923682046A2
:1007C0001B6F9847F8E710B504460AF0B3FF23689B
:1007D0002046D3F8AC30BDE81040184700F07CBC90
:1007E00000F080BC00F0A0BC00F052BC00F09EBC49
:1007F00000F0A6BC00F056BC0AF034B910B57C215C
:1008000004461FF06AFC204610BD90F877301BB1FB
:10081000406803681B6818471846704710B590F881
:10082000341090F874400C4B8C421A7809D03AB9C5
:100830000A4A0B491488088810800C8001221A701B
:1008400010BD002AFCD0054A05491488088810808C
:100850000C800022F3E700BF5839012054390120F1
:100860005639012070B50D46194635B9094B0A4A6B
:100870000A4840F2BB2120F0BDF9C0E90F52084BF5
:10088000003A18BF01221A700368BDE87040D3F81F
:100890008C301847401E0208781E0208C61E020847
:1008A0005E39012008B5094B1B888B4203D8084BE1
:1008B0001B88934205D9074B074A08489E2120F020
:1008C00099F9074B1980074B1A8008BD543901204C
:1008D000563901200B1F02086E1F0208C61E0208AF
:1008E0005A3901205C390120012108B5002208464F
:1008F00007F0D4FC064B4FF0FF31186007F024FDE1
:1009000000220421012007F08FFD024B186008BD72
:10091000940100209001002008B5074B186828B901
:10092000064B074A0748312120F064F9BDE808402A
:100930004FF0FF3107F008BD940100208C20020821
:100940009D200208DA20020808B5064B186828B96D
:10095000054B064A06483A2120F04CF9BDE808400C
:1009600007F02CBD940100208C2002082B210208E6
:10097000DA20020808B5074B186828B9064B074A61
:100980000748472120F036F9BDE80840002107F06C
:10099000DBBC00BF940100208C2002086821020803
:1009A000DA20020808B5064B186828B9054B064A34
:1009B0000648542120F01EF9BDE8084007F0FEBCAF
:1009C000940100208C200208A8210208DA200208E5
:1009D000044B186820B1002303491A4607F06ABD8A
:1009E000704700BF900100200400002013B5084CA0
:1009F000206858B100231A4601A907F09DFD206820
:100A00004FF0FF33002201A907F096FD02B010BDA0
:100A10009001002003685B6C184700207047036852
:100A20009B6A184740F26F307047000010B5074CC2
:100A3000074B2360204605F0F3F9064B2361064B74
:100A40006361064B4FF080629A6010BD5029002010
:100A500000B00240C50A0008610A000800E100E099
:100A600008B5034A034B0448362120F0C3F800BF01
:100A7000EC2102086C3B02081F220208084B10B54B
:100A800003600446074805F095FA074B4FF0806273
:100A9000C3F88820BFF34F8FBFF36F8F204610BD80
:100AA000782202085029002000E100E010B5044639
:100AB000FFF7E4FF20464FF45A611FF00EFB20467B
:100AC00010BD0000024B1B68586803685B6918473B
:100AD00060390120044B1B6893F876200AB1D86C6A
:100AE00000B99868704700BF603901202DE9F743CD
:100AF0000D68202D0C4600F09E80402D00F09B805C
:100B00002A1F56425641B5F5807F00F09680A5F524
:100B100000735D425D41FFF7DDFF03689B6A984704
:100B20002368B3F5807F844600F0968000F28780CA
:100B3000202B00F09380402B00F09080042B00F0DD
:100B40008480BCF1100F0CBF0221012100224A4B0E
:100B5000B4F81480D3F800E0678BDEF800905A6098
:100B6000BCF1100F29F440390CBF02200120A7EB83
:100B7000080749EA02029860DF60CEF80020DEF83C
:100B80003420D96222F007020243CEF83420DEF886
:100B9000402022F47F5222F03F023A43CEF8402018
:100BA000228BA2EB08029A6206B98DB3227FFF2A3C
:100BB00015BF02210021C3E90C12196315B3BCF162
:100BC000100FE1684FEA026E4AD14FF01F0801EAA8
:100BD0000802C1F3C42CC2EB0222B2FBF8F242EAD3
:100BE0000E02CCEB0C2CC1F34511BCFBF8FC42EA25
:100BF0000C42C1EB01214FF03F0CB1FBFCF142EA8A
:100C000001225A63C3E9067000211B4805F092FADD
:100C10001948012105F08EFAA38AE28A06B91DB3AC
:100C2000CDE900322369616813481A4605F042F99C
:100C300003B0BDE8F083012669E701256BE7B3F552
:100C4000007F7FF47EAF092103E010280CBF022152
:100C500001214FF400327AE70A21FAE70021F8E790
:100C60004EEA01015963CDE70092616822690248AA
:100C700005F002F9DCE700BF50290020F7B50D466A
:100C8000FFF728FF03689B6A98471028EB68297FC5
:100C900067D103F01F02C2EB02221F20B2FBF0F467
:100CA000C3F3C42244EA0164C2EB0222C3F3451336
:100CB000B2FBF0F244EA0244C3EB03233F220221D9
:100CC000B3FBF2F344EA03242B6828486E8B0268D6
:100CD000082BAB8AA6EB03061368C6600CBF4FF463
:100CE00000374FF4403723F440333B43C0E90171F0
:100CF0001360536B23F007030B435363136C23F40C
:100D00007F5323F03F033343B7F5003F13641CD1F7
:100D10000123C0E90C340923C0E90661C362002144
:100D200005F008FA0121114805F004FAB7F5003F73
:100D3000AA8AE98A0DD12B690C48CDE900211A460F
:100D4000194605F0B7F803B0F0BD0023C162836215
:100D5000E8E70091134621462A69044805F08CF81B
:100D6000F1E743EA01640121AEE700BF502900200A
:100D700070B5044625460A4B0C300026606026728A
:100D8000667245F8203B602229460AF03BFE04F5D6
:100D90005A63EE602435AB42FBD1204670BD00BFE4
:100DA00078220208012070470C2070470C2303FBB7
:100DB0000100083070470C2303FB01000830704726
:100DC000012070474FF4BB5070474FF4BB5303FBF7
:100DD0000100083070474FF4BB5303FB010008309B
:100DE0007047012070471020704700EB0110083059
:100DF000704700EB011008307047084601F02EB92B
:100E000010B5034B0360044609F054FB204610BDA7
:100E10003023020810B50446FFF7F2FF20461421E4
:100E20001FF05BF9204610BD10B5034B036004466C
:100E300009F040FB204610BDFC22020810B5044614
:100E4000FFF7F2FF204641F268711FF046F9204695
:100E500010BD000010B5034B0360044609F02AFBE7
:100E6000204610BDC822020810B50446FFF7F2FF65
:100E7000204618211FF031F9204610BD10B5094B4E
:100E80000360044600F5BC501430FFF7B9FF04F1CD
:100E90002C00FFF7C9FF04F11400FFF7DBFF204629
:100EA00010BD00BF6423020808B50248FFF7E6FF43
:100EB00008BD00BF9C01002010B50446FFF7DEFF0F
:100EC000204641F604111FF008F9204610BD00002D
:100ED0002DE9F34100F04CFF054600F04DFF0024E2
:100EE0000146234628462246009411F0ABFB264BD0
:100EF000264A274D1A60204604F0D2FA254811F000
:100F0000EDFA2B78BFF35B8FDB0737D428461FF051
:100F1000E6F898B3204C214B236004F1140000F54F
:100F2000BC5707F1180604F12C086060C4F808806B
:100F3000E760266109F0C0FA194B6361404609F089
:100F4000BBFA184BE362384609F0B6FA04F5805351
:100F5000154AC3F8942703F5F56004F01DFB2246FB
:100F600007F11401304604F00DFB304601F076F82D
:100F70000E481FF05DFE28461FF0BDF80C4802B079
:100F8000BDE8F041FFF703BCDC390120C028002098
:100F900098010020080000209C0100206423020822
:100FA000C8220208FC22020830230208A90E000809
:100FB000442800200148FFF7ECBB00BF4428002074
:100FC00070B5234C234E244B244D23603046FFF74D
:100FD000CFFE284614F0E2FC214B2248DC60224C74
:100FE00003600022F0204FF480712080C3E91212C8
:100FF0001E4C1F492080C3E919121E4C1A864FF05F
:1010000080714FF4A07059670121C3E90422C3E93C
:101010000622C3E90822C3E90A22C3E90E22C3E972
:101020001022C3E91422C3E916221A6683F86C2041
:101030001A67C3E9016583F8781020800E4C83F8A5
:10104000341020800D4802700D4A1A6070BD00BF38
:10105000A01A0020A41A0020301E0208C428002074
:101060004428002060390120543901205A390120D8
:1010700001000001563901205C3901205839012056
:10108000BC1F02080148FFF7F9BC00BFA41A0020EA
:10109000034B902283F85A2383F85823704700BFEC
:1010A00000E100E0094A0A49D3680A48C3F30A0389
:1010B000013B9BB20B801169C1F30A010139018028
:1010C0001364536B43F0010353637047006801409E
:1010D0003E2900203C290020014BD3F8AC0070478A
:1010E00000680140024B0122C3F8AC105A627047FD
:1010F0000068014038B5044609F009FD23685D6EBB
:101100000EF0FCF901462046A8472368054AD3F8AB
:101110008850A2F5163100232046A847002384F802
:101120004A3038BD005802D009F0A2BC034B4FF042
:1011300080629A604FF080729A60704700E100E030
:10114000084B4FF08062C3F88820BFF34F8FBFF386
:101150006F8F4FF08072C3F88820BFF34F8FBFF3BB
:101160006F8F704700E100E0134B144A1B6C11882D
:101170008B4210B5124C13D1124B198805F0E4FEC6
:10118000226892F86630013382F86630FFF720FC5F
:1011900020680AF0CFFABDE810400020FFF7D0BA6F
:1011A00005F0D2FE0020FFF7CCFA20680368BDE806
:1011B00010401B6A184700BF006801403E2900200C
:1011C000603901203C29002007B5064BADF8060028
:1011D0001B68054801220DF1060106F0B6FB03B0BD
:1011E0005DF804FB10000020C02A0020F0B5A1B07B
:1011F000102200210AA81FF089FD1422002103A853
:101200001FF084FD0021302214A81FF07FFD002470
:10121000224B01941A6C42F080521A641B6C03F04A
:1012200080530193019B1E4B02941A6842F4404282
:101230001A601B6803F4404302930122029B4FF49F
:101240008033CDE9082302254FF48003CDE90E5306
:1012500008274FF4A873042608A8CDE91073129547
:10126000139605F08FFE0F23CDE903354FF4A051FF
:101270004FF48053CDE9061303A80521059406F029
:1012800059F8C023189314A84FF4003314971A96F2
:101290001D9306F019F921B0F0BD00BF00380240DF
:1012A0000070004080B59AB004F0C2FCFFF79EFFCA
:1012B000142200210DA800241FF028FDB44B009437
:1012C0001A6BB448B44D42F020021A631A6B02F054
:1012D00020020092009A01941A6B42F080021A6375
:1012E0001A6B02F080020192019A02941A6B42F08A
:1012F00004021A631A6B02F004020292029A039427
:101300001A6B42F001021A631A6B02F00102039297
:10131000039A04941A6B42F002021A631A6B02F0E9
:1013200002020492049A05941A6B42F040021A6376
:101330001A6B02F040020592059A06941A6B42F06D
:1013400010021A631A6B02F010020692069A0794B2
:101350001A6B42F008021A631B6B03F00803079331
:1013600022460421079B05F011F822468B484FF4D2
:10137000405105F00BF8012602274FF0040885487C
:101380000F940DA9CDE90D86109704F017FF0DA954
:101390004FF440538148CDE90D36CDE90F4704F0B5
:1013A0000DFF7F487F4B036004F0E8FC7E4A7F4BD3
:1013B0002C62C5E9002328464FF48043C5E9043474
:1013C000C5E90244C5E9064405F0C2F910212846E2
:1013D00005F0FEFB2146284605F019FC74487549C6
:1013E00084624FF48273C0E900134FF40075182330
:1013F000C0E906530A23704DC362C0E90244C0E944
:101400000444C0E9084406F063FA6C4B0D974FF0B2
:10141000100CC5E900364023C5E904C34FF4C0737E
:10142000C5E906344FF40063C5E908344FF40053AE
:10143000AB624FF0030A07230DA92846CDE90E3809
:1014400010934FF00809C5E90248CDE911A7139799
:1014500006F064F94FF6FF7209A92846CDE90A960D
:10146000089409960C9406F079F9304604F00CFCC7
:101470004FF6FF7209A92846CDE90979CDE90B6439
:1014800006F06CF94FF6FF7209A92846CDE909A9C3
:10149000CDE90B8406F062F94FF40C730893089BB6
:1014A0000C934FF6FF7209A92846CDE909890B96DE
:1014B00006F054F940F26A51284606F066F93422E3
:1014C00021460DEB02001FF021FC3D4D3D4BAC864B
:1014D000C5E900340923C5E905361D2340F20D1E78
:1014E000C5E9073A40F24313C5E909E3284640F24B
:1014F000471340F21718C5E90B83C5E902442C6174
:1015000085F8364005F028FCFF21F022CDE91214C1
:101510004FF4806905214FF4A073CDE90E24CDE985
:101520001491CDE916420DA922462846CDE910377F
:10153000254D18930D94ADF864408DF8664005F084
:10154000D6FC224B2B601B6898472B68204DDB682C
:101550009847204BC5E90A47C5E90C442846C5E928
:101560000034C5E9027404F05BFC3146284604F0FF
:10157000E1FDFFF738F806F001FE174A174821464B
:1015800006F036FE164B186006F012FEFEE700BFAE
:10159000003802400008024090290020000C024060
:1015A0004829002000300240005C0040A086010075
:1015B000C02A0020005001408C2A0020400100A0D9
:1015C000E429002000680140442900201400002084
:1015D0005029002000B002407C230208EB050008DF
:1015E00040290020704770477FB5094B8DF81720C0
:1015F0001B6802930DF117020123009201930A4622
:101600000146044805F04CF907B05DF804FB00BF43
:101610000C000020902900207FB500238DF81730A2
:10162000084B1B6802930A4601230DF11701009134
:1016300001930146044805F0C3F99DF8170007B06F
:101640005DF804FB0C000020902900201FB5084C19
:1016500024680092CDE901340A4601230146054879
:1016600005F0AEF9003818BF012004B010BD00BF6E
:101670000C0000209029002004F006BB08B50648A5
:101680000022042104F082FEBDE808400248012245
:10169000042104F07BBE00BF0008024038B50B4DAA
:1016A000044601220A484FF4005104F06FFE002264
:1016B0000421284604F06AFE2046FFF785FD2846EF
:1016C0000122BDE83840042104F060BE0008024059
:1016D000000C024038B50B4D044600220A484FF476
:1016E000005104F053FE00220421284604F04EFE6F
:1016F0002046FFF769FD28460122BDE83840042155
:1017000004F044BE00080240000C0240F7B5144E3D
:10171000144F05460C4630460022042104F036FEE4
:1017200000224FF40051384604F030FE2846FFF7FF
:101730004BFD0D4B0D481B68224601A906F0A3FA8C
:10174000384601224FF40051019C04F01FFE304640
:101750000122042104F01AFE204603B0F0BD00BFB0
:1017600000080240000C024010000020C02A0020A7
:1017700004F08ABA0268034B9A4201D104F072BAAB
:10178000704700BF0010004082B00E4B0022009254
:10179000596C41F480415964596C01F480410091C5
:1017A00000990192196C41F0805119641B6C03F08F
:1017B00080530193019B0F216FF0010002B004F0F0
:1017C00089BA00BF003802400268094B9A4282B0D1
:1017D0000BD100230193074B1A6B42F480521A631A
:1017E0001B6B03F480530193019B02B0704700BF51
:1017F000003002400038024007B50F4B02689A42A1
:1018000016D10022A3F5F0430192196B41F40001B7
:1018100019631B6B03F40003019305215A20019BFC
:1018200004F058FA5A2003B05DF804EB04F084BACF
:1018300003B05DF804FB00BF00B002400268064B35
:101840009A4207D1054A136B23F4000313635A200D
:1018500004F080BA704700BF00B002400038024078
:101860002DE9F043044689B01422002103A81FF09B
:101870004DFA2268244B9A4243D1244C2448002537
:101880000095236B43F004032363236B03F00403ED
:101890000093009B0195236B43F001032363236BAB
:1018A00003F001030193019B4FF012094FF4007301
:1018B0004FF001080327042603A9CDE90339CDE938
:1018C0000587079604F07AFC4FF480731148079659
:1018D00003A9CDE90339CDE9058704F06FFC029532
:1018E000236C43F400032364236C03F4000302938A
:1018F000029B236A43F400032362236A23F4000358
:10190000236209B0BDE8F083005C0040003802406B
:101910000008024000000240F0B504468DB01422D9
:10192000002107A81FF0F2F92268574B9A4240F0B5
:10193000A88003F55043002500955A6C534842F0A7
:1019400080625A645A6C02F080620092009A01959B
:101950001A6B42F020021A631A6B02F02002019205
:10196000019A02951A6B42F001021A631A6B02F097
:1019700001020292029A03951A6B42F002021A6364
:101980001A6B02F002020392039A04951A6B42F05A
:1019900040021A631A6B02F040020492049A059501
:1019A0001A6B42F004021A631A6B02F004020592E9
:1019B000059A06951A6B42F008021A631B6B03F036
:1019C0000803069302240E26069B0A944FF48063B4
:1019D00007A9CDE907340B9604F0F0FB41F6580354
:1019E0002B480B9607A9CDE907340927CDE90954FF
:1019F00004F0E4FB032327480B9707A9CDE907343C
:101A0000CDE9095404F0DAFB4FF4706321480B96DA
:101A100007A9CDE90734CDE9095404F0CFFB4FF411
:101A20000C631D480B9607A9CDE90734CDE909548D
:101A300004F0C4FBC02319480B9607A9CDE907346D
:101A4000CDE9095404F0BAFB082315480B9607A901
:101A5000CDE90734CDE9095404F0B0FB4FF4A053AD
:101A60000D480B9707A9CDE90734CDE9095404F0D7
:101A7000A5FB58202A46052104F02CF9582004F033
:101A80005BF90DB0F0BD00BF0068014000140240DA
:101A9000000002400004024000180240000802401A
:101AA000000C024010B5044688B01422002103A89F
:101AB0001FF02CF92268144B9A4223D103F5684396
:101AC000002101915A6C114842F480125A645A6CF8
:101AD00002F480120192019A02911A6B42F02002E4
:101AE0001A631B6B03F020030293029B4FF4607296
:101AF00002230321CDE903230523CDE9061303A91E
:101B000004F05CFB08B010BD00500140001402401E
:101B10002DE9F04186B0002303932B4B1C68002C69
:101B20004FD14FF00108C3F80080284B00949A6B06
:101B3000274842EA08029A639B6B03EA0803009372
:101B4000022703260C25009B01A94FF63F03CDE990
:101B50000137CDE9046504F031FB1E48059501A964
:101B6000CDE90187CDE9034604F028FB48F23313A1
:101B70001948059501A9CDE90137CDE9034604F0DF
:101B80001DFB4FF683731548059501A9CDE9013773
:101B9000CDE9034604F012FB4CF20373104805959F
:101BA00001A9CDE90137CDE9034604F007FB602325
:101BB0000C48059501A9CDE90137CDE9034604F0AC
:101BC000FDFA06B0BDE8F081182B00200038024075
:101BD00000140240000802400018024000100240B9
:101BE000000C02400004024030B5014689B00022DA
:101BF000362004F06FF8362004F09EF80025154BCF
:101C000002951A6C144C42F010021A641B6C03F01B
:101C10001003029301A903A8029B05F037FC05F00D
:101C200025FC0E4B236040F2E733E36040000C4B91
:101C3000B0FBF3F00138606020462561A56006F036
:101C4000E1F920B9204606F0C1F809B030BD012005
:101C5000FBE700BF003802401C2B002000100040B2
:101C600040420F007047FEE7FEE7FEE7FEE77047E1
:101C7000014806F0BFB800BF1C2B0020014805F04A
:101C8000D9B800BFE4290020014804F0C9B900BF59
:101C9000502900200120704708B51EF0DDFF1623F3
:101CA00003604FF0FF3008BD08B51EF0D5FF1623C6
:101CB0000360FEE770B50D4614460E46731B9C424A
:101CC00001DC204670BDAFF3008006F8010BF5E79C
:101CD00070B50D4614460E46731B9C4201DC20462F
:101CE00070BD16F8010BAFF30080F5E74FF0FF3041
:101CF00070474FF400534B6000207047012070473D
:101D0000002070470A4A116808B5034609B9094915
:101D100011601068694603448B4206D91EF09CFF8F
:101D20000C2303604FF0FF3008BD1360FCE700BFD9
:101D30005C2B0020283C0120704710B5042104468C
:101D40001EF0CBF9204610BD012908B506D00229A6
:101D500008D059B903F0F0FB006808BD03F0ECFBB4
:101D60004068FAE703F0E8FB8068F6E70020F4E754
:101D700000487047B42302080120704713B50024BF
:101D800051B1036801948DF8034001AA9C680DF1DC
:101D90000303A04702B010BD0846FBE74089704727
:101DA000808970478088704783798088184480B222
:101DB0007047C07900F07F007047C079C009704754
:101DC000704710B5082104461EF087F9204610BD63
:101DD0007047704700F596730868496803C37047F9
:101DE000704770474160704770470000064BC0F86D
:101DF00048310023C0F84C3100F5A073C0F844010D
:101E0000C0F83C31704700BFAD1E000801230372CB
:101E100070477047704710B4C26841685410034659
:101E200001EB6200D20748BF0A599B685DF8044B7A
:101E300048BFD358184743682BB183682BB9C06893
:101E400000F001007047184670470120704710B538
:101E50000C2104461EF041F9204610BD10B510219A
:101E600004461EF03AF9204610BD10B54FF4AC718F
:101E700004461EF032F9204610BD08B50DF03EFBB9
:101E8000BDE808400DF002BF10B50446D0F83C0193
:101E900058B10368DB68984738B1D4F83C0103684F
:101EA0009B6898470023C4F83C3110BD2DE9F14FE1
:101EB000D0E9545A0746A86803681B6A9847B0F5EA
:101EC000BB5F05D2454B464AA32146481EF092FE11
:101ED000686803681B6A98470F2803D8424B404A3A
:101EE000A421F2E7E86803681B6A98470B2803D827
:101EF0003E4B3B4AA521E8E7DFF8F8900DF0FEFAEB
:101F00000DF002FBD9F8000010B10368DB689847B8
:101F1000D9F8000010B103681B689847DFF8D88033
:101F2000D8F8000010B103685B699847D7F838010A
:101F300010B103685B689847D8F8000010B10368D7
:101F40001B689847D7F8380110B103689B68984719
:101F5000E868036800215B6A98474FF0000B244B48
:101F600003600446C0F804B080F808B0A8680368AD
:101F700059465B6A9847064603F09CFB686803680D
:101F800059465B6A98473146054603F017FBC9F886
:101F90000040C7F83851C8F80060E5B12B1DCAF8F9
:101FA00000303368C5F808A03046DB68F563984711
:101FB0002B6828461B689847214630460EF04AFF9A
:101FC000236820461B69984723685B69204601B057
:101FD000BDE8F04F18472B46E1E700BFD8230208C1
:101FE000662402086A250208B12502085426020860
:101FF00064270208C0390120BC390120F8B5044625
:1020000017460E460DF09AFA104B0025C4E9547697
:102010000F4E1C60C4E952550E4B306823600E4BC6
:10202000C4E95035036829469B68C4E94E55984772
:10203000284603F035FA336893F876200AB1D86C55
:1020400000B9986815F0F5FA2046F8BDCC390120A2
:10205000603901201827020800270208064BC0F843
:1020600048310023C0F84C3100F5A073C0F844019A
:10207000C0F83C31704700BFAD1E0008006A7047D1
:10208000406A704770478B8880690A68DB0A50F89D
:1020900023001044704710B5C2B1137BB3B1547B19
:1020A000D27A240204F4E0641443C26998B202EBC9
:1020B000840213888B4202D192F9020010BD05D828
:1020C000013880B204320028F3D1F7E70020F5E7A9
:1020D00010B5282104461EF000F8204610BD00006F
:1020E00030B589B00446BDF850500695BDF84C5047
:1020F00005959DF8405004959DF83C5003959DF83A
:10210000385002959DF8345001959DF83050009557
:102110000EF02EFA064B2360119BA361129BE36124
:10212000159B2362169B6362204609B030BD00BF39
:10213000882702080020704781807047C18070475F
:102140000181704741817047704770477047704701
:10215000704710B4C4880368121B84885B6D091B28
:1021600012B25DF8044B09B218474FF6FF73838132
:102170004FF0FF3303621368C36110607047806AD9
:1021800070477047704770477047704790F8252038
:102190001AB190F8242002B11860704780F82C1012
:1021A000704710B40368046BD3F8A43062436143F2
:1021B0005DF8044B1847D0ED0C7A0368F8EEE77A27
:1021C000D3F8A43020EE270AB5EEC00AF1EE10FADB
:1021D00017DBB6EE007A30EE070ABDEEC07A17EED6
:1021E000101A60EEA70AF5EEC00AF1EE10FA1CDB39
:1021F000F6EE007A70EEA70AFDEEE07A17EE902A6E
:102200001847BDEEC07AF8EEC76A17EE102A30EE16
:10221000660AF7EE086A30EE260A511EBDEEC00AC5
:1022200010EE102A0A441146DBE7FDEEE07AB8EE24
:10223000E77A17EE902A70EEC70AB7EE087A70EECA
:10224000870A013AFDEEE00A10EE90CA9444624615
:10225000D6E710B40368046BD3F8B03062435DF87E
:10226000044B1847D0ED0C7A0368F8EEE77AD3F800
:10227000B03027EE800AB5EEC00AF1EE10FA08DBA6
:10228000F6EE007A30EE270AFDEEC07A17EE902ABD
:102290001847FDEEC07AB8EEE77A17EE902A30EED6
:1022A000470AB7EE087A30EE070A013ABDEEC00AD7
:1022B00010EE10CA94446246EAE710B40368446B17
:1022C000D3F8BC30624361435DF8044B1847D0ED4E
:1022D0000D7A0368F8EEE77AD3F8BC3020EE270ACF
:1022E000B5EEC00AF1EE10FA17DBB6EE007A30EE6A
:1022F000070ABDEEC07A17EE101A60EEA70AF5EED7
:10230000C00AF1EE10FA1CDBF6EE007A70EEA70AB6
:10231000FDEEE07A17EE902A1847BDEEC07AF8EE8F
:10232000C76A17EE102A30EE660AF7EE086A30EE3A
:10233000260A511EBDEEC00A10EE102A0A441146AC
:10234000DBE7FDEEE07AB8EEE77A17EE902A70EE62
:10235000C70AB7EE087A70EE870A013AFDEEE00A86
:1023600010EE90CA94446246D6E710B40368446BFA
:10237000D3F8C03062435DF8044B1847D0ED0D7AB6
:102380000368F8EEE77AD3F8C03027EE800AB5EE9E
:10239000C00AF1EE10FA08DBF6EE007A30EE270AFA
:1023A000FDEEC07A17EE902A1847FDEEC07AB8EE1F
:1023B000E77A17EE902A30EE470AB7EE087A30EE49
:1023C000070A013ABDEEC00A10EE10CA94446246F4
:1023D000EAE7D0F82C31026B002B07DB02EB43035A
:1023E00093FBF2F000EBD070401070476FF00100EB
:1023F00000FB0320013890FBF2F000EBD07040109E
:1024000040427047D0ED4B7AB8EEE70AD0ED0C7A37
:10241000F8EEE77A80EE270A7047D0F82C01704773
:10242000D0F83031026B002B07DB02EB430393FB48
:10243000F2F000EBD070401070476FF0010000FB2D
:102440000320013890FBF2F000EBD07040104042C6
:102450007047D0ED4C7AB8EEE70AD0ED0C7AF8EE82
:10246000E77A80EE270A7047D0F830017047D0F83D
:102470003431426B002B07DB02EB430393FBF2F09A
:1024800000EBD070401070476FF0010000FB03209C
:10249000013890FBF2F000EBD070401040427047E2
:1024A000D0ED4D7AB8EEE70AD0ED0D7AF8EEE77A86
:1024B00080EE270A7047D0F834017047D0F83831E1
:1024C000426B002B07DB02EB430393FBF2F000EBC4
:1024D000D070401070476FF0010000FB03200138FE
:1024E00090FBF2F000EBD070401040427047D0ED0E
:1024F0004E7AB8EEE70AD0ED0D7AF8EEE77A80EE84
:10250000270A7047D0F83801704770B50368044651
:10251000D3F888300D461646984723683246294638
:102520002046D3F89030BDE8704018470368D3F8D0
:10253000943018470368D3F8D43018470368D3F8A9
:10254000E03018470368002A10B4D3F8A430046BB5
:102550000EDB04EB420292FBF4F101EBD171491066
:10256000B0F91E215DF8044B013A0A44494218476C
:102570006FF0010101FB0241013991FBF4F101EB24
:10258000D17149104942EBE70368D3F83C31184751
:10259000026B03685143D3F8483118470368D3F8F6
:1025A00044311847D0ED0C7A0368F8EEE77AD3F897
:1025B000483127EE800AB5EEC00AF1EE10FA08DBCA
:1025C000F6EE007A30EE270AFDEEC07A17EE901A8A
:1025D0001847FDEEC07AB8EEE77A17EE902A30EE93
:1025E000470AB7EE087A30EE070A511EBDEEC00A60
:1025F00010EE102A0A441146EAE7C0F83C11704771
:102600000368D3F850311847036810B5D3F85C312C
:10261000044698470028236B07DB03EB400090FB40
:10262000F3F000EBD070401010BD6FF0010202FB20
:102630000030013890FBF3F000EBD07040104042C6
:10264000F2E70368D3F858311847036810B5D3F898
:102650005C310446984707EE900AB8EEE70AD4EDDD
:102660000C7AF8EEE77A80EE270A10BDD0F83C012C
:102670007047026B03685143D3F868311847D0EDB7
:102680000C7A0368F8EEE77AD3F8683127EE800A0F
:10269000B5EEC00AF1EE10FA08DBF6EE007A30EE85
:1026A000270AFDEEC07A17EE901A1847FDEEC07AA1
:1026B000B8EEE77A17EE902A30EE470AB7EE087ABE
:1026C00030EE070A511EBDEEC00A10EE102A0A4471
:1026D0001146EAE7C0F840117047036810B5D3F817
:1026E0007431044698470028236B07DB03EB400056
:1026F00090FBF3F000EBD070401010BD6FF00102C2
:1027000002FB0030013890FBF3F000EBD07040107A
:102710004042F2E7036810B5D3F874310446984795
:1027200007EE900AB8EEE70AD4ED0C7AF8EEE77AF5
:1027300080EE270A10BDD0F8400170470368026B95
:10274000D3F88431002910B504460EDB02EB4101B9
:1027500091FBF2F101EBD171491009B22046984783
:10276000D4E94F2302FB003010BD6FF0010000FBE5
:102770000121013991FBF2F101EBD171491049427C
:10278000EBE7006B7047406B70470368D3F8483144
:1027900018470368D3F85C311847026B036851434C
:1027A000D3F814311847036870B5D3F81851D3F82B
:1027B0008031D0F84461044698472B4656F82010E3
:1027C0002046BDE870401847B0F91C21B0F91E3111
:1027D000934207DBB0F94C31194491FBF2F002FB54
:1027E000101109B2084670474801704780F826105A
:1027F000704790F82600704701637047006B704780
:1028000001207047704770477047704710B54FF40C
:10281000387104461DF061FC204610BD10B541F230
:102820005C7104461DF059FC204610BD90F82C3018
:102830000BB107F07FBE704790F8252012B10368F6
:102840005B691847704700000A1E10B503DBB0F93A
:102850001E41944206DC084B084A094840F23161A7
:102860001EF0C8F90368D0F84441D3F88031984786
:1028700054F8200010BD00BFD8270208FB2702082B
:102880004A2802080B1E10B5044603DBB0F91E21CE
:102890009A4206DC074B084A084840F22B611EF0BA
:1028A000A9F90368D3F884319847D4E94F2302FB90
:1028B000003010BDD8270208A72802084A280208BD
:1028C00070B5036804461B6B154698472368294674
:1028D00020465B6BBDE87040184770B504461D4646
:1028E000BDF91060FFF7ECFF2368294620469B6B7B
:1028F0009847236831462046DB6BBDE87040184797
:10290000094A02604FF4807100228184FF21C0E9EE
:102910000122C0E90322C0E90522C0E9072280F8AC
:1029200026108262704700BFE042020837B501AB53
:1029300015460DF019FF00284FEA401401992A4668
:102940004FF0200004DB0DF02EFF204403B030BD1B
:102950000DF029FF201AF9E770B5B0F91441B0F86D
:102960001A516319B0F84250ED1AD0E94D320E46B3
:102970002DB2D21A691EF01AFFF7D8FF2C44013C81
:10298000C0EB441070BD38B504460846B4F81831A1
:10299000B4F816110B44B4F84010D4E94B52C91ADC
:1029A00009B2521B0139401BFFF7C0FFB4F91631C1
:1029B00000EB431038BD000070B5154E0023FF2218
:1029C000C0E90333436033680272124A026093F82D
:1029D000762004460AB1D86C00B998680368DB6AAF
:1029E00098473368B0FA80F5D86C6D0930B1036848
:1029F000DB6A9847002808BF45F001052DB9064B52
:102A0000064A07482C211EF0F5F8204670BD00BF8D
:102A100060390120D0390208F6280208542902083A
:102A20008D29020810B5044609F046FA0B4A2260C7
:102A300000230122C4E90D23094AE2634FF6FF7225
:102A4000A4F840202E22236384F84430A4F84630B2
:102A5000A4F84820E364204610BD00BF0C420208E1
:102A6000D02302082DE9F04F2DED048B044687B0EA
:102A7000A04600260EF042F8EE4BE66348F8403BD5
:102A80004046FFF73DFF4FF480724FF6FF7304F1AD
:102A90006C09A4F89020E84AE266A4F8923084F821
:102AA000943005A9484604F1980BC4E91C66C4E9B2
:102AB0001E66C4E92066C4E92266ADF814300AF047
:102AC0007FFF5846FFF71CFF04F1CC05DB4BC4F831
:102AD00098306421C4F8C460A4F8C860284609F09E
:102AE000DDFDD74BC4F8CC30012704F50773632212
:102AF0003146C4E98276C4E984362846FFF751FBA3
:102B000004F56B7ACF4BC4F8CC30A4F81862504669
:102B100009F0D2F9CC4BC4F8AC3304F57973C4E9AD
:102B2000F776184609EE103AFFF746FFC74BC4F890
:102B3000E43304F57F731846C4F8F86308EE103ADE
:102B4000FFF770FFC24BC4F8FC3304F24C43184645
:102B500008EE903AFFF766FFBE4BC4F84C344FF4D2
:102B6000965104F29C400AF0A9FFF02300933246EC
:102B70004FF4A07331464046FFF7AFFE4FF07F435E
:102B8000A366324631464846FFF79AFE05A94846F5
:102B9000ADF814600AF014FFDE23009309224FF40D
:102BA000997307215846FFF798FE4FF0FF324FF018
:102BB0007F43C4E9302305233946A4F8C8303246A0
:102BC0002846FFF7A2FCDE23009309224FF49973F5
:102BD00007212846FFF781FE1423009317220423C0
:102BE0000A21284609F00CFD0223009306223346F1
:102BF0003146284609F007FC642231462846FFF793
:102C00005CFB3A46D4F83014D4F8340409F0B8FD2B
:102C10000A23C4F83434904BC4F82C3418EE101A3C
:102C2000C4F83074A4F83C74284609F01BFC3A46FA
:102C3000D4F88014D4F8840409F0A2FD0A23C4F85F
:102C40008434854BC4F87C3418EE901AC4F8807430
:102C500028461F46A4F88C6409F0F2FB19EE101AFE
:102C60005046C4F8F87309F023F8C4F8E0635146FD
:102C7000284609F0D3FBD4ED407A9FED787AF8EE40
:102C8000E77A67EE877AF5EEC07AF1EE10FAC1F2D4
:102C9000AD82B6EE007A77EE877AFDEEE77A17EE30
:102CA000901A284609F0CFFDD4ED407A9FED6C7A5A
:102CB000F8EEE77A67EE877AF5EEC07AF1EE10FA71
:102CC000C1F2A982B6EE007A77EE877AFDEEE77A56
:102CD00017EE901A284609F0B6FDD4ED407A9FED24
:102CE000617AF8EEE77A67EE877AF5EEC07AF1EE70
:102CF00010FAC1F2A582B6EE007A77EE877AFDEE81
:102D0000E77A17EE901A284609F09DFDD4ED407A37
:102D10009FED557AF8EEE77A67EE877AF5EEC07A9E
:102D2000F1EE10FAC1F2A182B6EE007A77EE877A60
:102D3000FDEEE77A17EE901A284609F084FDD4EDEF
:102D4000407A9FED4A7AF8EEE77A67EE877AF5EEF9
:102D5000C07AF1EE10FAC1F29D82B6EE007A77EEFB
:102D6000877AFDEEE77A17EE901A284609F06BFD98
:102D7000D4ED407A9FED3E7AF8EEE77A67EE877AF7
:102D8000F5EEC07AF1EE10FAC1F29982B6EE007A51
:102D900077EE877AFDEEE77A17EE901A284609F06B
:102DA00052FDD4ED407A9FED337AF8EEE77A67EE84
:102DB000877AF5EEC07AF1EE10FAC1F29582B6EE9E
:102DC000007A77EE877AFDEEE77A17EE901A2846BA
:102DD00009F039FDD4ED407A9FED277AF8EEE77AD5
:102DE00067EE877AF5EEC07AF1EE10FAC1F29182C1
:102DF000B6EE007A77EE877AFDEEE77A17EE901A54
:102E0000284609F020FDD4ED407A9FED1C7AF8EEBB
:102E1000E77A67EE877AF5EEC07AF1EE10FAC1F242
:102E20008D82B6EE007A77EE877AFDEEE77A17EEBE
:102E3000901A4DE0942B0208B04302084843020860
:102E4000843B0208F8290208943F0208B0390208BE
:102E5000C440020868410208C59714FF26E8B04242
:102E60005897C142C28AC542155BBB42A1B3A44276
:102E700021F2854242424A4212191142C722D541EB
:102E80006C1EB8417612CA4155A8FE41F9CD2042C8
:102E9000A9FE3D4288084D42502E4842E14F2F4244
:102EA00086FF07421554B84151965E41FB0115411A
:102EB0000A243041E1F19A412FF90442B8DC48423A
:102EC000924B8642CCD2A142B23AB242154AB542A6
:102ED000284609F0B8FCD4ED407A1FED177AF8EED9
:102EE000E77A67EE877AF5EEC07AF1EE10FAC1F272
:102EF0003A82B6EE007A77EE877AFDEEE77A17EE41
:102F0000901A284609F09FFCD4ED407A1FED237AF1
:102F1000F8EEE77A67EE877AF5EEC07AF1EE10FA0E
:102F2000C1F23682B6EE007A77EE877AFDEEE77A66
:102F300017EE901A284609F086FCD4ED407A1FED72
:102F40002E7AF8EEE77A67EE877AF5EEC07AF1EE40
:102F500010FAC1F23282B6EE007A77EE877AFDEE91
:102F6000E77A17EE901A284609F06DFCD4ED407A06
:102F70001FED3A7AF8EEE77A67EE877AF5EEC07AD7
:102F8000F1EE10FAC1F22E82B6EE007A77EE877A71
:102F9000FDEEE77A17EE901A284609F054FCD4EDBE
:102FA000407A1FED457AF8EEE77A67EE877AF5EE1C
:102FB000C07AF1EE10FAC1F22A82B6EE007A77EE0C
:102FC000877AFDEEE77A17EE901A284609F03BFC67
:102FD000D4ED407A1FED517AF8EEE77A67EE877A02
:102FE000F5EEC07AF1EE10FAC1F22682B6EE007A62
:102FF00077EE877AFDEEE77A17EE901A284609F009
:1030000022FCD4ED407A1FED5C7AF8EEE77A67EEA9
:10301000877AF5EEC07AF1EE10FAC1F22282B6EEAE
:10302000007A77EE877AFDEEE77A17EE901A284657
:1030300009F009FCD4ED407A1FED687AF8EEE77AE2
:1030400067EE877AF5EEC07AF1EE10FAC1F21E82D1
:10305000B6EE007A77EE877AFDEEE77A17EE901AF1
:10306000284609F0F0FBD4ED407A1FED737AF8EEB4
:10307000E77A67EE877AF5EEC07AF1EE10FAC1F2E0
:103080001A82B6EE007A77EE877AFDEEE77A17EECF
:10309000901A284609F0D7FBD4ED407A1FED7F7ACD
:1030A000F8EEE77A67EE877AF5EEC07AF1EE10FA7D
:1030B000C1F21682B6EE007A77EE877AFDEEE77AF5
:1030C00017EE901A284609F0BEFBD4ED407A1FEDAA
:1030D0008A7AF8EEE77A67EE877AF5EEC07AF1EE53
:1030E00010FAC1F21282B6EE007A77EE877AFDEE20
:1030F000E77A17EE901A284609F0A5FBD4ED407A3E
:103100001FED967AF8EEE77A67EE877AF5EEC07AE9
:10311000F1EE10FAC1F20E82B6EE007A77EE877AFF
:10312000FDEEE77A17EE901A284609F08CFBD4EDF5
:10313000407A1FEDA17AF8EEE77A67EE877AF5EE2E
:10314000C07AF1EE10FAC1F20A82B6EE007A77EE9A
:10315000877AFDEEE77A17EE901A284609F073FB9E
:10316000D4ED407A1FEDAD7AF8EEE77A67EE877A14
:10317000F5EEC07AF1EE10FAC1F20682B6EE007AF0
:1031800077EE877AFDEEE77A17EE901A284609F077
:103190005AFBD4ED407A1FEDB87AF8EEE77A67EE85
:1031A000877AF5EEC07AF1EE10FAC1F20282B6EE3D
:1031B000007A77EE877AFDEEE77A17EE901A2846C6
:1031C00009F041FBD4ED407A1FEDC47AF8EEE77ABE
:1031D00067EE877AF5EEC07AF1EE10FAC1F2FE8161
:1031E000B6EE007A77EE877AFDEEE77A17EE901A60
:1031F000284609F028FBD4ED407A1FEDCF7AF8EE8F
:10320000E77A67EE877AF5EEC07AF1EE10FAC1F24E
:10321000FA81B6EE007A77EE877AFDEEE77A17EE5E
:10322000901A284609F00FFBD4ED407A1FEDDB7AA7
:10323000F8EEE77A67EE877AF5EEC07AF1EE10FAEB
:10324000C1F2F681B6EE007A77EE877AFDEEE77A84
:1032500017EE901A284609F0F6FAD4ED407A1FEDE1
:10326000E67AF8EEE77A67EE877AF5EEC07AF1EE65
:1032700010FAC1F2F281B6EE007A77EE877AFDEEAF
:10328000E77A17EE901A284609F0DDFAD4ED407A75
:103290001FEDF27AF8EEE77A67EE877AF5EEC07AFC
:1032A000F1EE10FAC1F2EE81B6EE007A77EE877A8F
:1032B000FDEEE77A17EE901A284609F0C4FAD4ED2D
:1032C000407A9FEDF47AF8EEE77A67EE877AF5EECA
:1032D000C07AF1EE10FAC1F2EA81B6EE007A77EE2A
:1032E000877AFDEEE77A17EE901A284609F0ABFAD6
:1032F000D4ED407A9FEDE87AF8EEE77A67EE877AC8
:10330000F5EEC07AF1EE10FAC1F2E681B6EE007A7F
:1033100077EE877AFDEEE77A17EE901A284609F0E5
:1033200092FAD4ED407A9FEDDD7AF8EEE77A67EE17
:10333000877AF5EEC07AF1EE10FAC1F2E281B6EECC
:10334000007A77EE877AFDEEE77A17EE901A284634
:1033500009F079FAD4ED407A9FEDD17AF8EEE77A68
:1033600067EE877AF5EEC07AF1EE10FAC1F2DE81EF
:10337000B6EE007A77EE877AFDEEE77A17EE901ACE
:10338000284609F060FAD4ED407A9FEDC67AF8EE4F
:10339000E77A67EE877AF5EEC07AF1EE10FAC1F2BD
:1033A000DA81B6EE007A77EE877AFDEEE77A17EEED
:1033B000901A284609F047FAD4ED407A9FEDBA7A80
:1033C000F8EEE77A67EE877AF5EEC07AF1EE10FA5A
:1033D000C1F2D681B6EE007A77EE877AFDEEE77A13
:1033E00017EE901A284609F02EFAD4ED407A9FED98
:1033F000AF7AF8EEE77A67EE877AF5EEC07AF1EE0B
:1034000010FAC1F2D281B6EE007A77EE877AFDEE3D
:10341000E77A17EE901A284609F015FAD4ED407AAB
:103420009FEDA37AF8EEE77A67EE877AF5EEC07A39
:10343000F1EE10FAC1F2CE81B6EE007A77EE877A1D
:10344000FDEEE77A17EE901A284609F0FCF9D4ED64
:10345000407A9FED987AF8EEE77A67EE877AF5EE94
:10346000C07AF1EE10FAC1F2CA81B6EE007A77EEB8
:10347000877AFDEEE77A17EE901A284609F0E3F90D
:10348000D4ED407A9FED8C7AF8EEE77A67EE877A92
:10349000F5EEC07AF1EE10FAC1F2C681B6EE007A0E
:1034A00077EE877AFDEEE77A17EE901A284609F054
:1034B000CAF9D4ED407A9FED817AF8EEE77A67EEAB
:1034C000877AF5EEC07AF1EE10FAC1F2C281B6EE5B
:1034D000007A77EE877AFDEEE77A17EE901A2846A3
:1034E00009F0B1F9D4ED407A9FED757AF8EEE77AFC
:1034F00067EE877AF5EEC07AF1EE10FAC1F2BE817E
:10350000B6EE007A77EE877AFDEEE77A17EE901A3C
:10351000284609F098F9D4ED407A9FED6A7AF8EEE2
:10352000E77A67EE877AF5EEC07AF1EE10FAC1F22B
:10353000BA81B6EE007A77EE877AFDEEE77A17EE7B
:10354000901A284609F07FF9D4ED407A9FED5E7A13
:10355000F8EEE77A67EE877AF5EEC07AF1EE10FAC8
:10356000C1F2B681B6EE007A77EE877AFDEEE77AA1
:1035700017EE901A284609F066F9D4ED407A9FEDCF
:10358000537AF8EEE77A67EE877AF5EEC07AF1EED5
:1035900010FAC1F2B281B6EE007A77EE877AFDEECC
:1035A000E77A17EE901A284609F04DF9D4ED407AE3
:1035B0009FED477AF8EEE77A67EE877AF5EEC07A04
:1035C000F1EE10FAC1F2AE81B6EE007A77EE877AAC
:1035D000FDEEE77A17EE901A284609F034F9D4ED9B
:1035E000407A9FED3C7AF8EEE77A67EE877AF5EE5F
:1035F000C07AF1EE10FAC1F2AA81B6EE007A77EE47
:10360000877AFDEEE77A17EE901A284609F01BF943
:10361000D4ED407A9FED307AF8EEE77A67EE877A5C
:10362000F5EEC07AF1EE10FAC1F2A681B6EE007A9C
:1036300077EE877AFDEEE77A17EE901A284609F0C2
:1036400002F9D4ED407A9FED257AF8EEE77A67EE3D
:10365000877AF5EEC07AF1EE10FAC1F2A281B6EEE9
:10366000007A77EE877AFDEEE77A17EE901A284611
:1036700009F0E9F8D4ED407A9FED197AF8EEE77A8F
:1036800067EE877AF5EEC07AF1EE10FAC1F29E810C
:103690004EE000BFFAD0AB42C165994251778342F8
:1036A00056DE5F42917247426D1C434292965242EF
:1036B000C7037042D8B98842D3B695429CF099426C
:1036C000696192422BAF7D42592D4442907D024266
:1036D000777B8A416FB0C340A1A3983FF8B85540AB
:1036E00042133D410252C44150581A42999F4B42E5
:1036F00028356C42F7067742D2DA6C42F8FA534228
:103700001E85364243C71F426651194265752842DD
:1037100065D34C42A627804296399C428374B442BA
:10372000CE38C34287CFC4424554B84235F29F4297
:10373000B6EE007A77EE877AFDEEE77A17EE901A0A
:10374000284609F080F8D4ED407A1FED1A7AF8EE99
:10375000E77A67EE877AF5EEC07AF1EE10FAC1F2F9
:103760004A81B6EE007A77EE877AFDEEE77A17EEB9
:10377000901A284609F067F8D4ED407A1FED267AB2
:10378000F8EEE77A67EE877AF5EEC07AF1EE10FA96
:10379000C1F24681B6EE007A77EE877AFDEEE77ADF
:1037A00017EE901A284609F04EF8D4ED407A1FED36
:1037B000317AF8EEE77A67EE877AF5EEC07AF1EEC5
:1037C00010FAC1F24281B6EE007A77EE877AFDEE0A
:1037D000E77A17EE901A284609F035F8D4ED407ACA
:1037E0001FED3D7AF8EEE77A67EE877AF5EEC07A5C
:1037F000F1EE10FAC1F23E81B6EE007A77EE877AEA
:10380000FDEEE77A17EE901A284609F01CF8D4ED81
:10381000407A1FED487AF8EEE77A67EE877AF5EEA0
:10382000C07AF1EE10FAC1F23A81B6EE007A77EE84
:10383000877AFDEEE77A17EE901A284609F003F82A
:10384000D4ED407A1FED547AF8EEE77A67EE877A86
:10385000F5EEC07AF1EE10FAC1F23681B6EE007ADA
:1038600077EE877AFDEEE77A17EE901A284608F091
:10387000EAFFD4ED407A1FED5F7AF8EEE77A67EE63
:10388000877AF5EEC07AF1EE10FAC1F23281B6EE27
:10389000007A77EE877AFDEEE77A17EE901A2846DF
:1038A00008F0D1FFD4ED407A1FED6B7AF8EEE77A9D
:1038B00067EE877AF5EEC07AF1EE10FAC1F22E814A
:1038C000B6EE007A77EE877AFDEEE77A17EE901A79
:1038D000284608F0B8FFD4ED407A1FED767AF8EE6E
:1038E000E77A67EE877AF5EEC07AF1EE10FAC1F268
:1038F0002A81B6EE007A77EE877AFDEEE77A17EE48
:10390000901A284608F09FFFD4ED407A1FED827A86
:10391000F8EEE77A67EE877AF5EEC07AF1EE10FA04
:10392000C1F22681B6EE007A77EE877AFDEEE77A6D
:1039300017EE901A284608F086FFD4ED407A1FED66
:103940008D7AF8EEE77A67EE877AF5EEC07AF1EED7
:1039500010FAC1F22281B6EE007A77EE877AFDEE98
:10396000E77A17EE901A284608F06DFFD4ED407AFA
:103970001FED997AF8EEE77A67EE877AF5EEC07A6E
:10398000F1EE10FAC1F21E81B6EE007A77EE877A78
:10399000FDEEE77A17EE901A284608F054FFD4EDB2
:1039A000407A1FEDA47AF8EEE77A67EE877AF5EEB3
:1039B000C07AF1EE10FAC1F21A81B6EE007A77EE13
:1039C000877AFDEEE77A17EE901A284608F03BFF5B
:1039D000D4ED407A1FEDB07AF8EEE77A67EE877A99
:1039E000F5EEC07AF1EE10FAC1F21681B6EE007A69
:1039F00077EE877AFDEEE77A17EE901A284608F000
:103A000022FFD4ED407A1FEDBB7AF8EEE77A67EE3D
:103A1000877AF5EEC07AF1EE10FAC1F21281B6EEB5
:103A2000007A77EE877AFDEEE77A17EE901A28464D
:103A300008F009FFD4ED407A1FEDC77AF8EEE77A77
:103A400067EE877AF5EEC07AF1EE10FAC1F20E81D8
:103A5000B6EE007A77EE877AFDEEE77A17EE901AE7
:103A6000284608F0F0FED4ED407A1FEDD27AF8EE49
:103A7000E77A67EE877AF5EEC07AF1EE10FAC1F2D6
:103A80000A81B6EE007A77EE877AFDEEE77A17EED6
:103A9000901A284608F0D7FED4ED407A1FEDDE7A62
:103AA000F8EEE77A67EE877AF5EEC07AF1EE10FA73
:103AB000C1F20681B6EE007A77EE877AFDEEE77AFC
:103AC00017EE901A284608F0BEFED4ED407A1FED9E
:103AD000E97AF8EEE77A67EE877AF5EEC07AF1EEEA
:103AE00010FAC1F20281B6EE007A77EE877AFDEE27
:103AF000E77A17EE901A284608F0A5FED4ED407A32
:103B00009FEDF37AF8EEE77A67EE877AF5EEC07A02
:103B1000F1EE10FAC1F2FE80B6EE007A77EE877A07
:103B2000FDEEE77A17EE901A284608F08CFED4EDE9
:103B3000407A9FEDE87AF8EEE77A67EE877AF5EE5D
:103B4000C07AF1EE10FAC1F2FA80B6EE007A77EEA2
:103B5000877AFDEEE77A17EE901A284608F073FE92
:103B6000D4ED407A9FEDDC7AF8EEE77A67EE877A5B
:103B7000F5EEC07AF1EE10FAC1F2F680B6EE007AF8
:103B800077EE877AFDEEE77A17EE901A284608F06E
:103B90005AFED4ED407A9FEDD17AF8EEE77A67EEDF
:103BA000877AF5EEC07AF1EE10FAC1F2F280B6EE45
:103BB000007A77EE877AFDEEE77A17EE901A2846BC
:103BC00008F041FED4ED407A9FEDC57AF8EEE77A31
:103BD00067EE877AF5EEC07AF1EE10FAC1F2EE8068
:103BE000B6EE007A77EE877AFDEEE77A17EE901A56
:103BF000284608F028FED4ED407A9FEDBA7AF8EE18
:103C0000E77A67EE877AF5EEC07AF1EE10FAC1F244
:103C1000EA80B6EE007A77EE877AFDEEE77A17EE65
:103C2000901A284608F00FFED4ED407A9FEDAE7A48
:103C3000F8EEE77A67EE877AF5EEC07AF1EE10FAE1
:103C4000C1F2E680B6EE007A77EE877AFDEEE77A8B
:103C500017EE901A284608F0F6FDD4ED407A9FED55
:103C6000A37AF8EEE77A67EE877AF5EEC07AF1EE9E
:103C700010FAC1F2E280B6EE007A77EE877AFDEEB6
:103C8000E77A17EE901A284608F0DDFDD4ED407A69
:103C90009FED977AF8EEE77A67EE877AF5EEC07ACD
:103CA000F1EE10FAC1F2DE80B6EE007A77EE877A96
:103CB000FDEEE77A17EE901A284608F0C4FDD4ED21
:103CC000407A9FED8C7AF8EEE77A67EE877AF5EE28
:103CD000C07AF1EE10FAC1F2DA80B6EE007A77EE31
:103CE000877AFDEEE77A17EE901A284608F0ABFDCA
:103CF000D4ED407A9FED807AF8EEE77A67EE877A26
:103D0000F5EEC07AF1EE10FAC1F2D680B6EE007A86
:103D100077EE877AFDEEE77A17EE901A284608F0DC
:103D200092FDD4ED407A9FED757AF8EEE77A67EE72
:103D3000877AF5EEC07AF1EE10FAC1F2D280B6EED3
:103D4000007A77EE877AFDEEE77A17EE901A28462A
:103D500008F079FDD4ED407A9FED697AF8EEE77AC4
:103D600067EE877AF5EEC07AF1EE10FAC1F2CE80F6
:103D7000B6EE007A77EE877AFDEEE77A17EE901AC4
:103D8000284608F060FDD4ED407A9FED5E7AF8EEAB
:103D9000E77A67EE877AF5EEC07AF1EE10FAC1F2B3
:103DA000CA80B6EE007A77EE877AFDEEE77A17EEF4
:103DB000901A284608F047FDD4ED407A9FED527ADC
:103DC000F8EEE77A67EE877AF5EEC07AF1EE10FA50
:103DD000C1F2C680B6EE007A77EE877AFDEEE77A1A
:103DE00017EE901A284608F02EFDD4ED407A9FED8C
:103DF000477AF8EEE77A67EE877AF5EEC07AF1EE69
:103E000010FAC1F2C280B6EE007A77EE877AFDEE44
:103E1000E77A17EE901A284608F015FDD4ED407A9F
:103E20009FED3B7AF8EEE77A67EE877AF5EEC07A97
:103E3000F1EE10FAC1F2BE80B6EE007A77EE877A24
:103E4000FDEEE77A17EE901A284608F0FCFCD4ED58
:103E5000407A9FED307AF8EEE77A67EE877AF5EEF2
:103E6000C07AF1EE10FAC1F2BA80B6EE007A77EEBF
:103E7000877AFDEEE77A17EE901A284608F0E3FC01
:103E8000D4ED407A9FED247AF8EEE77A67EE877AF0
:103E9000F5EEC07AF1EE10FAC1F2B680B6EE007A15
:103EA00077EE877AFDEEE77A17EE901A284608F04B
:103EB000CAFCD4ED407A9FED197AF8EEE77A67EE06
:103EC000877AF5EEC07AF1EE10FAC1F2B2803FE0E7
:103ED00039658042A1BB3F42A71909420FC6CC41B8
:103EE000510FB84151F8D04151C4044215512642F6
:103EF00072BB4142ABAF4D428E5045421B7C2942C2
:103F000039A10042C360AA4164234C41D50F12413C
:103F1000B9603F412CF1AA41C9D70F42949E544247
:103F2000E1858B42EF74A54283B1B342A781B442CD
:103F30009C36A942D4CA95425AB87F424A865A4210
:103F4000263F4542306C4442CCCA564266AA75426E
:103F5000B6EE007A77EE877AFDEEE77A17EE901AE2
:103F6000284608F070FCD4ED407A1FED137AF8EE85
:103F7000E77A67EE877AF5EEC07AF1EE10FAC1F2D1
:103F80006D80B6EE007A77EE877AFDEEE77A17EE6F
:103F9000901A284608F057FCD4ED407A1FED1F7A9E
:103FA000F8EEE77A67EE877AF5EEC07AF1EE10FA6E
:103FB000C1F26980B6EE007A77EE877AFDEEE77A95
:103FC00017EE901A284608F03EFCD4ED407A1FED1B
:103FD0002A7AF8EEE77A67EE877AF5EEC07AF1EEA4
:103FE00010FAC1F26580B6EE007A77EE877AFDEEC0
:103FF000E77A17EE901A284608F025FCD4ED407AAF
:104000001FED367AF8EEE77A67EE877AF5EEC07A3A
:10401000F1EE10FAC1F26180B6EE007A77EE877A9F
:10402000FDEEE77A17EE901A284608F00CFCD4ED66
:10403000407A1FED417AF8EEE77A67EE877AF5EE7F
:10404000C07AF1EE10FAC1F25D80B6EE007A77EE3A
:10405000877AFDEEE77A17EE901A284608F0F3FB10
:10406000D4ED407A1FED4D7AF8EEE77A67EE877A65
:10407000F5EEC07AF1EE10FAC1F25980B6EE007A90
:1040800077EE877AFDEEE77A17EE901A284608F069
:10409000DAFBD4ED407A1FED587AF8EEE77A67EE56
:1040A000877AF5EEC07AF1EE10FAC1F25580B6EEDD
:1040B000007A77EE877AFDEEE77A17EE901A2846B7
:1040C00008F0C1FBD4ED407A1FED647AF8EEE77A90
:1040D00067EE877AF5EEC07AF1EE10FAC1F2518000
:1040E000B6EE007A77EE877AFDEEE77A17EE901A51
:1040F000284608F0A8FBD4ED407A1FED6F7AF8EE61
:10410000E77A67EE877AF5EEC07AF1EE10FAC1F23F
:104110004D80B6EE007A77EE877AFDEEE77A17EEFD
:10412000901A284608F08FFBD4ED407A1FED7B7A79
:10413000F8EEE77A67EE877AF5EEC07AF1EE10FADC
:10414000C1F24980B6EE007A77EE877AFDEEE77A23
:1041500017EE901A284608F076FBD4ED407A1FED52
:10416000867AF8EEE77A67EE877AF5EEC07AF1EEB6
:1041700010FAC1F24580B6EE007A77EE877AFDEE4E
:10418000E77A17EE901A284608F05DFBD4ED407AE6
:104190001FED927AF8EEE77A67EE877AF5EEC07A4D
:1041A000F1EE10FAC1F24180B6EE007A77EE877A2E
:1041B000FDEEE77A17EE901A284608F044FB201D22
:1041C0004146039006F0FAF90398494606F0F6F9DD
:1041D0000398594606F0F2F90398294606F0EEF9DD
:1041E000204607B0BDEC048BBDE8F08FBDEEE77A4A
:1041F000F8EEC76A17EE103A77EEE67AF7EE086A3D
:1042000077EEA67A591EFDEEE77A17EE903A0B4448
:104210001946FEF746BDBDEEE77AF8EEC76A17EE1F
:10422000103A77EEE67AF7EE086A77EEA67A591E2C
:10423000FDEEE77A17EE903A0B441946FEF74ABDB9
:10424000BDEEE77AF8EEC76A17EE103A77EEE67A37
:10425000F7EE086A77EEA67A591EFDEEE77A17EEBA
:10426000903A0B441946FEF74EBDBDEEE77AF8EEE4
:10427000C76A17EE103A77EEE67AF7EE086A77EE3D
:10428000A67A591EFDEEE77A17EE903A0B441946CE
:10429000FEF752BDBDEEE77AF8EEC76A17EE103AA8
:1042A00077EEE67AF7EE086A77EEA67A591EFDEE0B
:1042B000E77A17EE903A0B441946FEF756BDBDEE6D
:1042C000E77AF8EEC76A17EE103A77EEE67AF7EE7D
:1042D000086A77EEA67A591EFDEEE77A17EE903A55
:1042E0000B441946FEF75ABDBDEEE77AF8EEC76AF1
:1042F00017EE103A77EEE67AF7EE086A77EEA67ACE
:10430000591EFDEEE77A17EE903A0B441946FEF778
:104310005EBDBDEEE77AF8EEC76A17EE103A77EEAB
:10432000E67AF7EE086A77EEA67A591EFDEEE77A8E
:1043300017EE903A0B441946FEF762BDBDEEE77AE0
:10434000F8EEC76A17EE103A77EEE67AF7EE086AEB
:1043500077EEA67A591EFDEEE77A17EE903A0B44F7
:104360001946FEF7B5BDBDEEE77AF8EEC76A17EE5F
:10437000103A77EEE67AF7EE086A77EEA67A591EDB
:10438000FDEEE77A17EE903A0B441946FEF7B9BDF9
:10439000BDEEE77AF8EEC76A17EE103A77EEE67AE6
:1043A000F7EE086A77EEA67A591EFDEEE77A17EE69
:1043B000903A0B441946FEF7BDBDBDEEE77AF8EE24
:1043C000C76A17EE103A77EEE67AF7EE086A77EEEC
:1043D000A67A591EFDEEE77A17EE903A0B4419467D
:1043E000FEF7C1BDBDEEE77AF8EEC76A17EE103AE8
:1043F00077EEE67AF7EE086A77EEA67A591EFDEEBA
:10440000E77A17EE903A0B441946FEF7C5BDBDEEAC
:10441000E77AF8EEC76A17EE103A77EEE67AF7EE2B
:10442000086A77EEA67A591EFDEEE77A17EE903A03
:104430000B441946FEF7C9BDBDEEE77AF8EEC76A30
:1044400017EE103A77EEE67AF7EE086A77EEA67A7C
:10445000591EFDEEE77A17EE903A0B441946FEF727
:10446000CDBDBDEEE77AF8EEC76A17EE103A77EEEB
:10447000E67AF7EE086A77EEA67A591EFDEEE77A3D
:1044800017EE903A0B441946FEF7D1BDBDEEE77A20
:10449000F8EEC76A17EE103A77EEE67AF7EE086A9A
:1044A00077EEA67A591EFDEEE77A17EE903A0B44A6
:1044B0001946FEF7D5BDBDEEE77AF8EEC76A17EEEE
:1044C000103A77EEE67AF7EE086A77EEA67A591E8A
:1044D000FDEEE77A17EE903A0B441946FEF7D9BD88
:1044E000BDEEE77AF8EEC76A17EE103A77EEE67A95
:1044F000F7EE086A77EEA67A591EFDEEE77A17EE18
:10450000903A0B441946FEF7DDBDBDEEE77AF8EEB2
:10451000C76A17EE103A77EEE67AF7EE086A77EE9A
:10452000A67A591EFDEEE77A17EE903A0B4419462B
:10453000FEF7E1BDBDEEE77AF8EEC76A17EE103A76
:1045400077EEE67AF7EE086A77EEA67A591EFDEE68
:10455000E77A17EE903A0B441946FEF7E5BDBDEE3B
:10456000E77AF8EEC76A17EE103A77EEE67AF7EEDA
:10457000086A77EEA67A591EFDEEE77A17EE903AB2
:104580000B441946FEF7E9BDBDEEE77AF8EEC76ABF
:1045900017EE103A77EEE67AF7EE086A77EEA67A2B
:1045A000591EFDEEE77A17EE903A0B441946FEF7D6
:1045B000EDBDBDEEE77AF8EEC76A17EE103A77EE7A
:1045C000E67AF7EE086A77EEA67A591EFDEEE77AEC
:1045D00017EE903A0B441946FEF7F1BDBDEEE77AAF
:1045E000F8EEC76A17EE103A77EEE67AF7EE086A49
:1045F00077EEA67A591EFDEEE77A17EE903A0B4455
:104600001946FEF7F5BDBDEEE77AF8EEC76A17EE7C
:10461000103A77EEE67AF7EE086A77EEA67A591E38
:10462000FDEEE77A17EE903A0B441946FEF7F9BD16
:10463000BDEEE77AF8EEC76A17EE103A77EEE67A43
:10464000F7EE086A77EEA67A591EFDEEE77A17EEC6
:10465000903A0B441946FEF7FDBDBDEEE77AF8EE41
:10466000C76A17EE103A77EEE67AF7EE086A77EE49
:10467000A67A591EFDEEE77A17EE903A0B441946DA
:10468000FEF701BEBDEEE77AF8EEC76A17EE103A04
:1046900077EEE67AF7EE086A77EEA67A591EFDEE17
:1046A000E77A17EE903A0B441946FEF705BEBDEEC9
:1046B000E77AF8EEC76A17EE103A77EEE67AF7EE89
:1046C000086A77EEA67A591EFDEEE77A17EE903A61
:1046D0000B441946FEF709BEBDEEE77AF8EEC76A4D
:1046E00017EE103A77EEE67AF7EE086A77EEA67ADA
:1046F000591EFDEEE77A17EE903A0B441946FEF785
:104700000DBEBDEEE77AF8EEC76A17EE103A77EE07
:10471000E67AF7EE086A77EEA67A591EFDEEE77A9A
:1047200017EE903A0B441946FEF711BEBDEEE77A3C
:10473000F8EEC76A17EE103A77EEE67AF7EE086AF7
:1047400077EEA67A591EFDEEE77A17EE903A0B4403
:104750001946FEF715BEBDEEE77AF8EEC76A17EE0A
:10476000103A77EEE67AF7EE086A77EEA67A591EE7
:10477000FDEEE77A17EE903A0B441946FEF719BEA4
:10478000BDEEE77AF8EEC76A17EE103A77EEE67AF2
:10479000F7EE086A77EEA67A591EFDEEE77A17EE75
:1047A000903A0B441946FEF71DBEBDEEE77AF8EECF
:1047B000C76A17EE103A77EEE67AF7EE086A77EEF8
:1047C000A67A591EFDEEE77A17EE903A0B44194689
:1047D000FEF721BEBDEEE77AF8EEC76A17EE103A93
:1047E00077EEE67AF7EE086A77EEA67A591EFDEEC6
:1047F000E77A17EE903A0B441946FEF725BEBDEE58
:10480000E77AF8EEC76A17EE103A77EEE67AF7EE37
:10481000086A77EEA67A591EFDEEE77A17EE903A0F
:104820000B441946FEF729BEBDEEE77AF8EEC76ADB
:1048300017EE103A77EEE67AF7EE086A77EEA67A88
:10484000591EFDEEE77A17EE903A0B441946FEF733
:104850002DBEBDEEE77AF8EEC76A17EE103A77EE96
:10486000E67AF7EE086A77EEA67A591EFDEEE77A49
:1048700017EE903A0B441946FEF731BEBDEEE77ACB
:10488000F8EEC76A17EE103A77EEE67AF7EE086AA6
:1048900077EEA67A591EFDEEE77A17EE903A0B44B2
:1048A0001946FEF735BEBDEEE77AF8EEC76A17EE99
:1048B000103A77EEE67AF7EE086A77EEA67A591E96
:1048C000FDEEE77A17EE903A0B441946FEF739BE33
:1048D000BDEEE77AF8EEC76A17EE103A77EEE67AA1
:1048E000F7EE086A77EEA67A591EFDEEE77A17EE24
:1048F000903A0B441946FEF73DBEBDEEE77AF8EE5E
:10490000C76A17EE103A77EEE67AF7EE086A77EEA6
:10491000A67A591EFDEEE77A17EE903A0B44194637
:10492000FEF741BEBDEEE77AF8EEC76A17EE103A21
:1049300077EEE67AF7EE086A77EEA67A591EFDEE74
:10494000E77A17EE903A0B441946FEF745BEBDEEE6
:10495000E77AF8EEC76A17EE103A77EEE67AF7EEE6
:10496000086A77EEA67A591EFDEEE77A17EE903ABE
:104970000B441946FEF749BEBDEEE77AF8EEC76A6A
:1049800017EE103A77EEE67AF7EE086A77EEA67A37
:10499000591EFDEEE77A17EE903A0B441946FEF7E2
:1049A0004DBEBDEEE77AF8EEC76A17EE103A77EE25
:1049B000E67AF7EE086A77EEA67A591EFDEEE77AF8
:1049C00017EE903A0B441946FEF751BEBDEEE77A5A
:1049D000F8EEC76A17EE103A77EEE67AF7EE086A55
:1049E00077EEA67A591EFDEEE77A17EE903A0B4461
:1049F0001946FEF7A5BEBDEEE77AF8EEC76A17EED8
:104A0000103A77EEE67AF7EE086A77EEA67A591E44
:104A1000FDEEE77A17EE903A0B441946FEF7A9BE71
:104A2000BDEEE77AF8EEC76A17EE103A77EEE67A4F
:104A3000F7EE086A77EEA67A591EFDEEE77A17EED2
:104A4000903A0B441946FEF7ADBEBDEEE77AF8EE9C
:104A5000C76A17EE103A77EEE67AF7EE086A77EE55
:104A6000A67A591EFDEEE77A17EE903A0B441946E6
:104A7000FEF7B1BEBDEEE77AF8EEC76A17EE103A60
:104A800077EEE67AF7EE086A77EEA67A591EFDEE23
:104A9000E77A17EE903A0B441946FEF7B5BEBDEE25
:104AA000E77AF8EEC76A17EE103A77EEE67AF7EE95
:104AB000086A77EEA67A591EFDEEE77A17EE903A6D
:104AC0000B441946FEF7B9BEBDEEE77AF8EEC76AA9
:104AD00017EE103A77EEE67AF7EE086A77EEA67AE6
:104AE000591EFDEEE77A17EE903A0B441946FEF791
:104AF000BDBEBDEEE77AF8EEC76A17EE103A77EE64
:104B0000E67AF7EE086A77EEA67A591EFDEEE77AA6
:104B100017EE903A0B441946FEF7C1BEBDEEE77A98
:104B2000F8EEC76A17EE103A77EEE67AF7EE086A03
:104B300077EEA67A591EFDEEE77A17EE903A0B440F
:104B40001946FEF7C5BEBDEEE77AF8EEC76A17EE66
:104B5000103A77EEE67AF7EE086A77EEA67A591EF3
:104B6000FDEEE77A17EE903A0B441946FEF7C9BE00
:104B7000BDEEE77AF8EEC76A17EE103A77EEE67AFE
:104B8000F7EE086A77EEA67A591EFDEEE77A17EE81
:104B9000903A0B441946FEF7CDBEBDEEE77AF8EE2B
:104BA000C76A17EE103A77EEE67AF7EE086A77EE04
:104BB000A67A591EFDEEE77A17EE903A0B44194695
:104BC000FEF7D1BEBDEEE77AF8EEC76A17EE103AEF
:104BD00077EEE67AF7EE086A77EEA67A591EFDEED2
:104BE000E77A17EE903A0B441946FEF7D5BEBDEEB4
:104BF000E77AF8EEC76A17EE103A77EEE67AF7EE44
:104C0000086A77EEA67A591EFDEEE77A17EE903A1B
:104C10000B441946FEF7D9BEBDEEE77AF8EEC76A37
:104C200017EE103A77EEE67AF7EE086A77EEA67A94
:104C3000591EFDEEE77A17EE903A0B441946FEF73F
:104C4000DDBEBDEEE77AF8EEC76A17EE103A77EEF2
:104C5000E67AF7EE086A77EEA67A591EFDEEE77A55
:104C600017EE903A0B441946FEF7E1BEBDEEE77A27
:104C7000F8EEC76A17EE103A77EEE67AF7EE086AB2
:104C800077EEA67A591EFDEEE77A17EE903A0B44BE
:104C90001946FEF7E5BEBDEEE77AF8EEC76A17EEF5
:104CA000103A77EEE67AF7EE086A77EEA67A591EA2
:104CB000FDEEE77A17EE903A0B441946FEF7E9BE8F
:104CC000BDEEE77AF8EEC76A17EE103A77EEE67AAD
:104CD000F7EE086A77EEA67A591EFDEEE77A17EE30
:104CE000903A0B441946FEF7EDBEBDEEE77AF8EEBA
:104CF000C76A17EE103A77EEE67AF7EE086A77EEB3
:104D0000A67A591EFDEEE77A17EE903A0B44194643
:104D1000FEF7F1BEBDEEE77AF8EEC76A17EE103A7D
:104D200077EEE67AF7EE086A77EEA67A591EFDEE80
:104D3000E77A17EE903A0B441946FEF7F5BEBDEE42
:104D4000E77AF8EEC76A17EE103A77EEE67AF7EEF2
:104D5000086A77EEA67A591EFDEEE77A17EE903ACA
:104D60000B441946FEF7F9BEBDEEE77AF8EEC76AC6
:104D700017EE103A77EEE67AF7EE086A77EEA67A43
:104D8000591EFDEEE77A17EE903A0B441946FEF7EE
:104D9000FDBEBDEEE77AF8EEC76A17EE103A77EE81
:104DA000E67AF7EE086A77EEA67A591EFDEEE77A04
:104DB00017EE903A0B441946FEF701BFBDEEE77AB5
:104DC000F8EEC76A17EE103A77EEE67AF7EE086A61
:104DD00077EEA67A591EFDEEE77A17EE903A0B446D
:104DE0001946FEF705BFBDEEE77AF8EEC76A17EE83
:104DF000103A77EEE67AF7EE086A77EEA67A591E51
:104E0000FDEEE77A17EE903A0B441946FEF709BF1C
:104E1000BDEEE77AF8EEC76A17EE103A77EEE67A5B
:104E2000F7EE086A77EEA67A591EFDEEE77A17EEDE
:104E3000903A0B441946FEF70DBFBDEEE77AF8EE47
:104E4000C76A17EE103A77EEE67AF7EE086A77EE61
:104E5000A67A591EFDEEE77A17EE903A0B441946F2
:104E6000FEF711BFBDEEE77AF8EEC76A17EE103A0B
:104E700077EEE67AF7EE086A77EEA67A591EFDEE2F
:104E8000E77A17EE903A0B441946FEF715BFBDEED0
:104E9000E77AF8EEC76A17EE103A77EEE67AF7EEA1
:104EA000086A77EEA67A591EFDEEE77A17EE903A79
:104EB0000B441946FEF719BFBDEEE77AF8EEC76A54
:104EC00017EE103A77EEE67AF7EE086A77EEA67AF2
:104ED000591EFDEEE77A17EE903A0B441946FEF79D
:104EE0001DBFBDEEE77AF8EEC76A17EE103A77EE0F
:104EF000E67AF7EE086A77EEA67A591EFDEEE77AB3
:104F000017EE903A0B441946FEF721BFBDEEE77A43
:104F1000F8EEC76A17EE103A77EEE67AF7EE086A0F
:104F200077EEA67A591EFDEEE77A17EE903A0B441B
:104F30001946FEF725BFBDEEE77AF8EEC76A17EE11
:104F4000103A77EEE67AF7EE086A77EEA67A591EFF
:104F5000FDEEE77A17EE903A0B441946FEF729BFAB
:104F6000BDEEE77AF8EEC76A17EE103A77EEE67A0A
:104F7000F7EE086A77EEA67A591EFDEEE77A17EE8D
:104F8000903A0B441946FEF72DBFBDEEE77AF8EED6
:104F9000C76A17EE103A77EEE67AF7EE086A77EE10
:104FA000A67A591EFDEEE77A17EE903A0B441946A1
:104FB000FEF731BFBDEEE77AF8EEC76A17EE103A9A
:104FC00077EEE67AF7EE086A77EEA67A591EFDEEDE
:104FD000E77A17EE903A0B441946FEF735BFBDEE5F
:104FE000E77AF8EEC76A17EE103A77EEE67AF7EE50
:104FF000086A77EEA67A591EFDEEE77A17EE903A28
:105000000B441946FEF739BFBDEEE77AF8EEC76AE2
:1050100017EE103A77EEE67AF7EE086A77EEA67AA0
:10502000591EFDEEE77A17EE903A0B441946FEF74B
:105030003DBFBDEEE77AF8EEC76A17EE103A77EE9D
:10504000E67AF7EE086A77EEA67A591EFDEEE77A61
:1050500017EE903A0B441946FEF782BFBDEEE77A91
:10506000F8EEC76A17EE103A77EEE67AF7EE086ABE
:1050700077EEA67A591EFDEEE77A17EE903A0B44CA
:105080001946FEF786BFBDEEE77AF8EEC76A17EE5F
:10509000103A77EEE67AF7EE086A77EEA67A591EAE
:1050A000FDEEE77A17EE903A0B441946FEF78ABFF9
:1050B000BDEEE77AF8EEC76A17EE103A77EEE67AB9
:1050C000F7EE086A77EEA67A591EFDEEE77A17EE3C
:1050D000903A0B441946FEF78EBFBDEEE77AF8EE24
:1050E000C76A17EE103A77EEE67AF7EE086A77EEBF
:1050F000A67A591EFDEEE77A17EE903A0B44194650
:10510000FEF792BFBDEEE77AF8EEC76A17EE103AE7
:1051100077EEE67AF7EE086A77EEA67A591EFDEE8C
:10512000E77A17EE903A0B441946FEF796BFBDEEAC
:10513000E77AF8EEC76A17EE103A77EEE67AF7EEFE
:10514000086A77EEA67A591EFDEEE77A17EE903AD6
:105150000B441946FEF79ABFBDEEE77AF8EEC76A30
:1051600017EE103A77EEE67AF7EE086A77EEA67A4F
:10517000591EFDEEE77A17EE903A0B441946FEF7FA
:105180009EBFBDEEE77AF8EEC76A17EE103A77EEEB
:10519000E67AF7EE086A77EEA67A591EFDEEE77A10
:1051A00017EE903A0B441946FEF7A2BFBDEEE77A20
:1051B000F8EEC76A17EE103A77EEE67AF7EE086A6D
:1051C00077EEA67A591EFDEEE77A17EE903A0B4479
:1051D0001946FEF7A6BFBDEEE77AF8EEC76A17EEEE
:1051E000103A77EEE67AF7EE086A77EEA67A591E5D
:1051F000FDEEE77A17EE903A0B441946FEF7AABF88
:10520000BDEEE77AF8EEC76A17EE103A77EEE67A67
:10521000F7EE086A77EEA67A591EFDEEE77A17EEEA
:10522000903A0B441946FEF7AEBFBDEEE77AF8EEB2
:10523000C76A17EE103A77EEE67AF7EE086A77EE6D
:10524000A67A591EFDEEE77A17EE903A0B441946FE
:10525000FEF7B2BF7047000030B5164D2C78BFF393
:105260005B8F14F001048DB020D128461AF037FF6F
:10527000E0B13F230793104B0693104B10491148A0
:105280000894CDE9044301220423CDE9013202232D
:1052900000930F220A23CDE909440394FCF720FF71
:1052A00009481BF0C5FC28461AF025FF05480DB03B
:1052B00030BD00BF602B0020C8660208D46602081B
:1052C000D4650208642B0020555200087047000086
:1052D00030B5154D2C78BFF35B8F14F001048DB001
:1052E0001ED128461AF0FBFED0B13F2307930F4B87
:1052F00006930F4B0F49104808940122CDE904434F
:105300000423CDE90132CDE9094414230394009428
:10531000FCF7E6FE09481BF08BFC28461AF0EBFE72
:1053200005480DB030BD00BF8C2B0020CC660208B4
:10533000D8660208A8660208902B0020CD5200080B
:105340007047000030B5154D2C78BFF35B8F14F01B
:1053500001048DB01ED128461AF0C1FED0B13F2302
:1053600007930F4B06930F4B0F49104808940122E7
:10537000CDE904430423CDE90132CDE909442823D2
:1053800003940094FCF7ACFE09481BF051FC28463E
:105390001AF0B1FE05480DB030BD00BFB82B00209B
:1053A000D0660208DC660208B8660208BC2B002042
:1053B0004153000800207047002070470EB403B529
:1053C00003AB002153F8042B01930AF003FF02B052
:1053D0005DF804EB03B070470CB407B504AB53F8A9
:1053E000042B01930AF0F6FE03B05DF804EB02B063
:1053F00070470000436C10B5044673B3038F2BB99C
:10540000184B194AC02119481BF0F4FBC38E00EB5E
:1054100043035B8C0BB30CF08BFA238F012B03D867
:10542000134B144AC521EEE7E28E531C9BB2092BA5
:10543000194688BFA3F10A0104EB410140F63F1071
:10544000498C814209D10A2B04EB420228BF002378
:1054500004EB4303508C588451842046BDE810402F
:105460000CF04AB9C02B0208C92B0208742C0208A0
:10547000BE2C0208CC2C02080CF0F6B810B586B091
:1054800002AC84E806001A460AAB05930193099B17
:1054900000932146089B09F0BAFB06B010BD00003E
:1054A00038B518BB124B13481B681349B3B11A68BF
:1054B0009C681A4402605A681A440A601C440F4BE4
:1054C00000221A8000F038F8054600F033F80C4B43
:1054D0001C600C4B1D600C4B188007E00B4B0360ED
:1054E0000B4B0B600B4B1C68002CE8D138BD00BF88
:1054F000E42B0020E82B0020EC2B0020F02B0020D8
:10550000D0390120D8390120D4390120E8660208B9
:10551000E0660208F0660208044B1B6853F821009D
:10552000034B1B6803EB4000704700BFEC2B0020CF
:10553000E82B00200220704700487047F42B002021
:1055400010B5FFF7C5FE044C2060FFF7FBFE60605E
:10555000FFF782FEA06010BDF42B0020704710B54D
:105560004FF4AC7104461AF0B8FD204610BD10B5DA
:105570000446D0F8540100F012F82046BDE810406F
:1055800009F0A4BE10B50446FCF738FD014B2360BA
:10559000204610BDA82D0208002202607047704707
:1055A000704704387047704710B5102104461AF050
:1055B00094FD204610BDA0F10400F5E710B50022CF
:1055C0008260044AC16002F1080420320460426033
:1055D00010BD00BFEC2D020870477047FDF714B9ED
:1055E00038B500F580522DED028BD2F85C370133CF
:1055F000C2F85C37DA0704464ED407EE903A9FEDC6
:10560000280AF8EE677A00F1CC0527EE800A1AF036
:105610008DFDB0EE408A1BF04FFF142390FBF3F298
:1056200002FB130307EE903AF7EE086A38EE260AFB
:10563000F8EEE77AB3EE0E6AE0EE067AB0EE677A3D
:10564000D4ED407AF8EEE77A67EE877AF5EEC07A25
:10565000F1EE10FA0EDBB6EE007A77EE877AFDEE09
:10566000E77A17EE901ABDEC028B2846BDE8384069
:1056700007F0E9B8BDEEE77AB8EEC76A17EE103A60
:1056800077EEC67A591E77EEA67AFDEEE77A17EE28
:10569000903A0B441946E6E7BDEC028B38BD00BFDB
:1056A000295C8F3D10B54FF4BB5104461AF015FD2F
:1056B000204610BD10B50446FDF7D4F9044B236015
:1056C00004F580530022C3F85C27204610BD00BFBC
:1056D0001C2E0208F02070474FF4A070704729205C
:1056E000FBF7F8BF2820FBF7F5BF08B5FBF7C6FFAF
:1056F000CA20FBF7EFFFC320FBF7D0FF0820FBF722
:10570000CDFF5020FBF7CAFFCF20FBF7E3FF0020BF
:10571000FBF7C4FFC120FBF7C1FF3020FBF7BEFF42
:10572000ED20FBF7D7FF6420FBF7B8FF0320FBF762
:10573000B5FF1220FBF7B2FF8120FBF7AFFFE82097
:10574000FBF7C8FF8520FBF7A9FF0020FBF7A6FFAA
:105750007820FBF7A3FFCB20FBF7BCFF3920FBF73A
:105760009DFF2C20FBF79AFF0020FBF797FF3420CA
:10577000FBF794FF0220FBF791FFF720FBF7AAFF4E
:105780002020FBF78BFFEA20FBF7A4FF0020FBF7AC
:1057900085FF0020FBF782FFB120FBF79BFF002075
:1057A000FBF77CFF1B20FBF779FFB620FBF792FF8E
:1057B0000A20FBF773FFA220FBF770FFC020FBF766
:1057C00089FF1020FBF76AFFC120FBF783FF102041
:1057D000FBF764FFC520FBF77DFF4520FBF75EFF6D
:1057E0001520FBF75BFFC720FBF774FF9020FBF74A
:1057F00055FF3620FBF76EFFC820FBF74FFFF22066
:10580000FBF768FF0020FBF749FFB020FBF762FFC2
:10581000C220FBF743FFB620FBF75CFF0A20FBF733
:105820003DFFA720FBF73AFF2720FBF737FF0420B7
:10583000FBF734FF2A20FBF74DFF0020FBF72EFF7C
:105840000020FBF72BFF0020FBF728FFEF20FBF7E2
:1058500025FF2B20FBF73EFF0020FBF71FFF00205A
:10586000FBF71CFF0120FBF719FF3F20FBF716FF9A
:10587000F620FBF72FFF0120FBF710FF0020FBF7BE
:105880000DFF0620FBF70AFF2C20FBF723FFC820A3
:10589000FBF76EFF2620FBF71DFF0120FBF7FEFE46
:1058A000E020FBF717FF0F20FBF7F8FE2920FBF79E
:1058B000F5FE2420FBF7F2FE0C20FBF7EFFE0E2096
:1058C000FBF7ECFE0920FBF7E9FE4E20FBF7E6FEB6
:1058D0007820FBF7E3FE3C20FBF7E0FE0920FBF716
:1058E000DDFE1320FBF7DAFE0520FBF7D7FE1720BD
:1058F000FBF7D4FE1120FBF7D1FE0020FBF7CEFE14
:10590000E120FBF7E7FE0020FBF7C8FE1620FBF7BF
:10591000C5FE1B20FBF7C2FE0420FBF7BFFE1120D3
:10592000FBF7BCFE0720FBF7B9FE3120FBF7B6FE04
:105930003320FBF7B3FE4220FBF7B0FE0520FBF758
:10594000ADFE0C20FBF7AAFE0A20FBF7A7FE2820DD
:10595000FBF7A4FE2F20FBF7A1FE0F20FBF79EFE16
:105960001120FBF7B7FEC820FBF702FF2920FBF749
:10597000B1FEBDE808402C20FBF7ACBE08B5FBF734
:105980007DFE0321D320FBF7C1FE80B208BD10B518
:10599000C4B2022203212046FBF726FE0A20FBF7B1
:1059A0006BFE204600220321FBF71EFEBDE81040DF
:1059B0000220FBF761BE38B50446E4B2FBF712FEE5
:1059C00000212046FBF728FE012105462046FBF773
:1059D00023FE40EA052080B238BD10B5C4B2402194
:1059E0002046FBF719FE030607D54C212046FBF79E
:1059F00013FE003818BF012010BD01224B212046A4
:105A0000FBF7F2FD204600224B21FBF7EDFD0020C5
:105A1000F2E773B50423C4B20E461546D7210DEB49
:105A200003022046FBF712FE019B1BBA1A0DC3F3BB
:105A30000B23328020462B8001224B21FBF7D4FD23
:105A400000224B212046FBF7CFFD02B070BD0000C5
:105A500010B50A4B1A78904204460DD05978884206
:105A60000AD00AB141B901229C54FBF7BBFD204684
:105A7000BDE81040FFF78BBF10BD00BF002C002019
:105A800010B5C4B209212046FBF7C6FD40F0010065
:105A9000C2B209212046BDE81040FBF7A5BD10B5F4
:105AA000C4B209212046FBF7B7FD092100F0FE0230
:105AB0002046BDE81040FBF797BD38B5C4B20D468F
:105AC00020460A21FBF7A8FD2843C2B20A2120463E
:105AD000BDE83840FBF788BD07B50190FBF783FDB3
