:020000040800F2
:1000000000000320199400084342000845420008FC
:1000100047420008494200084B4200080000000027
:10002000000000000000000000000000218C00081B
:100030004D42000800000000B18C0008D585000882
:10004000699400086994000869940008699400089C
:10005000699400086994000869940008699400088C
:10006000699400086994000869940008699400087C
:10007000699400086994000869940008699400086C
:10008000699400086994000869940008699400085C
:10009000699400086994000869940008699400084C
:1000A000699400086994000869940008699400083C
:1000B000699400086994000869940008699400082C
:1000C000699400086994000869940008699400081C
:1000D000699400086994000869940008699400080C
:1000E00069940008699400086994000869940008FC
:1000F00069940008699400086994000869940008EC
:1001000069940008699400086994000869940008DB
:100110006994000869940008514200086994000835
:1001200069940008699400086994000869940008BB
:1001300069940008699400086994000869940008AB
:10014000699400086994000869940008699400089B
:10015000699400086994000869940008699400088B
:10016000699400086994000869940008699400087B
:100170006994000869940008699400080000000070
:10018000699400086994000869940008699400085B
:10019000699400086994000869940008699400084B
:0C01A0005D4200086994000869420008F4
:1001B00010B5054C237833B9044B13B10448AFF3A1
:1001C00000800123237010BD6001002000000000AA
:1001D0008C0A020808B5034B1BB103490348AFF36F
:1001E000008008BD00000000640100208C0A0208A5
:1001F00081F0004102E000BF83F0004330B54FEAD8
:1002000041044FEA430594EA050F08BF90EA020F44
:100210001FBF54EA000C55EA020C7FEA645C7FEAD7
:10022000655C00F0E2804FEA5454D4EB5555B8BFFA
:100230006D420CDD2C4480EA020281EA030382EA6B
:10024000000083EA010180EA020281EA0303362DFD
:1002500088BF30BD11F0004F4FEA01314FF4801CD0
:100260004CEA113102D0404261EB410113F0004FE2
:100270004FEA03334CEA133302D0524263EB430399
:1002800094EA050F00F0A780A4F10104D5F1200E37
:100290000DDB02FA0EFC22FA05F2801841F1000192
:1002A00003FA0EF2801843FA05F359410EE0A5F166
:1002B00020050EF1200E012A03FA0EFC28BF4CF097
:1002C000020C43FA05F3C01851EBE37101F000454D
:1002D00007D54FF0000EDCF1000C7EEB00006EEB5A
:1002E0000101B1F5801F1BD3B1F5001F0CD34908E4
:1002F0005FEA30004FEA3C0C04F101044FEA44523B
:1003000012F5800F80F09A80BCF1004F08BF5FEAC1
:10031000500C50F1000041EB045141EA050130BDA1
:100320005FEA4C0C404141EB010111F4801FA4F144
:100330000104E9D191F0000F04BF01460020B1FA99
:1003400081F308BF2033A3F10B03B3F120020CDAD1
:100350000C3208DD02F1140CC2F10C0201FA0CF0AF
:1003600021FA02F10CE002F11402D8BFC2F1200C14
:1003700001FA02F120FA0CFCDCBF41EA0C019040CA
:10038000E41AA2BF01EB0451294330BD6FEA040413
:100390001F3C1CDA0C340EDC04F11404C4F12002FE
:1003A00020FA04F001FA02F340EA030021FA04F310
:1003B00045EA030130BDC4F10C04C4F1200220FA67
:1003C00002F001FA04F340EA0300294630BD21FAA5
:1003D00004F0294630BD94F0000F83F4801306BF6B
:1003E00081F480110134013D4EE77FEA645C18BF5F
:1003F0007FEA655C29D094EA050F08BF90EA020FF6
:1004000005D054EA000C04BF1946104630BD91EAED
:10041000030F1EBF0021002030BD5FEA545C05D1F0
:100420004000494128BF41F0004130BD14F580042F
:100430003CBF01F5801130BD01F0004545F0FE41A3
:1004400041F470014FF0000030BD7FEA645C1ABFD8
:10045000194610467FEA655C1CBF0B46024650EA0F
:10046000013406BF52EA033591EA030F41F400213B
:1004700030BD00BF90F0000F04BF0021704730B5C1
:100480004FF4806404F132044FF000054FF0000196
:1004900050E700BF90F0000F04BF0021704730B557
:1004A0004FF4806404F1320410F0004548BF40422C
:1004B0004FF000013EE700BF42004FEAE2014FEA81
:1004C00031014FEA02701FBF12F07F4393F07F4F5C
:1004D00081F06051704732F07F4208BF704793F05F
:1004E0007F4F04BF41F40021704730B54FF4607472
:1004F00001F0004521F000411CE700BF50EA010275
:1005000008BF704730B54FF000050AE050EA01021D
:1005100008BF704730B511F0004502D5404261EB8D
:1005200041014FF4806404F132045FEA915C3FF4CE
:10053000D8AE4FF003025FEADC0C18BF03325FEA6B
:10054000DC0C18BF033202EBDC02C2F1200300FA1C
:1005500003FC20FA02F001FA03FE40EA0E0021FA41
:1005600002F11444BDE600BF70B54FF0FF0C4CF42F
:10057000E06C1CEA11541DBF1CEA135594EA0C0FE1
:1005800095EA0C0F00F0DEF82C4481EA030621EA1C
:100590004C5123EA4C5350EA013518BF52EA033557
:1005A00041F4801143F4801338D0A0FB02CE4FF009
:1005B0000005E1FB02E506F00042E0FB03E54FF039
:1005C0000006E1FB03569CF0000F18BF4EF0010E31
:1005D000A4F1FF04B6F5007F64F5407404D25FEA2D
:1005E0004E0E6D4146EB060642EAC62141EA5551E0
:1005F0004FEAC52040EA5E504FEACE2EB4F1FD0C22
:1006000088BFBCF5E06F1ED8BEF1004F08BF5FEA9F
:10061000500E50F1000041EB045170BD06F0004651
:1006200046EA010140EA020081EA0301B4EB5C04FE
:10063000C2BFD4EB0C0541EA045170BD41F48011F6
:100640004FF0000E013C00F3AB8014F1360FDEBF1B
:10065000002001F0004170BDC4F10004203C35DAF7
:100660000C341BDC04F11404C4F1200500FA05F37A
:1006700020FA04F001FA05F240EA020001F000421B
:1006800021F0004110EBD37021FA04F642EB060191
:100690005EEA430E08BF20EAD37070BDC4F10C04BB
:1006A000C4F1200500FA04F320FA05F001FA04F27F
:1006B00040EA020001F0004110EBD37041F100016B
:1006C0005EEA430E08BF20EAD37070BDC4F1200576
:1006D00000FA05F24EEA020E20FA04F301FA05F2DE
:1006E00043EA020321FA04F001F0004121FA04F286
:1006F00020EA020000EBD3705EEA430E08BF20EA56
:10070000D37070BD94F0000F0FD101F0004640008F
:1007100041EB010111F4801F08BF013CF7D041EA11
:10072000060195F0000F18BF704703F00046520015
:1007300043EB030313F4801F08BF013DF7D043EAE6
:100740000603704794EA0C0F0CEA135518BF95EA9C
:100750000C0F0CD050EA410618BF52EA4306D1D123
:1007600081EA030101F000414FF0000070BD50EA42
:10077000410606BF1046194652EA430619D094EACC
:100780000C0F02D150EA013613D195EA0C0F05D1B6
:1007900052EA03361CBF104619460AD181EA03010A
:1007A00001F0004141F0FE4141F470014FF00000C2
:1007B00070BD41F0FE4141F4780170BD70B54FF05D
:1007C000FF0C4CF4E06C1CEA11541DBF1CEA1355DD
:1007D00094EA0C0F95EA0C0F00F0A7F8A4EB0504BF
:1007E00081EA030E52EA03354FEA013100F08880B6
:1007F0004FEA03334FF0805545EA131343EA12637F
:100800004FEA022245EA111545EA10654FEA002633
:100810000EF000419D4208BF964244F1FD0404F5EC
:10082000407402D25B084FEA3202B61A65EB030548
:100830005B084FEA32024FF480104FF4002CB6EB05
:10084000020E75EB030E22BFB61A754640EA0C0085
:100850005B084FEA3202B6EB020E75EB030E22BFC5
:10086000B61A754640EA5C005B084FEA3202B6EB06
:10087000020E75EB030E22BFB61A754640EA9C00C5
:100880005B084FEA3202B6EB020E75EB030E22BF95
:10089000B61A754640EADC0055EA060E18D04FEA53
:1008A000051545EA16754FEA06164FEAC30343EAF3
:1008B00052734FEAC2025FEA1C1CC0D111F4801FC0
:1008C0000BD141EA00014FF000004FF0004CB6E7B9
:1008D00011F4801F04BF01430020B4F1FD0C88BF58
:1008E000BCF5E06F3FF6AFAEB5EB030C04BFB6EB63
:1008F000020C5FEA500C50F1000041EB045170BD56
:100900000EF0004E4EEA113114EB5C04C2BFD4EB82
:100910000C0541EA045170BD41F480114FF0000E06
:10092000013C90E645EA060E8DE60CEA135594EA82
:100930000C0F08BF95EA0C0F3FF43BAF94EA0C0F85
:100940000AD150EA01347FF434AF95EA0C0F7FF4FA
:1009500025AF104619462CE795EA0C0F06D152EA4E
:1009600003353FF4FDAE1046194622E750EA410632
:1009700018BF52EA43067FF4C5AE50EA41047FF443
:100980000DAF52EA43057FF4EBAE12E74FEA4102A6
:10099000B2F1E04324BFB3F5001CDCF1FE5C0DD9DD
:1009A00001F0004C4FEAC0024CEA5070B2F1004F27
:1009B00040EB830008BF20F00100704711F0804F2A
:1009C00021D113F13872BCBF01F00040704741F4EF
:1009D00080114FEA5252C2F11802C2F1200C10FAF3
:1009E0000CF320FA02F018BF40F001004FEAC123D7
:1009F0004FEAD32303FA0CFC40EA0C0023FA02F37B
:100A00004FEA4303CCE77FEA625307D150EA013350
:100A10001EBF4FF0FE4040F44000704701F0004020
:100A200040F0FE4040F40000704700BF53B94AB99F
:100A3000002908BF00281CBF4FF0FF314FF0FF30E6
:100A400000F072B9ADF1080C6DE904CE00F006F8C3
:100A5000DDF804E0DDE9022304B070472DE9F0473A
:100A6000089E04468846002B4BD18A42154667D91A
:100A7000B2FA82F24AB1C2F1200701FA02F320FA77
:100A800007F7954047EA030894404FEA154E230CB8
:100A9000B8FBFEF71FFA85FC0EFB178843EA0843F4
:100AA00007FB0CF1994209D9EB1807F1FF3080F0F0
:100AB0001B81994240F21881023F2B445B1AA4B279
:100AC000B3FBFEF00EFB103344EA034400FB0CFCC6
:100AD000A44509D92C1900F1FF3380F00781A44502
:100AE00040F2048102382C4440EA0740A4EB0C0495
:100AF00000271EB1D4400023C6E900433946BDE8B3
:100B0000F0878B4209D9002E00F0EB800027C6E960
:100B1000000138463946BDE8F087B3FA83F7002F65
:100B200047D18B4202D3824200F2FA80841A61EBF1
:100B3000030301209846002EE0D0C6E90048DDE717
:100B400002B9FFDEB2FA82F2002A40F08F80491B20
:100B50004FEA154E1FFA85F80127B1FBFEFC230C66
:100B60000EFB1C1143EA014308FB0CF1994207D923
:100B7000EB180CF1FF3002D2994200F2CD8084468E
:100B8000591AA3B2B1FBFEF00EFB101443EA044461
:100B900008FB00F8A04507D92C1900F1FF3302D259
:100BA000A04500F2B6801846A4EB080440EA0C40C9
:100BB0009FE7C7F1200CBB4022FA0CFE4EEA030E61
:100BC00001FA07F420FA0CF521FA0CF34FEA1E485B
:100BD0002543B3FBF8F92C0C08FB19331FFA8EFAE6
:100BE00044EA034309FB0AF49C4202FA07F200FAC2
:100BF00007F10BD91EEB030309F1FF3080F087806A
:100C00009C4240F28480A9F1020973441B1BADB2DF
:100C1000B3FBF8F008FB103345EA034400FB0AFA83
:100C2000A24508D91EEB040400F1FF336BD2A245A4
:100C300069D90238744440EA0940A0FB0289A4EB58
:100C40000A044C45C2464B4654D351D0002E69D0BD
:100C5000B1EB0A0564EB030404FA0CFCFD40FC4014
:100C60004CEA0505C6E90054002747E7C2F1200316
:100C700020FA03F7954001FA02F021FA03F34FEA54
:100C8000154E3843010CB3FBFEF71FFA85F80EFB37
:100C9000173341EA034107FB08F38B4204FA02F4DD
:100CA00007D9691807F1FF3C2FD28B422DD9023F9B
:100CB0002944CB1A81B2B3FBFEF00EFB103341EA9C
:100CC000034100FB08F38B4207D9691800F1FF3C90
:100CD00017D28B4215D902382944C91A40EA07476E
:100CE0003BE73746304609E70746E7E61846FBE6A6
:100CF0004145ABD2B8EB020A69EB0E02013813464C
:100D0000A4E76046E9E7184695E76746D1E78146DC
:100D10007CE702382C4447E7ACF1020C2B442FE768
:100D2000384608E73746E9E6704700BF0000000094
:100D300001F0FF01102A2BDB10F0070F08D010F88C
:100D4000013B013A8B422DD010F0070F42B3F6D190
:100D5000F0B441EA012141EA014122F007047FF0A9
:100D600000070023F0E80256083C85EA010586EA00
:100D7000010685FA47F5A3FA87F586FA47F6A5FA3C
:100D800087F68EB9EED1F0BC01F0FF0102F0070248
:100D900032B110F8013B013A83EA010313B1F8D1F3
:100DA0000020704701387047002D06BF35460338D4
:100DB000073815F0010F07D1013015F4807F02BF0D
:100DC000013015F4C03F0130F0BC0138704700BF5E
:100DD000704704387047704710B5102104461EF064
:100DE00055FE204610BDA0F10400F5E710B5002225
:100DF0008260044AC16002F108042032046042604B
:100E000010BD00BFE40A0208704770477047704782
:100E100000F0F0BC10B541F6B45104461EF036FEA9
:100E2000204610BD70B541F6B052054683580133D7
:100E30008350DB0754D4494C2378002B50D0D5ED98
:100E4000407A474EF8EEE77A96ED007A67EE877AB9
:100E5000CC30F5EEC07AF1EE10FA42DBB6EE007A55
:100E600077EE877AFDEEE77A17EE901A0AF061FDC9
:100E7000D5F8CC3496ED017A07EE903AF8EEE77AA1
:100E800005F5936067EE877AF5EEC07AF1EE10FA19
:100E90003BDBB6EE007A77EE877AFDEEE77A17EE67
:100EA000901A0AF046FDD5F8F83796ED027A07EE6B
:100EB000903AF8EEE77A05F2C47067EE877AF5EEBD
:100EC000C07AF1EE10FA34DBB6EE007A77EE877A6C
:100ED000FDEEE77A17EE901A0AF02BFD002323703F
:100EE00070BDBDEEE77AF8EEC76A17EE103A77EEFE
:100EF000E67AF7EE086A77EEA67A591EFDEEE77AF3
:100F000017EE903A0B441946B0E7BDEEE77AF8EEDB
:100F1000C76A17EE103A77EEE67AF7EE086A77EED0
:100F2000A67A591EFDEEE77A17EE903A0B44194661
:100F3000B7E7BDEEE77AF8EEC76A17EE103A77EE3C
:100F4000E67AF7EE086A77EEA67A591EFDEEE77AA2
:100F500017EE903A0B441946BEE700BF443000201C
:100F6000D040012010B5044600F0ECFD034B236097
:100F700041F6B0530022E250204610BD140B020887
:100F80000022026070477047704700F5967308684A
:100F9000496803C37047704701F034B910B54FF486
:100FA000AC7104461EF072FD204610BD10B504461B
:100FB000D0F85401FFF7E7FF2046BDE810400DF0E0
:100FC00045BE10B50446D0F83C0158B10368DB6853
:100FD000984738B1D4F83C0103689B6898470023D0
:100FE000C4F83C3110BD000010B5044601F0D2F841
:100FF000014B2360204610BD4C0B020890F82520C1
:1010000012B103685B691847704700207047818000
:101010007047C180704701817047418170477047B8
:101020007047704770477047C38810B4D21A8388DE
:101030005DF8044BC91A036812B25B6D09B2184718
:101040004FF6FF7383814FF0FF3303621368C36170
:1010500010607047806A704770477047704790F81B
:1010600025201AB190F8242002B11860704780F84A
:101070002C10704710B40468036BD4F8A4405A4392
:10108000594323465DF8044B1847D0ED0C7A0368AA
:10109000F8EEE77AD3F8A43020EE270AB5EEC00ABE
:1010A000F1EE10FA17DBB6EE007A30EE070ABDEE6D
:1010B000C07A17EE101A60EEA70AF5EEC00AF1EE3C
:1010C00010FA1CDBF6EE007A70EEA70AFDEEE07A6D
:1010D00017EE902A1847BDEEC07AF8EEC76A17EEF1
:1010E000102A30EE660AF7EE086A30EE260A511E24
:1010F000BDEEC00A10EE102A0A441146DBE7FDEEF1
:10110000E07AB8EEE77A17EE902A70EEC70AB7EEEB
:10111000087A70EE870A013AFDEEE00A10EE90CAF6
:1011200094446246D6E710B40368046BD3F8B03039
:1011300062435DF8044B1847D0ED0C7A0368F8EE73
:10114000E77AD3F8B03027EE800AB5EEC00AF1EEA8
:1011500010FA08DBF6EE007A30EE270AFDEEC07AD0
:1011600017EE902A1847FDEEC07AB8EEE77A17EE30
:10117000902A30EE470AB7EE087A30EE070A013AB5
:10118000BDEEC00A10EE10CA94446246EAE710B4FD
:101190000468436BD4F8BC405A43594323465DF876
:1011A000044B1847D0ED0D7A0368F8EEE77AD3F8D0
:1011B000BC3020EE270AB5EEC00AF1EE10FA17DBBC
:1011C000B6EE007A30EE070ABDEEC07A17EE101ABE
:1011D00060EEA70AF5EEC00AF1EE10FA1CDBF6EE9F
:1011E000007A70EEA70AFDEEE07A17EE902A184713
:1011F000BDEEC07AF8EEC76A17EE102A30EE660A26
:10120000F7EE086A30EE260A511EBDEEC00A10EE57
:10121000102A0A441146DBE7FDEEE07AB8EEE77AE1
:1012200017EE902A70EEC70AB7EE087A70EE870ABA
:10123000013AFDEEE00A10EE90CA94446246D6E709
:1012400010B40368446BD3F8C03062435DF8044BBC
:101250001847D0ED0D7A0368F8EEE77AD3F8C0307E
:1012600027EE800AB5EEC00AF1EE10FA08DBF6EEC2
:10127000007A30EE270AFDEEC07A17EE902A184762
:10128000FDEEC07AB8EEE77A17EE902A30EE470A04
:10129000B7EE087A30EE070A013ABDEEC00A10EE4A
:1012A00010CA94446246EAE7D0F82C31026B002B56
:1012B00007DB02EB4300022390FBF2F090FBF3F01C
:1012C00070476FF0010000FB03200138022390FB00
:1012D000F2F090FBF3F040427047D0ED4B7A90ED86
:1012E0000C0AF8EEE77AB8EEC00A87EE800A70477B
:1012F000D0F82C017047D0F83031026B002B07DB9F
:1013000002EB4300022390FBF2F090FBF3F07047F6
:101310006FF0010000FB03200138022390FBF2F084
:1013200090FBF3F040427047D0ED4C7A90ED0C0A00
:10133000F8EEE77AB8EEC00A87EE800A7047D0F878
:1013400030017047D0F83431426B002B07DB02EBE1
:101350004300022390FBF2F090FBF3F070476FF034
:10136000010000FB03200138022390FBF2F090FB08
:10137000F3F040427047D0ED4D7A90ED0D0AF8EE53
:10138000E77AB8EEC00A87EE800A7047D0F83401D9
:101390007047D0F83831426B002B07DB02EB43007B
:1013A000022390FBF2F090FBF3F070476FF0010026
:1013B00000FB03200138022390FBF2F090FBF3F0D6
:1013C00040427047D0ED4E7A90ED0D0AF8EEE77A84
:1013D000B8EEC00A87EE800A7047D0F8380170472F
:1013E00070B503680446D3F888300D461646984712
:1013F0002368324629462046D3F89030BDE8704035
:1014000018470368D3F8943018470368D3F8D430EA
:1014100018470368D3F8E030184710B40368046B2A
:10142000D3F8A430002A0EDB04EB4201022291FB28
:10143000F4F191FBF2F1B0F91E215DF8044B013A91
:101440000A44494218476FF0010101FB024101398A
:10145000022291FBF4F191FBF2F14942EBE70368C0
:10146000D3F83C311847026B03685143D3F8483135
:1014700018470368D3F844311847D0ED0C7A036855
:10148000F8EEE77AD3F8483127EE800AB5EEC00AC5
:10149000F1EE10FA08DBF6EE007A30EE270AFDEEE8
:1014A000C07A17EE901A1847FDEEC07AB8EEE77AC8
:1014B00017EE902A30EE470AB7EE087A30EE070AA8
:1014C000511EBDEEC00A10EE102A0A441146EAE78A
:1014D000C0F83C1170470368D3F85031184710B575
:1014E0000368D3F85C31044698470028236B07DB78
:1014F00003EB400090FBF3F0022390FBF3F010BDF0
:101500006FF0010202FB0030013890FBF3F0022380
:1015100090FBF3F04042F2E70368D3F858311847E4
:1015200010B50368D3F85C310446984794ED0C0A73
:1015300007EE900AB8EEC00AF8EEE77A87EE800A66
:1015400010BDD0F83C017047026B03685143D3F8DB
:1015500068311847D0ED0C7A0368F8EEE77AD3F8D3
:10156000683127EE800AB5EEC00AF1EE10FA08DB0A
:10157000F6EE007A30EE270AFDEEC07A17EE901AEA
:101580001847FDEEC07AB8EEE77A17EE902A30EEF3
:10159000470AB7EE087A30EE070A511EBDEEC00AC0
:1015A00010EE102A0A441146EAE7C0F840117047CD
:1015B00010B50368D3F87431044698470028236BAC
:1015C00007DB03EB400090FBF3F0022390FBF3F00A
:1015D00010BD6FF0010202FB0030013890FBF3F008
:1015E000022390FBF3F04042F2E710B50368D3F812
:1015F00074310446984794ED0C0A07EE900AB8EE51
:10160000C00AF8EEE77A87EE800A10BDD0F84001F4
:1016100070470846704710B50368026BD3F88431F1
:101620000029044610DB02EB410191FBF2F102229A
:1016300091FBF2F109B220469847D4F83C21D4F846
:10164000403102FB003010BD6FF0010000FB0121B2
:10165000013991FBF2F1022291FBF2F14942E9E7F3
:10166000006B7047406B70470368D3F848311847E8
:101670000368D3F85C311847026B03685143D3F811
:101680001431184770B50368D0F84461D3F8185185
:10169000D3F88031044698472B4656F82010204650
:1016A000BDE870401847D0F84831B0F91E01194420
:1016B000081A704780F82610704790F82600704787
:1016C00001637047006B7047012070477047704797
:1016D000006C18B10368D3F884301847704730B5F0
:1016E000B2F91441B2F81A11B2F94050B2F84220DE
:1016F00044802144521A002101808580C28030BD7F
:1017000010B54280BDF90840BDF90C2004808280EC
:10171000C38010BD0B680846D3F8D43018470B6857
:101720000846D3F8E0301847B1F914017047B1F812
:101730001401B1F81A310344B1F84200C01A00B2E2
:101740007047B1F916017047B1F81601B1F81831B8
:101750000344B1F84000C01A00B270470B68084655
:10176000D3F814311146184730B5B2F91651B2F812
:10177000181105806C18B2F84010B2F94220C280EE
:10178000091B00244480818030BD02808380BDF924
:101790000020BDF904304280C38070470B680846C2
:1017A000D3F8EC3018470B680846D3F8F8301847E0
:1017B000B1F916017047B1F81601B1F818310344B8
:1017C000B1F84000C01A00B27047B1F91401704777
:1017D000B1F81401B1F81A310344B1F84200C01A4B
:1017E00000B270470B680846D3F818311146184705
:1017F00070477047704770477047704710B50821B1
:1018000004461EF043F9204610BD10B54FF4057193
:1018100004461EF03BF9204610BD10B54421044695
:101820001EF034F9204610BD10B5442104461EF0C8
:101830002DF9204610BD10B541F6B05104461EF0FA
:1018400025F9204610BD90F82C300BB107F0D0BE22
:10185000704738B50A68D0E90D54D2F88C20084694
:101860009047294602462046BDE8384009F0FEBFB1
:1018700038B50A68D0E90D54D2F89420084690474C
:10188000294602462046BDE8384009F0EFBF000077
:101890000A1E10B503DBB0F91E41944206DC084B6A
:1018A000084A094840F231611EF0FCF80368D0F89C
:1018B0004441D3F88031984754F8200010BD00BF50
:1018C0006A0F0208A41002088D0F02080B1E10B543
:1018D000044603DBB0F91E219A4206DC084B094A94
:1018E000094840F22B611EF0DDF80368D3F884311B
:1018F0009847D4F83C21D4F8403102FB003010BDA9
:101900006A0F0208551002088D0F02082DE9F041F8
:101910001E460368BDF918501B6B044617469847CE
:101920002368394620465B6B98472368314620463A
:101930009A6B9047236829462046DB6BBDE8F0414F
:1019400018470000012180F825100B490160002292
:10195000FF218280C280028142818281C281028213
:101960004282C0E90522C2610284428480F82420B8
:1019700080F8261082627047DC31020837B501AB6F
:1019800015460EF0B1FB00284FEA40142A46019993
:101990004FF0200004DB0EF0C6FB204403B030BD46
:1019A0000EF0C1FB201AF9E738B5B0F91441B0F8D0
:1019B0001A51D0F838216319B0F84250ED1AD0F816
:1019C00034312DB2C81AD21A691EFFF7D7FF2C4442
:1019D000013CC0EB441038BD38B50446D0F82C515A
:1019E000B0F81631D0F83021B0F818011844B4F826
:1019F00040301B1A1BB2481B521B591EFFF7BEFF7B
:101A0000B4F9163100EB431038BD000070B5FF2269
:101A100000230272124E134A0260C0E90333326897
:101A2000436092F87610044609B1D06C00B9906812
:101A30000368DB6A98473368B0FA80F5D86C6D09A3
:101A400028B10368DB6A9847002808BF01252DB933
:101A5000054B064A06482C211EF024F8204670BD8E
:101A60006C3D012048280208B00E02081C10020834
:101A70000E0F020810B5044609F096FA0B4A2260D0
:101A800000230122C4E90D23094AE2634FF6FF72E5
:101A9000A4F840202E22236384F84430A4F8463072
:101AA000A4F84820E364204610BD00BF08310208B6
:101AB000100D020810B5044609F076FA0023012241
:101AC000C4E90C320A212364034BA16384F83C204F
:101AD0002360204610BD00BF980B020810B50446D5
:101AE00009F062FA00230122C4E90C320A212364BE
:101AF000034BA16384F83C202360204610BD00BF47
:101B0000540C020810B53221044609F03DFE0B4B7F
:101B1000236001230021C4F83C3104F5A673C4F806
:101B200044312046C4F84011C4F848113122FFF76F
:101B3000A1FA034B2360204610BD00BFFC29020818
:101B4000200D02082DE9F04F04469DB00EF096FCE2
:101B500022460025DF4BE56342F8403B10460392E6
:101B6000FFF7F0FE1CAA04F16C0304934FF6FF7319
:101B700022F8043D01260292D74AE2660299A4F8AF
:101B80007050A4F87250A4F87450A4F87650A4F8D9
:101B90007850A4F87A50A4F87C50A4F87E50C4E998
:101BA0002055C4F88850A4F88C50A4F88E5084F8BE
:101BB0009050A4F8923084F89430049884F891609E
:101BC0000BF0BEFB04F19803184604F1CC0A059310
:101BD000FFF7B8FEC14BC4F89830C4F8C450A4F85D
:101BE000C8505046FFF78EFF04F538731846069329
:101BF00009F0DAF9BA4BC4F8E0324FF0020B09935E
:101C000004F5447384F80EB31846DFF8EC92199388
:101C1000FFF7FCFE04F54A73C4F81093C4F824538C
:101C20001846079309F0C0F9AE49C4F8281304F523
:101C3000567384F856B318460A911893FFF7E6FED8
:101C400004F55C73C4F85893C4F86C5318460C93AD
:101C5000FFF730FF04F56D7318460D93FFF73EFF55
:101C600004F57E7318460E93FFF704FF04F58963AD
:101C70009D4AC4F8F823184604F593670F93FFF7BD
:101C8000F9FE9A4AC4F848243846FFF73BFF04F2AD
:101C9000AC631846089309F087F9099BC4F8AC3681
:101CA0000B9304F2DC6384F8DAB618461793FFF757
:101CB000ADFE04F2F463C4F8DC96C4F8F05618469E
:101CC000099309F071F90A99C4F8F41604F224731F
:101CD00084F822B7184612911693FFF797FE04F284
:101CE0003C73C4F82497C4F8385718461093FFF78C
:101CF000E1FE04F5F06304F2C47818461193FFF78F
:101D0000EDFE4046FFF7FEFE04F6D81318460A9390
:101D100009F04AF90B9BC4F8D83904F6082384F873
:101D200006BA18461593FFF771FE04F52263C4F84E
:101D3000089AC4F81C5A18460B9309F035F9129901
:101D4000C4F8201A04F5256384F84EBA1846149393
:101D5000FFF75CFE04F66823C4F8509AC4F8645A8E
:101D600018461293FFF7A6FE04F6AC231846139309
:101D7000FFF7B4FE04F52F604FF496510BF05EFBB5
:101D8000F0234FF07F492A46009329464FF4A07371
:101D90000398FFF7BBFD256702990498C4F8689083
:101DA000ADF86C500BF0CCFAF02300932A4629468C
:101DB00005984FF4A073FFF7A9FD4FF0FF33C4E976
:101DC00030390523A4F8C8302A4631465046FFF77B
:101DD00007FBDE23009350464FF499730922072135
:101DE000FFF794FD142300935046042317220A2181
:101DF00009F07CFC2B4629465046CDF800B006225F
:101E000009F077FB504640F2DC523949FFF7BFF941
:101E10003246D4F8A413D4F8A80309F027FD0C998E
:101E2000C4F8A4635046C4F8A093C4F8A86384F827
:101E3000AC6309F069FB3246D4F8E813D4F8EC033C
:101E400009F014FD4FF42F73C4F8EC330D99C4F866
:101E5000E8635046C4F8E49384F8F06309F054FB57
:101E60003246D4F82C14D4F8300409F0FFFC0A23CD
:101E7000C4F830340E99C4F82C645046A4F8386481
:101E8000C4F8289409F064FB3246D4F87C14D4F8E2
:101E9000800409F0EBFC4FF42073C4F88034A4F8FC
:101EA00088540F99C4F87C645046C4F8789409F0BB
:101EB0003DFB104BC4F86C331899079808F070FF7D
:101EC0004FF0080384F856330799504609F01CFB7D
:101ED00014E000BFEC0F0208AC32020844320208E2
:101EE000902E02080C2E0208C02F0208643002084F
:101EF00024FAFFFFC21D17FF282802087F4BC4F8F1
:101F000024331999069808F04BFF069984F80EB30C
:101F1000504609F0F9FA2A4631463846FFF760FA8A
:101F2000294638463122FFF7A5F8DE2200923846CE
:101F30004FF4997309220721FFF7E8FC142200925D
:101F40003846042317220A2109F0D0FB2B462946E4
:101F50003846CDF800B0062209F0CBFA384640F2F8
:101F6000DC526749FFF713F93246D4F87017D4F8FA
:101F7000740709F07BFC1099C4F870673846C4F800
:101F80006C97C4F8746784F8786709F0BDFA324634
:101F9000D4F8B417D4F8B80709F068FC4FF42F72DE
:101FA000C4F8B8271199C4F8B4673846C4F8B09794
:101FB00084F8BC6709F0A8FA524BC4F83837169970
:101FC0000998029308F0ECFE4FF0080384F82237DA
:101FD0000999384609F098FA029BC4F8F036179927
:101FE000089808F0DDFE089984F8DAB6384609F05A
:101FF0008BFA2A4631464046FFF7F2F9DE2200927C
:1020000040464FF4997309220721FFF77FFC142201
:1020100000924046042317220A2109F067FB2B4651
:1020200029464046CDF800B0062209F062FA404643
:1020300040F2DC523249344DFFF7A9F83246D4F869
:102040009C1AD4F8A00A09F011FC1299C4F89C6AF1
:102050004046C4F8989AC4F8A06A84F8A46A09F0C3
:1020600053FA3246D4F8E01AD4F8E40A09F0FEFB39
:102070004FF42F72C4F8E42A1399C4F8E06A40467A
:10208000C4F8DC9A84F8E86A09F03EFAC4F8645AA5
:1020900014990B9808F084FE4FF0080384F84E3A28
:1020A0000B99404609F030FAC4F81C5A15990A9861
:1020B000251D08F075FE0A9984F806BA404609F015
:1020C00023FA0399284607F0D7FA0499284607F01F
:1020D000D3FA0599284607F0CFFA5146284607F06B
:1020E000CBFA3946284607F0C7FA2846414607F09A
:1020F000C3FA20461DB0BDE8F08F00BFC59714FF9E
:1021000024FAFFFF1717C2FF00FF33FF7047704725
:1021100070474160704770470123037270477047F2
:10212000704710B4C468416862100346E40701EBCD
:1021300002009B6848BF8A585DF8044B48BFD358DB
:10214000184743682BB183682BB9C06800F00100C1
:102150007047184670470120704710B50C2104469F
:102160001DF094FC204610BD10B54FF4AC71044630
:102170001DF08CFC204610BD10B5102104461DF04A
:1021800085FC204610BD08B50CF078FEBDE808407F
:102190000DF03CBAF8B5044617460E460CF08EFE1C
:1021A000144BC4F854611C60134E144B236000257B
:1021B0003068134BC4F83851C4F83C51C4F840316E
:1021C000C4F84451C4F84851C4F84C51C4F8507193
:1021D000036829469B689847284600F0B5FA33689B
:1021E00093F876200AB1D86C00B9986814F0D7FE3D
:1021F0002046F8BDD83D01206C3D01201411020895
:10220000FC100208064BC0F848310023C0F84C31DE
:1022100000F5A073C0F84401C0F83C31704700BF1E
:10222000652300082DE9F04707469068DDF820A0F7
:10223000994603681B6A88461546984741F6B3538A
:10224000984205D8414B424AA32142481DF02AFC3E
:10225000686803681B6A98470F2803D83E4B3C4ABE
:10226000A421F2E7E86803681B6A98470B2803D8A3
:102270003A4B374AA521E8E70CF000FE0CF004FECB
:10228000D9F8000010B10368DB689847D9F800005E
:1022900010B103681B689847386810B103685B6920
:1022A0009847D8F8000010B103685B689847386811
:1022B00010B103681B689847D8F8000010B1036894
:1022C0009B689847E868036800215B6A9847044662
:1022D00020B1002343600372214B0360A8680368A8
:1022E00000215B6A9847064608B1FEF73BFE686826
:1022F000036800215B6A9847054610B13146FEF736
:1023000075FDC9F80040C8F800503E60E5B12B1DCE
:10231000CAF80030C5F808A03368F5633046DB68BA
:1023200098472B6828461B689847214630460EF090
:1023300051FA236820461B699847236820465B6949
:1023400098472846BDE8F0872B46E1E77C11020854
:10235000911302080A1202084B120208EE12020838
:102360006011020807B5D0F854310093D0F850211D
:10237000044B00F59C710448FFF754FF03B05DF86F
:1023800004FB00BFCC3D0120C83D012013B5002255
:1023900049B102AB019203F8052D0268946801AAC5
:1023A000A04702B010BD0846FBE74089704780890E
:1023B00070478088704783798088184480B270475E
:1023C000C07900F07F007047C079C0097047006A8B
:1023D0007047406A704770478B8880690A68DB0ADB
:1023E00050F823001044704710B5C2B1137BB3B14D
:1023F000547BD27A240204F4E0641443C26998B294
:1024000002EB840213888B4202D192F9020010BDC4
:1024100005D8013880B204320028F3D1F7E7002054
:10242000F5E710B5282104461DF030FB204610BD0D
:1024300030B589B00446BDF850500695BDF84C50F3
:1024400005959DF8405004959DF83C5003959DF8E6
:10245000385002959DF8345001959DF83050009504
:102460000DF046FD064B2360119BA361129BE361B7
:10247000159B2362169B6362204609B030BD00BFE6
:10248000A014020830B5174D2C78BFF35B8F14F001
:1024900001048DB022D128461DF0D0FAF0B13F23BF
:1024A0000793114B0693114B11490894CDE904434E
:1024B00001220423CDE9013202230F220093CDE94A
:1024C0000944082303940B48FFF7B2FF28461DF088
:1024D000C1FA094A094907481DF0D3FA05480DB069
:1024E00030BD00BF7C0100202C5102083851020889
:1024F000744F02088001002000000020D72300084C
:1025000030B5164D2C78BFF35B8F14F001048DB0FD
:1025100020D128461DF092FAE0B13F230793104BDB
:102520000693104B104908940122CDE9044304237B
:10253000CDE90132CDE909442823039400940B48E6
:10254000FFF776FF28461DF085FA094A0949074832
:102550001DF097FA05480DB030BD00BFA80100205E
:10256000305102083C5102080C510208AC01002015
:1025700000000020D723000830B5164D2C78BFF39B
:102580005B8F14F001048DB020D128461DF056FA5F
:10259000E0B13F230793104B0693104B104908946A
:1025A0000122CDE904430423CDE90132CDE90944F8
:1025B0001423039400940B48FFF73AFF28461DF0BC
:1025C00049FA094A094907481DF05BFA05480DB068
:1025D00030BD00BFD4010020345102084051020830
:1025E0001C510208D801002000000020D723000859
:1025F000704710B5042104461DF048FA204610BD6E
:10260000012908B508D003D3022909D0002002E02F
:1026100000F012F8006808BD00F00EF84068FAE714
:1026200000F00AF88068F6E70048704704150208D1
:1026300001207047022070470048704700020020C8
:1026400010B5FFF799FF044C2060FFF759FF606059
:10265000FFF718FFA06010BD0002002000207047A7
:10266000002070470EB403B503AB002153F8042BD0
:1026700001930DF06FFA02B05DF804EB03B0704700
:102680000CB407B504AB53F8042B01930DF062FAB8
:1026900003B05DF804EB02B07047000010B5436C66
:1026A000044673B3038F2BB9184B194AC02119483C
:1026B0001DF0F8F9C38E00EB43035B8C0BB30EF0F7
:1026C000F7FD238F012B03D8134B144AC521EEE7E6
:1026D000E28E531C9BB2092B194688BFA3F10A0155
:1026E00004EB410140F63F10498C814209D10A2B8D
:1026F00004EB420228BF002304EB4303508C5884B0
:1027000051842046BDE810400EF0B6BC18150208F2
:1027100045160208211502086515020873150208FE
:102720000EF062BC10B586B002AC84E806001A4612
:102730000AAB05930193099B00932146089B0BF07C
:1027400026FF06B010BD000038B5D8B9114B1248AD
:102750001B681249BBB11A689C681A4402605A6827
:102760001A440A601C446CB10D4B00221A80FFF71A
:1027700063FF0546FFF75EFF0A4B1C600A4B1D60B6
:102780000A4B188038BD0A4B03600A4B0B600A4B9A
:102790001C68E8E70C020020100200201402002050
:1027A00018020020DC3D0120E43D0120E03D012035
:1027B00054A9040844A9040850A90408044B1B6840
:1027C00053F82100034B1B6803EB4000704700BF28
:1027D0001402002010020020012380F8741080F8F9
:1027E00075307047002070474164034B003118BFBB
:1027F00001211970704700BF693D0120002070471A
:10280000836B0BB10846184770474FF6FF7070474F
:10281000406803689B69184770477047034B9022D4
:1028200083F85A2383F85823704700BF00E100E083
:10283000094A0A49D3680A48C3F30A03013B9BB219
:102840000B801169C1F30A01013901801364536BD4
:1028500043F0010353637047006801401E020020EB
:102860001C020020014B986A704700BF8468014039
:10287000024B0122996243F8602C70478468014042
:1028800070B5044607F0A1F923685D6E0CF0F6FA06
:1028900001462046A8472368054AD3F888502046B9
:1028A000AC460023A2F51631BDE87040604700BF7A
:1028B000005802D010B531B90A4B0B4A0B4840F210
:1028C000BB211DF0EFF8C0E90F120032084918BF14
:1028D00001220A7002681946D2F88C20BDE8104027
:1028E000104700BF531702080D1802088B17020883
:1028F000683D012008B5094B1B888B4203D8084B63
:102900001B88934205D9074B074A08489E211DF0B2
:10291000C9F8074B1980074B1A8008BD5E3D01209E
:10292000603D0120F0160208CA1702088B17020842
:10293000643D0120663D012007F02EB990F84B3030
:1029400013B1024B01221A7007F032B91A020020AB
:1029500007F0ECB807F045BA10B5044607F062FF7F
:1029600023682046D3F8AC30BDE81040184790F8F3
:1029700077301BB1406803681B68184718467047DA
:1029800010B590F8744090F834100C4B8C421A78C3
:1029900009D03AB90A4A0B491488088810800C807B
:1029A00001221A7010BD002AFCD0054A054914887E
:1029B000088810800C800022F3E700BF623D0120F0
:1029C0005E3D0120603D0120034B4FF080629A6024
:1029D0004FF080729A60704700E100E0084B4FF0C2
:1029E0008062C3F88820BFF34F8FBFF36F8F4FF023
:1029F0008072C3F88820BFF34F8FBFF36F8F70478B
:102A000000E100E010B5144C236823B3134B144AC3
:102A10001B6C11888B4213D1124B198803F0C2FF33
:102A2000226892F86630013382F8663000F004FACA
:102A3000206807F0F7FE0020BDE8104000F004BC5D
:102A400003F0B0FF206803681B6A98470020BDE8C8
:102A5000104000F0FABB10BD6C3D01200068014041
:102A60001E0200201C02002003685B6C1847012036
:102A7000704703689B6A184782B0002301930D4B8F
:102A80001A6B42F400021A631A6B02F400020192FC
:102A9000019A1A6942F400021A611A6922F40002CA
:102AA0001A61054B054A1A61054B4FF080629A6026
:102AB00002B070470038024090400120CD2A000843
:102AC00000E100E040F2EF3070470000024B1B686D
:102AD000586803685B6918476C3D012008B50B28EE
:102AE0000BD8DFE800F01206100A0A0A0A080808E4
:102AF0000808012008BD0520FCE7054B054A0648EB
:102B000066211CF0CFFF0020F4E70220F2E700BFAF
:102B100075180208461902089018020808B50A2814
:102B200009D8DFE800F010060E08080808060606B7
:102B30000600012008BD054B054A064887211CF008
:102B4000B1FF0020F6E70220F4E700BF7518020885
:102B50009019020890180208F8B50C46487FFFF754
:102B6000BDFFA77F05463846FFF7B8FF0646384643
:102B7000FFF7D4FFA38A628BD21A494B1A64A18A49
:102B8000628B521A9A61A18A228B521A1A61586377
:102B9000A18AE28A42EA01425A642269DA636268DF
:102BA000DA602268402A70D010D8042A3BD0202A4C
:102BB0006BD0237F45EA0365394B45F40035DD6171
:102BC000617FA27F914267D0364A4BE0B2F5807FA9
:102BD0001BD0B2F5007F23D0802AEAD1A068021D65
:102BE000DA62227F45EA026545F40035DD615E6206
:102BF00022695A610278EAB1012A35D02A4B2B4A60
:102C00002B4840F211111CF04DFF217F294A42EA66
:102C10000162DA61E2681A625E6222695A6120E04A
:102C2000217F254AF3E7227F45EA026545F4003516
:102C3000DD61F1E7D9694288501E21F47F4222F01C
:102C4000100242EA0022DA610121154BDA6942F0F2
:102C50002002DA61DA699206FCD410229A60002917
:102C6000B2D0164A1A60F8BDDA694088217F22F492
:102C70007F4222F01002013842F01002FF3942EA8E
:102C8000002218BF0121DA61DFE7237F45EA0365EF
:102C900045F40035024BCBE740F20122E2E700BFEA
:102CA00000B00240010201005B1802080819020886
:102CB000901802080A000200090002000102020046
:102CC00010B5887F0C46FFF729FF1C4B5863A18A7B
:102CD000E28A42EA01425A642269DA63628BA18A7B
:102CE000521A1A642268082A16D1A18A628B521AD3
:102CF0009A61A18A628B521A1A615862217F104A26
:102D000042EA0162DA61E2681A6222695A61226962
:102D1000DA600C4A1A6010BD0022D8611A61E168BD
:102D20000A0A480902F4784200F4FC600243C1F345
:102D3000C4010A439A63044AECE700BF00B00240B2
:102D4000090001000102020001020300054B0360BB
:102D5000054B4FF08062C3F88820BFF34F8FBFF35D
:102D60006F8F7047C018020800E100E010B50446FC
:102D7000FFF7ECFF20464FF45A611CF087FE204617
:102D800010BD000070B505462C460A4B0C300026DD
:102D900068602E726E7244F8203B6022214607F074
:102DA000A9FE05F55A63E6602434A342FBD1284608
:102DB00070BD00BFC0180208012108B500220846F6
:102DC00005F097FC0A4B186028B90A4B0A4A2821DB
:102DD0000A481CF067FE00220421012005F02AFDAC
:102DE000074B186018B9074B034A2C21F0E708BDC0
:102DF00024020020DB1902088F1A0208241A020894
:102E0000200200204D1A0208024B4FF0FF311868D3
:102E100005F0BABC24020020014B186805F0E0BCA4
:102E200024020020024B0021186805F0ADBC00BF51
:102E300024020020FFF7F0BF034804490068002384
:102E40001A4605F033BD00BF200200200400002018
:102E500013B5084C00231A4601A9206805F058FD57
:102E60004FF0FF33002201A9206805F051FD02B0A8
:102E700010BD00BF2002002070477047704701203E
:102E800070470C2070470C2303FB0100083070478B
:102E90000C2303FB0100083070470120704741F606
:102EA000B450704741F6B45303FB0100083070473B
:102EB00041F6B45303FB010008307047012070470E
:102EC0001020704700EB01100830704700EB011034
:102ED000083070470846FFF795B9000010B5034B5E
:102EE0000360044606F044FB204610BD301B020878
:102EF00010B50446FFF7F2FF204614211CF0C6FD72
:102F0000204610BD10B5034B0360044606F030FBAD
:102F1000204610BDFC1A020810B50446FFF7F2FF68
:102F2000204641F6BC511CF0B1FD204610BD00000A
:102F300010B5034B0360044606F01AFB204610BD93
:102F4000C81A020810B50446FFF7F2FF2046182100
:102F50001CF09CFD204610BD10B5094B03600446D3
:102F600000F5EF500830FFF7B9FF04F12C00FFF730
:102F7000C9FF04F11400FFF7DBFF204610BD00BFBE
:102F8000641B020810B50446FFF7E6FF204641F631
:102F900058711CF07BFD204610BD00002DE9F34167
:102FA000FFF742FB0546FFF743FB0024014623469B
:102FB0002846224600940FF005F8244B244A254D5C
:102FC0001A602046FFF7C0FB23480EF047FF2B781E
:102FD000BFF35B8FDB0733D428461CF02FFD78B39B
:102FE0001E4C1F4F1F4BE76004F5F05604F1140010
:102FF00004F12C086060C4F808802661236006F0A4
:10300000B9FA194B6361404606F0B4FA174BE36214
:10301000384606F0AFFA164B3B60301FFDF7B0FFA5
:103020002246311F3046FDF7DFFF3046FFF7EAF852
:1030300028461CF00FFD0F4A0F4920461CF021FDC9
:103040000E4802B0BDE8F04100F0D2B8E83D0120E2
:10305000A42F002028020020080000202C020020BD
:1030600014200020641B0208C81A0208FC1A020877
:10307000301B020800000020592F0008282F0020D4
:10308000014800F0B7B800BF282F002010B5042178
:1030900004461CF0FBFC204610BD10B57821044608
:1030A0001CF0F4FC204610BD10B57C2104461CF039
:1030B000EDFC204610BD0000F8B5394C394D3A4FB3
:1030C0003A4B3B492B60224628461CF0DAFC394E2D
:1030D0003846FFF757FE2246374938461CF0D1FCE8
:1030E000304612F011F92246344930461CF0C9FC32
:1030F0002246334933481CF0C4FC33483349416607
:103100003349C56000230122324D0385C0E90176B1
:10311000C0E90433C0E90633C0E9083380F82A3037
:10312000C3620386C0E90E33C0E9103380F848302B
:1031300080F8492080F84A3080F84B30C0E91333DA
:10314000C0E91533C0E9173380F8683080F869307A
:1031500080F86A3080F86B3080F86C300860F021BD
:1031600029801D4D036729801C4D80F874304FF471
:10317000A07129801A4D80F875302980194980F88E
:1031800076300B70184B80F8772080F8782080F824
:103190003420036022461549BDE8F8401CF071BC9C
:1031A000000000208421002088210020501C0208FB
:1031B000792E0008A82F00204D2D00087B2E000836
:1031C000F125000808000020282F00200100000140
:1031D0006C3D01205E3D0120643D0120603D0120E9
:1031E000663D0120623D0120781B02087D2E00080B
:1031F000FFF746BB08B503680446D3F8803098470C
:10320000236820469B6F9847FFF722FE23682046DD
:103210001B6F9847292000F0B9FFFFF719FE2368BC
:1032200020461B6F9847F8E7FFF71CBBFFF720BB52
:10323000FFF78EBBFFF7F2BAFFF7C6BBFFF7CEBBB7
:10324000FFF7F6BA06F06CBC704770477047000095
:1032500038B50C4B0C4C18800C4B822019806368DD
:10326000984740F6110398420AD1094D23682C6013
:10327000822098472B688220DB689847002038BD61
:103280000120FCE720300020240000202230002014
:10329000243000204FF4A071F020FFF7D9BF0000C8
:1032A000F7B52C4D2B6804461B698220984780B2E5
:1032B000208000284BD02B680DF106025B6901A924
:1032C00082209847BDF80630A3F5B4739BB20B2259
:1032D000B3FBF2F333B1204A12889A423CBF02F1A9
:1032E000FF339BB2BDF8042040F6B8318A4295BF47
:1032F000C2F57162C2F56D620E320832ADF804207B
:10330000BDF804100F22B1FBF2F131B1134A12885B
:103310008A423CBF02F1FF3189B2114E114D306833
:103320002F6882B2814288BF8A1AB8B298BF521AF7
:10333000BB428CBF181AC01A92B280B20244052A4E
:10334000C4BF31602B60336863802B68A38003B0F7
:10335000F0BD00BF243000202230002020300020AB
:10336000283000202C30002037B568460D46144622
:10337000FFF796FFBDF8000030B1BDF802302B60BA
:10338000BDF804302360012003B030BD054BD3F8F5
:10339000882042F47002C3F888204FF000629A60DF
:1033A000704700BF00ED00E000220421014802F058
:1033B000F5BC00BF000C024001220421014802F0CC
:1033C000EDBC00BF000C024007B57F238DF8043030
:1033D0008DF80500FFF7E8FF0A23022201A904483F
:1033E00002F0F1FDFFF7E8FF03B05DF804FB00BF5A
:1033F0008C3F012073B502AC61F07F0104F8011D20
:103400000C4D1646FFF7E0FFFFF7CEFF21460A4CB2
:103410004FF47A730122284602F0D5FD4FF47A73F7
:1034200032462146284602F06AFFFFF7C5FF2046D4
:1034300002B070BD8C3F01203830002007B58DF8F8
:1034400004108DF80520FFF7BFFFFFF7ADFF4FF425
:103450007A73022201A9044802F0B5FDFFF7ACFF20
:1034600003B05DF804FB00BF8C3F012038B50C228F
:1034700005460C4630200321FFF7E0FF2A460421D1
:103480003020FFF7DBFF224606213020FFF7D6FF72
:10349000812205213020BDE83840FFF7CFBF000072
:1034A00037B502AC61F07F0104F8021D0C4DFFF747
:1034B0008BFFFFF779FF21464FF47A7301222846EC
:1034C00002F081FD4FF47A7301220DF107012846C5
:1034D00002F015FFFFF770FF9DF8070003B030BD45
:1034E0008C3F0120F7B502AC0D4D04F8011D1646C6
:1034F0001F46FFF769FFFFF757FF21464FF47A7326
:103500000122284602F05FFD4FF47A733A463146B5
:10351000284602F058FDFFF74FFF03B0F0BD00BF93
:103520008C3F012010B58C22044603213020FFF788
:1035300085FF224604213020FFF780FF05218122EC
:103540003020FFF77BFF012003F078FA3B210020B9
:10355000BDE81040FFF7A4BF10B506220446332192
:103560000020FFF747FF0278437843EA02231BB2AB
:1035700007EE903AF8EEE77AC4ED007A8278C378E5
:1035800043EA02231BB207EE903AF8EEE77AC4ED65
:10359000017A0279437943EA02231BB207EE903A9B
:1035A000F8EEE77AC4ED027A10BD000010B50622ED
:1035B00004462D210020FFF71DFF0278437843EADF
:1035C00002231BB207EE903AF8EEE77AC4ED007AD8
:1035D0008278C37843EA02231BB207EE903AF8EEF2
:1035E000E77AC4ED017A0279437943EA02231BB2F8
:1035F00007EE903A044BF8EEE77A93ED007A77EE17
:10360000877AC4ED027A10BD3030002038B5044608
:103610001020FFF787FFC20701D4002038BD8C229D
:1036200003213020FFF70AFF112204213020FFF789
:1036300005FF862205213020FFF700FF012003F05F
:10364000FDF906223B210020FFF7D4FE0546182095
:10365000FFF768FF0307E0D46A782B7843EA022378
:103660001BB207EE903AF8EEE77A0120C4ED007A3B
:10367000EA78AB7843EA02231BB207EE903AF8EE01
:10368000E77AC4ED017A6A792B7943EA02231BB207
:1036900007EE903AF8EEE77AC4ED027ABEE7000052
:1036A00030B585B0044601A8FFF7B0FF054600B36A
:1036B0000198FCF701FF10A3D3E90023FCF754FFA6
:1036C000FDF764F920600298FCF7F6FE0AA3D3E93F
:1036D0000023FCF749FFFDF759F960600398FCF7F8
:1036E000EBFE05A3D3E90023FCF73EFFFDF74EF9FF
:1036F000A060284605B030BD333333333333C33F86
:10370000002108B50846FFF7CBFEA0F1EA035842B6
:10371000584108BD08B50120FFF704FFA0F10903D7
:103720005842584108BD08B50020C1220621FFF7C4
:1037300085FE6420BDE8084003F080B908B532205A
:103740000121FFF793FE6420BDE8084003F076B93D
:1037500008B506210020FFF7A3FE062100F0BF02F6
:103760000020FFF76BFE6420BDE8084003F066B957
:1037700008B503210020FFF793FE40F01002D2B2FB
:1037800003210020BDE80840FFF758BE08B503211B
:103790000020FFF785FE40F00202D2B20321002094
:1037A000BDE80840FFF74ABE08B503210020FFF737
:1037B00077FE40F02002D2B200200321FFF73EFE48
:1037C0006420BDE8084003F039B910B50121044672
:1037D0003020FFF765FE40EA0402D2B2012130201A
:1037E000BDE81040FFF72ABE10B5062104460020B0
:1037F000FFF756FE40EA0402D2B206210020BDE8DF
:103800001040FFF71BBE012209212020FFF716BE42
:1038100010B5012104462020FFF742FE40EAC40211
:10382000D2B201212020BDE81040FFF707BE10B53D
:10383000142104462020FFF733FE40EAC402D2B22E
:1038400001212020BDE81040FFF7F8BD024600210D
:103850002020FFF7F3BD10B5020A044610212020F6
:10386000FFF7ECFD04F00F0211212020BDE810400D
:10387000FFF7E4BD08B501463120FFF7F7FD6420EE
:10388000BDE8084003F0DAB808B5FFF77FFFFFF79F
:103890008BFF0720FFF799FFFFF73CFF0028FBD0C5
:1038A000FFF74CFF0820BDE80840FFF7E3BF30B545
:1038B0002DED028B002487B008EE104A08EE904AE6
:1038C0000194ADF80840642503A8FFF745FEDDED3F
:1038D000037A9DED057AF8EEE88AB8EEC88A78EEAC
:1038E000A78ADDED047A38EE278A07EE904AF8EED3
:1038F000E77A013D77EE877AFDEEE88AFDEEE77A1A
:10390000BDEEC88A17EE904ADED118EE903A6421D7
:10391000042293FBF1F35B4293FBF2F318128DF850
:10392000053018EE103A94FBF1F48DF8040093FB87
:10393000F1F364425B4294FBF2F493FBF2F318124E
:103940008DF8073023128DF806008DF808306A4490
:103950000623032120208DF80940FFF7C3FD07B09F
:10396000BDEC028B30BD00002DE9F0432DED028B44
:10397000002487B008EE904A08EE104A0194ADF892
:103980000840642503A8FFF711FE07EE904A9DED5D
:10399000037AF8EEE77AF8EEE88A77EE877AB8EEFF
:1039A000C88AFDEEE77A013D17EE904ADDED047A14
:1039B00078EEA78ADDED057A38EE278AFDEEE88AF3
:1039C000BDEEC88ADED1022214211020FFF712FDBD
:1039D0000222B0F80090467817211020FFF70AFD68
:1039E0000288457852BA1FFA82F81A210222102062
:1039F000FFF700FD99FA99F901884778234B94FB6A
:103A0000F3F418EE100A1FFA89F918EE902A4C44C4
:103A100049BA92FBF3F290FBF3F3424413FA81F3B9
:103A200021128DF8041005F00105111222F0010297
:103A30002A438DF8072007F001071A1223F001032B
:103A40003B4306F0010624F001048DF806108DF8C2
:103A500008208DF8093001AA3443022314211020D4
:103A60008DF80540FFF73EFD0DF1060202231721F8
:103A70001020FFF737FD022302AA1A211020FFF7BA
:103A800031FD07B0BDEC028BBDE8F083E0FCFFFF29
:103A900010B5012104462020FFF702FD0246032C49
:103AA00006D8DFE804F0020B11170D4B0D49196021
:103AB00001212020BDE81040FFF7C0BC40F0020209
:103AC000D2B2074B0849F2E740F00402D2B2044BED
:103AD0000649ECE740F00602D2B2014B0449E6E7A2
:103AE000343000200000034300008342333303429C
:103AF0003333834110B5142104462020FFF7D0FC56
:103B00000246032C07D8DFE804F0020C131A0F4B0F
:103B10004FF08D41196014212020BDE81040FFF7BF
:103B20008DBC40F00202D2B2084B4FF08C41F1E75D
:103B300040F00402D2B2054B4FF08B41EAE740F06F
:103B40000602D2B2014B4FF08A41E3E73030002049
:103B500008B5FFF7D5FD0028FBD0FFF7E4FDFFF720
:103B6000F7FD0120FFF740FEFFF74DFEFFF700FED7
:103B70000020FFF74DFE0020FFF759FE0020FFF761
:103B800065FE0020FFF767FEFFF791FEFFF7ECFEF2
:103B90000320FFF77DFF0320BDE80840FFF7AABF21
:103BA00030B5014689B00022362001F023FF3620CF
:103BB00001F054FF0025154B02951A6C144C42F08D
:103BC00010021A641B6C03F01003029301A903A8EE
:103BD000029B01F0F9F801F0E7F80E4B236040F288
:103BE000E733E36040000C4BB0FBF3F0013860605A
:103BF00020462561A56001F051FA20B9204601F068
:103C000003F909B030BD0120FBE700BF00380240D6
:103C1000903E01200010004040420F0007B5064BC7
:103C200002A91B6821F8020D0122044802F0CBF919
:103C300003B05DF804FB00BF140000202C3F0120FE
:103C400008B5054E054C01253046FFF729FD01203A
:103C5000257004F042FDF7E7D040012044300020F9
:103C600030B595B03022002108A81BF09EFF142229
:103C7000002103A81BF099FF00241D4B01941A6C2E
:103C800042F080521A641B6C03F080530193019B35
:103C9000184B02941A6842F440421A601B6803F4FD
:103CA000404302930122029B4FF48033CDE9082365
:103CB00002254FF48003CDE90E5308214FF4A87379
:103CC000CDE9101308A804231393129500F0F4FD16
:103CD0000F23CDE903354FF4A0504FF48053CDE9C5
:103CE0000603052103A8059400F0C0FF15B030BD00
:103CF00000380240007000402DE9804800209DB04F
:103D00001CF044FB1CF0CAFA02F06CFEFFF7A8FF9F
:103D1000142200210FA800241BF047FFC34B02947C
:103D20001A6BC348C34D42F020021A631A6B02F0AB
:103D300020020292029A03941A6B42F080021A63E4
:103D40001A6B02F080020392039A04941A6B42F0F9
:103D500004021A631A6B02F004020492049A059496
:103D60001A6B42F001021A631A6B02F0010205920B
:103D7000059A06941A6B42F002021A631A6B02F05B
:103D800002020692069A07941A6B42F040021A63E6
:103D90001A6B02F040020792079A08941A6B42F0DD
:103DA00010021A631A6B02F010020892089A099422
:103DB0001A6B42F008021A631B6B03F008030993A5
:103DC00022460421099B01F0E9FF22464FF44051AD
:103DD000994801F0E3FF01220421974801F0DEFF3A
:103DE000012602274FF004080FA991481194CDE94C
:103DF0000F86129701F0E4FE0FA943F204038E48E8
:103E0000CDE90F36CDE9114701F0DAFE8B488C4B36
:103E1000036002F055FF8B4A8B4B2C62C5E90023EF
:103E200028464FF48043C5E90434C5E90244C5E996
:103E3000064401F035FB1021284601F083FD2146A0
:103E4000284601F0A1FD81488149824D84624FF4EA
:103E50008273C0E90013182201934FF4007B0A23F8
:103E6000C362C0E906B2C0E90244C0E90444C0E943
:103E7000084402F049F8784A0F97C5E90026102057
:103E80004022C5E904024FF4C072C5E906244FF48C
:103E90000062C5E908244FF40052AA624FF0030AF9
:103EA00007220FA928464FF00809C5E90248CDE9C5
:103EB00010281292CDE913A7159700F0A7FC4FF632
:103EC000FF720BA928460A940B96CDE90C960E9426
:103ED00000F0BCFC304602F0B1FD4FF6FF720BA9BA
:103EE0002846CDE90B79CDE90D6400F0AFFC4FF623
:103EF000FF720BA92846CDE90D84CDE90BA900F08E
:103F0000A5FC4FF40C720A920A9A0E920BA94FF676
:103F1000FF722846CDE90B890D9600F097FC40F220
:103F20006A51284600F0B0FC214634220FA81BF04D
:103F30003CFE4A4D4A4A2C61C5E900240922C5E9E4
:103F400005261D2240F20D1CC5E9072A40F2431246
:103F5000C5E909C240F2171E40F24712C5E90BE25B
:103F6000C5E90244AC8685F83640284602F014FCC8
:103F7000FF20F0214FF4A072CDE914044FF48068C3
:103F80000520CDE91014CDE91227CDE91680CDE941
:103F900018411A920FA9224628460F94314DADF8C8
:103FA0006C408DF86E4002F0D4FC2F4A2A601268F3
:103FB00090472A682D4DD26890472D4AC5E90A4797
:103FC000C5E90C442846C5E90024C5E9027402F09D
:103FD00035FA3146284602F0F1FA2648019B264A76
:103FE0000260C0E901342023C0E907340A23C36218
:103FF000C0E90347C0E9056BC0E9094401F084FF4B
:1040000002F06EFEFFF7A4FDFFF73EFC04F0F0FAAD
:104010001A4A1B48214604F017FB1A4B1A4A18602B
:1040200021461A4804F010FB32E000BF003802407D
:1040300000080240D83E0120000C0240843F0120CD
:1040400000300240005C0040A08601002C3F0120AF
:1040500000500140DC400120400100A0E43F01206D
:1040600000680140403000204C00002090400120BA
:1040700000B002408C3F0120003C0040781C020848
:10408000E56C00088C4001209C1C0208413C0008A3
:10409000024B186004F0BEFAFEE700BF1441012095
:1040A0007047704710B586B006AC074B04F8012D79
:1040B0001B68029301230A46CDE9004301460348E9
:1040C00001F09EFA06B010BD10000020D83E01207D
:1040D0007FB506AA002302F8013D084B1B68029336
:1040E0000123CDE900230A460146054801F01CFBE7
:1040F0009DF8170007B05DF804FB00BF100000201A
:10410000D83E01201FB5084C24680092CDE9013447
:104110000A4601230146054801F006FB003018BF9E
:10412000012004B010BD00BF10000020D83E0120C7
:1041300002F084BC10B5064C00222046042101F098
:104140002DFE204601220421BDE8104001F026BECC
:104150000008024038B50B4C054601224FF40051CF
:10416000094801F01BFE00220421204601F016FE42
:104170002846FFF753FD204601220421BDE83840C0
:1041800001F00CBE00080240000C024038B50B4C98
:10419000054600224FF40051094801F0FFFD0022BE
:1041A0000421204601F0FAFD2846FFF737FD20469E
:1041B00001220421BDE8384001F0F0BD00080240B2
:1041C000000C0240F7B5144C144D07460E4620462D
:1041D0000022042101F0E2FD00224FF400512846A4
:1041E00001F0DCFD3846FFF719FD0D4B0D481B684B
:1041F000324601A902F083F8284601224FF400510B
:10420000019E01F0CBFD20460122042101F0C6FDF4
:10421000304603B0F0BD00BF00080240000C024071
:10422000140000202C3F012002F008BC0268034B60
:104230009A4201D102F0F0BB704700BF001000406D
:1042400070477047FEE7FEE7FEE7FEE770470000B5
:10425000014800F017BE00BF903E0120014802F067
:1042600017BB00BFE43F0120014802F017B900BFAF
:104270009040012008B50A4B1968024609B909495E
:1042800019601868694602448A4206D91BF036FC58
:104290000C2303604FF0FF3008BD1A60FCE700BF3D
:1042A000483000206041012082B00E4B0022009275
:1042B000596C41F480415964596C01F4804100917A
:1042C00000990192196C41F0805119641B6C03F044
:1042D00080530193019B0F216FF0010002B001F0A8
:1042E00089BB00BF003802400268094B9A4282B085
:1042F0000BD100230193074B1A6B42F480521A63CF
:104300001B6B03F480530193019B02B0704700BF05
:10431000003002400038024007B50F4B02689A4255
:1043200016D10022A3F5F0430192196B41F400016C
:1043300019631B6B03F40003019305215A20019BB1
:1043400001F058FB5A2003B05DF804EB01F086BB86
:1043500003B05DF804FB00BF00B002402DE9F0435C
:10436000044689B01422002103A81BF01EFC226819
:10437000244B9A4243D1244C244800250095236BBA
:1043800043F004032363236B03F004030093009BB7
:104390000195236B43F001032363236B03F00103B7
:1043A0000193019B4FF012094FF400734FF0010885
:1043B0000327042603A9CDE90339CDE9058707962C
:1043C00001F0FEFB4FF4807303A911480796CDE975
:1043D0000339CDE9058701F0F3FB0295236C43F423
:1043E00000032364236C03F400030293029B236AFB
:1043F00043F400032362236A23F40003236209B019
:10440000BDE8F083005C0040003802400008024034
:1044100000000240F0B599B004461422002107A81C
:104420001BF0C3FB30220DEB020000211BF0BDFB93
:1044300022685E4B9A4240F0B78008230C93C02359
:104440001093042312930CA84FF40033159302F039
:1044500009FB08B1FFF7F4FE554B564800240094C1
:104460005A6C42F080625A645A6C02F08062009288
:10447000009A01941A6B42F020021A631A6B02F040
:1044800020020192019A02941A6B42F001021A630F
:104490001A6B02F001020292029A03941A6B42F024
:1044A00002021A631A6B02F002020392039A049446
:1044B0001A6B42F040021A631A6B02F04002049237
:1044C000049A05941A6B42F004021A631A6B02F004
:1044D00004020592059A06941A6B42F008021A63C8
:1044E0001B6B03F00803069302250E26069B0B9612
:1044F0004FF4806307A9CDE90735CDE9094501F0FF
:104500005FFB41F6580307A92B480B96CDE9073509
:104510000927CDE9094501F053FB032307A92748E3
:104520000B97CDE90735CDE9094501F049FB4FF47B
:10453000706307A921480B96CDE90735CDE90945F8
:1045400001F03EFB4FF40C6307A91D480B96CDE923
:104550000735CDE9094501F033FBC02307A9194808
:104560000B96CDE90735CDE9094501F029FB082374
:1045700007A915480B96CDE90735CDE9094501F0A6
:104580001FFB4FF4A05307A90D480B97CDE9073542
:10459000CDE9094501F014FB58202246052101F020
:1045A00029FA582001F05AFA19B0F0BD006801400C
:1045B00000380240001402400000024000040240A3
:1045C0000018024000080240000C024070B514229E
:1045D0008AB0044600210DEB02001BF0E6FA2368C6
:1045E000304A934239D1304B3048002400941A6C41
:1045F00042F400421A641A6C02F400420092009ADB
:1046000001941A6B42F004021A631A6B02F004025E
:104610000192019A02941A6B42F008021A631B6B12
:1046200003F008030293029B02264FF44063CDE996
:1046300005360325062305A9CDE9085301F0C0FA84
:104640004023CDE90745CDE90536194805230993EF
:1046500005A901F0B5FA0AB070BD164A9342FAD125
:10466000114B1548002103915A6C42F480125A6490
:104670005A6C02F480120392039A04911A6B42F06E
:1046800020021A631B6B03F020030493049B4FF476
:10469000607202230321CDE905230523CDE9081328
:1046A00005A9D6E7003C004000380240000802405F
:1046B000000C024000500140001402402DE9F0417E
:1046C00086B01422002101A81BF06FFA2B4B1C6846
:1046D000002C4FD14FF00108C3F80080284B009404
:1046E0009A6B284842EA08029A639B6B03EA080324
:1046F0000093022703260C25009B01A94FF63F03D8
:10470000CDE90137CDE9046501F05AFA01A91E4847
:104710000595CDE90187CDE9034601F051FA48F24C
:10472000331301A919480595CDE90137CDE90346B1
:1047300001F046FA4FF6837301A915480595CDE9B6
:104740000137CDE9034601F03BFA4CF2037301A9AE
:1047500010480595CDE90137CDE9034601F030FA5F
:10476000602301A90C480595CDE90137CDE9034641
:1047700001F026FA06B0BDE8F08100BF4C30002001
:1047800000380240001402400008024000180240B5
:1047900000100240000C024000040240012070475B
:1047A00008B51BF0ABF9162303604FF0FF3008BDCE
:1047B00008B51BF0A3F916230360FEE770B50E469B
:1047C00015460C46A31B9D4201DC284670BDAFF385
:1047D000008004F8010BF5E770B50E4615460C464F
:1047E000A31B9D4201DC284670BD14F8010BAFF3FA
:1047F0000080F5E74FF0FF3070474FF400534B60F7
:1048000000207047012070470020704738B50D46E2
:104810000446C8B190F82C3003F0FF021BB980F8B1
:104820002D20FFF74BFF022384F82C30211D206838
:1048300001F022F962682068294601F051F901234C
:1048400084F82C30002038BD0120FCE770B5054607
:1048500090F82C00C0B202280E4612D000F0FB04E3
:10486000012C0FD1022385F82C30286801F07AF949
:104870003368022B06BF052385F82C3085F82C40C1
:10488000002070BD0120FCE738B5044690F82C00EC
:10489000C0B202280DD094F82C50EDB2012D09D1F0
:1048A000022384F82C30206801F080F984F82C5021
:1048B000002038BD0120FCE72DE9F341044608B98A
:1048C000012041E00368DD0710D4236898075AD41B
:1048D00023681A0700F19C8023685B0700F1BA8007
:1048E000A069002840F01C8100202DE0A44B9A68AC
:1048F00002F00C02042A07D09A6802F00C02082A7F
:104900000AD15B68590207D59D4B1B689A03DCD519
:104910006368002BD9D1D3E76268994BB2F5803F29
:1049200015D11A6842F480321A606368F3B102F05C
:104930007FF8934D06462B689B03C6D402F078F8A7
:10494000801B6428F7D9032002B0BDE8F081B2F5DE
:10495000A02F1A6803D142F480221A60E1E722F402
:1049600080321A601A6822F48022DDE702F060F8D3
:10497000834D06462B689F03A7D502F059F8801B8C
:104980006428F7D9DFE77E4B9A6812F00C0F07D046
:104990009A6802F00C02082A11D15B685E020ED4FC
:1049A000774B1A68950702D5E268012A88D11A6800
:1049B000216922F0F80242EAC1021A6088E7E2683F
:1049C000704BB2B101221A6002F032F86C4D06460B
:1049D0002B68980707D52B68226923F0F80343EA70
:1049E000C2032B6074E702F023F8801B0228EFD982
:1049F000A9E71A6002F01CF8614D06462B6899077A
:104A00007FF566AF02F014F8801B0228F6D99AE70A
:104A100062695D4B7AB101221A6002F009F8584DC3
:104A200006466B6F9F073FF557AF02F001F8801BFA
:104A30000228F6D987E71A6001F0FAFF504D0646C2
:104A40006B6F98077FF548AF01F0F2FF801B0228DB
:104A5000F6D978E74A4B1A6C12F080522BD10192AA
:104A60001A6C42F080521A641B6C03F0805301935D
:104A7000019B0126454D2B68D9051ED5A268404BE8
:104A8000012A2AD11A6F42F001021A67A368002B8B
:104A900037D001F0CDFF3A4D074641F288382B6FF1
:104AA0009B0728D5002E3FF41BAF354A136C23F02B
:104AB0008053136414E70026DCE72B6843F480730B
:104AC0002B6001F0B5FF07462B68DA05D6D401F05C
:104AD000AFFFC01B0228F7D935E7052A1A6F03D1AB
:104AE00042F004021A67CDE722F001021A671A6F3A
:104AF00022F00402C9E701F09BFFC01B4045CED95C
:104B000021E701F095FF1E4D074641F288382B6FD3
:104B10009807C7D501F08CFFC01B4045F7D912E7B5
:104B2000174DAB6803F00C03082B46D0184E00233A
:104B30000228336034D101F07BFF07462B689901CE
:104B400028D4D4E907321343626A43EA8213E26A43
:104B500043EA0263A26A0A4C5208013A43EA02435A
:104B60006B600123336001F063FF054623689A01FF
:104B70003FF5BAAE01F05CFF401B0228F6D9E2E631
:104B80000038024000004742800E4742007000405B
:104B90006000474201F04CFFC01B0228CED9D2E68C
:104BA00001F046FF04462B689B017FF59DAE01F0A6
:104BB0003FFF001B0228F6D9C5E601283FF4C4AE2A
:104BC0006B68E26903F4800191427FF479AE216A57
:104BD00003F03F028A427FF473AE616A47F6C07207
:104BE0001A40B2EB811F7FF46BAEA26A520803F445
:104BF0004031013AB1EB024F7FF462AEE26A03F05A
:104C00007063B3EB026F14BF012000209CE600BF6D
:104C100008B513498B6803F00C03042B03D0082B51
:104C200003D0104800E0104808BD4A684B68496846
:104C300013F4800314BF0C480A48C1F3881118BF4D
:104C4000002302F03F02A1FB0001FBF7EFFE044B43
:104C50005B68C3F3014301335B00B0FBF3F0E3E7B0
:104C6000003802400024F40000127A002DE9F041DF
:104C70000D46044610B90120BDE8F081454B1A6885
:104C800002F00F028A422AD323689E072FD423689A
:104C9000D90743D43F4B1A6802F00F02AA4268D8E2
:104CA00023685A076ED423681B0707D53A4A21693F
:104CB000936823F4604343EAC1039360FFF7A8FFBE
:104CC000354B364A9B68C3F30313D35CD840344B4F
:104CD0001860344B1868FEF763FF0020CCE7CAB2B7
:104CE0001A701B6803F00F038B42C4D1CCE758073E
:104CF00041BF294A936843F4E05393602368264AEE
:104D000013F0080F1EBF936843F4604393609368E9
:104D1000A16823F0F0030B439360B8E762681E4B71
:104D2000012A1CD11B6813F4003FA4D01A4EB368AB
:104D300023F003031343B36001F07AFE41F2883895
:104D40000746B368626803F00C03B3EB820FA1D08F
:104D500001F06EFEC01B4045F3D903208CE7911E85
:104D600001291B6802D813F0007FDEE713F0020F61
:104D7000DBE7EAB21A701B6803F00F03AB427FF463
:104D80007AAF8DE7044AE168936823F4E0530B435C
:104D9000936088E7003C024000380240601C020833
:104DA0000C0000201C000020044B054A9B68C3F344
:104DB0008223D35C034A1068D84070470038024011
:104DC000701C02080C0000200F2303600B4B9A6834
:104DD00002F0030242609A6802F0F00282609A6870
:104DE00002F4E052C2609B68DB0803F4E053036105
:104DF000034B1B6803F00F030B6070470038024041
:104E0000003C02407047000090F83D30012B31D14A
:104E10000268022380F83D30D36843F00103D36079
:104E20000368154A93421AD0B3F1804F17D0A2F508
:104E30007C42934213D002F5806293420FD002F578
:104E4000806293420BD002F57842934207D002F57C
:104E50007052934203D0A2F59432934204D19A68DF
:104E600002F00702062A03D01A6842F001021A6013
:104E700000207047012070470000014070477047D4
:104E80007047704710B503681A69910704460FD53B
:104E9000DA6892070CD56FF002021A6101230377DA
:104EA00003689B699B077AD0FFF7E9FF002323770C
:104EB00023681A69500711D5DA6851070ED56FF0CB
:104EC00004021A610223237723689B6913F4407F4D
:104ED00020466AD0FFF7D3FF0023237723681A699F
:104EE000120710D5DA6810070DD56FF008021A61A5
:104EF000042323772368DB69990720465BD0FFF7FB
:104F0000BEFF0023237723681A69D20611D5DA6819
:104F1000D0060ED56FF010021A610823237723689C
:104F2000DB6913F4407F20464BD0FFF7A8FF002336
:104F3000237723681A69D10708D5DA68D20705D51F
:104F40006FF001021A612046FFF770F923681A69B1
:104F5000100608D5DA68110605D56FF080021A61CF
:104F6000204600F033FD23681A69520608D5DA6836
:104F7000500605D56FF040021A612046FFF781FF09
:104F800023681A69910622D5DA6892061FD56FF058
:104F900020021A612046BDE8104000F016BDFFF760
:104FA0006DFF2046FFF76CFF80E7FFF767FF2046A5
:104FB000FFF766FF90E7FFF761FF2046FFF760FF0E
:104FC0009FE7FFF75BFF2046FFF75AFFAFE710BDF3
:104FD000304A0368904212D0B0F1804F0FD0A2F552
:104FE0007C4290420BD002F58062904207D002F5DD
:104FF0008062904203D002F57842904219D14A680B
:1050000023F070031343234A904229D0B0F1804F1C
:1050100026D0A2F57C42904222D002F580629042D6
:105020001ED002F5806290421AD002F5784290427A
:1050300016D0194A904213D002F5806290420FD0E8
:1050400002F5806290420BD0A2F59832904207D0D0
:1050500002F58062904203D002F58062904203D153
:10506000CA6823F4407313434A6923F0800313434F
:1050700003608B68C3620B688362064B984203D05F
:1050800003F58063984201D10B69036301234361F7
:10509000704700BF000001400040014010B50446C9
:1050A00030B390F83D3003F0FF021BB980F83C208C
:1050B000FFF7A8FE022384F83D302068211DFFF78A
:1050C00087FF012384F84630002084F83E3084F8BE
:1050D0003F3084F8403084F8413084F8423084F81E
:1050E000433084F8443084F8453084F83D3010BDB6
:1050F0000120FCE701684B6913F480634FF0000264
:1051000010D06FF480634B612023026380F83D3040
:1051100080F83E20036C80F83C2043F004030364D5
:1051200001207047184670472DE9F04104461646A5
:1051300098468FB22568686937EA000018D06B6915
:105140005A0517D52B6843F400732B6023686FF45E
:1051500080625A6100232022236384F83D2084F872
:105160003E30226C42F00402226484F83C3001207C
:10517000BDE8F081731CDED001F05AFCA0EB080002
:10518000B04201D8002ED5D100232022236384F819
:105190003D2084F83E30226C42F02002E4E770B5F6
:1051A00004460D46164623685B695B0701D500205F
:1051B00070BD2046FFF79EFFA8B96A1CF3D001F02E
:1051C00037FC801BA84201D8002DECD100232022FF
:1051D000236384F83D2084F83E30226C84F83C3010
:1051E00042F0200222640120E2E770B504460D4639
:1051F00016462068436913F0400301D0002010E0F8
:105200004269D2060ED56FF010024261202223635C
:1052100084F83D2084F83E30226C226484F83C30CF
:10522000012070BD01F004FC801BA84201D8002DB4
:10523000DFD100232022236384F83D2084F83E3010
:10524000226C42F02002E8E72DE9F843089E04466C
:1052500090461F464FEA11498DB22168B9F1010FFE
:105260000CBF4B698B6935EA03030CBF0123002394
:10527000984501D0002016E07B1CEFD001F0D8FB50
:10528000801BB84201D8002FE7D1002320222363DE
:1052900084F83D2084F83E30226C84F83C3042F0A3
:1052A000200222640120BDE8F88370B504460D4653
:1052B000164623685B691B0601D5002070BD204699
:1052C000FFF718FFA8B96A1CF3D001F0B1FB801BEF
:1052D000A84201D8002DECD100232022236384F8BA
:1052E0003D2084F83E30226C84F83C3042F02002AD
:1052F00022640120E2E700002DE9FF411546026823
:105300000B9E9846136843F4807313600F460A9B04
:10531000009600224FF001110446FFF795FF236825
:1053200038B11B68DB0502D54FF4007323640320FA
:105330000AE007F0FE071F610A9A19493346204622
:10534000FFF7F2FE18B1012004B0BDE8F081236838
:1053500003905A6903929B69039332460A99039B0F
:105360002046FFF7A2FF40B1236C042B01BF226847
:10537000136843F400731360E5E7B8F1010F236885
:1053800002D1EDB21D61DFE72A0A1A610A9932469D
:105390002046FFF78AFF0028E6D12368F1E700BF27
:1053A000020001002DE9FF41164602680B9D984658
:1053B000136843F4806313600268136843F48073D6
:1053C00013600F460A9B009500224FF0011104461E
:1053D000FFF73AFF236848B11B68DB0502D54FF49D
:1053E00000732364032004B0BDE8F081FFB207F02E
:1053F000FE021A6129490A9A2B462046FFF794FEBD
:1054000008B10120EFE7236803905A6903929B6972
:1054100003932A460A99039B2046FFF746FF40B1B3
:10542000236C042B01BF2268136843F400731360DC
:10543000E7E7B8F1010F236825D1F6B21E612A46CD
:105440000A992046FFF731FF02460028E8D121687B
:105450000B6843F480730B6020460A9B00954FF065
:105460000111FFF7F1FE23680028B5D147F00107CD
:105470001F610A9A09492B462046FFF755FE003066
:1054800018BF0120AFE7320A1A610A992A4620465E
:10549000FFF70BFF0028C3D12368CEE7020001000D
:1054A00070B5044608B9012070BD90F83D3003F096
:1054B000FF021BB980F83C20FEF750FF226824232E
:1054C00084F83D30136823F00103136022681368E9
:1054D00043F4004313602268136823F4004313600D
:1054E000FFF762FC424B62689A4294BF414B424BC9
:1054F00098428CBF00230123002BD4D122683F495E
:105500005368B0FBF1F123F03F030B43536066682F
:10551000374B25689E4288BF4FF496732A6A8ABF2C
:105520004B434B1C4FF47A7122F03F0284BFB3FB14
:10553000F1F3013313432B6221686368CA692C4D70
:1055400022F44F42AB4222F0FF0200F1FF3035D887
:105550005B00B0FBF3F0431CC3F30B03042B38BF19
:1055600004231343CB612168D4E907300A6803435D
:1055700022F0C00213430B602168D4E903038A6858
:1055800022F40342034322F0FF0213438B6021689D
:10559000D4E90530CA68034322F0FF021343CB600D
:1055A0002268136843F00103136000202023206465
:1055B00084F83D30206384F83E0075E7A56855B94E
:1055C00003EB4303B0FBF3F0431CC3F30B036BB1DA
:1055D00043F40043C5E719256B43B0FBF3F0431CCC
:1055E000C3F30B0313B143F44043BAE70123B8E715
:1055F000A08601007F841E00FF083D0040420F008E
:105600002DE9F743044699460F4690460C9E01F05B
:105610000FFA94F83D30202B054603D0022003B04A
:10562000BDE8F0830090192301223D492046FFF791
:105630000BFE0028F2D194F83C30012BEED0012370
:1056400084F83C3023681A68D2075EBF1A6842F0BB
:1056500001021A602268136823F400631360212397
:1056600084F83D30402384F83E30002323640A9BB5
:105670006362BDF82C306385638D2385294BE3621B
:10568000CDE900654B46424639462046FFF734FED9
:1056900000282DD00120C2E7FFF707FE40B1236CA0
:1056A000042B01BF2268136843F400731360F1E711
:1056B000626A236812781A61616A628D4B1C6362A8
:1056C000238D013A92B2013B62859BB22268238509
:1056D000506940070CD55BB14B781361636A0133A5
:1056E0006362238D013B2385638D013B9BB2638500
:1056F000238D2A4631462046002BCDD1FFF74FFDA2
:105700000028CCD12268136843F40073136020236F
:1057100084F83D3084F83C0084F83E007FE700BF09
:10572000020010000000FFFF2DE9F043044687B09F
:1057300099460D469046109F01F07AF994F83D3055
:10574000202B064604D00225284607B0BDE8F0838A
:1057500000901923012278492046FFF775FD0028A3
:10576000F1D194F83C30012BEDD0012384F83C308A
:1057700023681A68D0075EBF1A6842F001021A60F7
:105780002268136823F400631360222384F83D30F9
:10579000402384F83E30002323640E9B6362BDF8EF
:1057A0003C306385638D2385644BE3622946CDE9F4
:1057B00000764B4642462046FFF7F4FD054608B109
:1057C0000125C1E7228D2368B2B902905A6902927D
:1057D0009A690292029A1A6842F400721A60DFF81B
:1057E0006081238D002B2FD1202284F83D2084F866
:1057F0003C3084F83E30A7E7012A0BD11A6822F426
:1058000080621A60236803905A6903929A6903922E
:10581000039AE0E7022A10D11A6822F480621A6023
:105820002268136843F400631360236804905A6984
:1058300004929B690493049BD1E705905A690592F1
:105840009B690593059BCAE7032B58D8012B15D1FB
:10585000324639462046FFF7C8FC0028B0D12368FD
:105860001A69636A1A70636A01336362238D013BAC
:105870002385638D013B9BB26385B2E7022B0096C3
:105880003B464FF00002414620461AD1FFF7DCFCB0
:10589000002895D12268136843F4007313602368CD
:1058A0001A69636A1A70626A531C6362238D013B32
:1058B0002385638D013B9BB2638523681B6953700D
:1058C000D1E7FFF7C1FC024600287FF479AF2168D9
:1058D0000B6823F480630B6023681969636A19708D
:1058E000636A009601336362238D013B2385638DD8
:1058F000013B9BB2638541463B462046C6E73246A4
:1059000039462046FFF771FC00287FF459AF236821
:105910001A69636A1A70626A531C6362238D013BC1
:105920002385638D013B9BB26385236859694907D1
:105930007FF557AFC2E700BF020010000000FFFF75
:105940000400010010B590F83D30DBB2202B19D1D6
:105950000468242280F83D20226822F0010222609F
:105960000468626A22F0100262620468626A11438B
:10597000616201680A6842F001020A6080F83D3005
:10598000002010BD0220FCE730B590F83D20D2B2D7
:10599000202A18D10568242380F83D302C6824F093
:1059A00001042C600468656A4FF6F0732B400B43CA
:1059B0009BB2636201680B6843F001030B6080F8DF
:1059C0003D20002030BD0220FCE7704770470000FA
:1059D000074AD36823F4E0631B041B0C43F0BF6346
:1059E000000243F4003300F4E0600343D3607047E7
:1059F00000ED00E070B5174BDC68C4F30224C4F17D
:105A00000705042D04F1040328BF04254FF0FF36D9
:105A1000062B06FA05F38CBF033C002421EA03039E
:105A2000A34006FA04F422EA0404002843EA04032B
:105A3000A8BF00F160404FEA0313BCBF00F00F00A5
:105A4000054ADBB2AABF00F56140135480F8003369
:105A500070BD00BF00ED00E014ED00E0002808DBA1
:105A60004209012300F01F0003FA00F0014B43F844
:105A70002200704700E100E030B5D1E907340A6840
:105A80004D6A2343154C92B902682B4322401343BD
:105A90004A6813438A681343CA6813430A69134365
:105AA0004A6913438A6913430360002030BD0268CA
:105AB0002B4322F4F8421343036043684A682340AF
:105AC00013438A681343CA6813430A6913434A6934
:105AD00013438A6913434360E7E700BF0080FFFF79
