:020000040800F2
:100000000000032019A700084554000847540008C1
:10001000495400084B5400084D54000800000000EB
:10002000000000000000000000000000219F000808
:100030004F54000800000000B19F000815A0000800
:1000400069A7000869A7000869A7000869A7000850
:1000500069A7000869A7000869A7000869A7000840
:1000600069A7000869A7000869A7000869A7000830
:1000700069A7000869A7000869A7000869A7000820
:1000800069A7000869A7000869A7000869A7000810
:1000900069A7000869A7000869A7000869A7000800
:1000A00069A7000869A7000869A7000869A70008F0
:1000B00069A7000869A7000869A7000869A70008E0
:1000C00069A7000869A7000869A7000869A70008D0
:1000D00069A7000869A7000869A7000869A70008C0
:1000E00069A7000869A7000869A7000869A70008B0
:1000F00069A7000869A7000869A7000869A70008A0
:1001000069A7000869A7000869A7000869A700088F
:1001100069A7000869A700085154000869A70008EA
:1001200069A7000869A7000869A7000869A700086F
:1001300069A7000869A7000869A7000869A700085F
:1001400069A7000869A7000869A7000869A700084F
:1001500069A7000869A7000869A7000869A700083F
:1001600069A7000869A7000869A7000869A700082F
:1001700069A7000869A7000869A700080000000037
:1001800069A7000869A7000869A7000869A700080F
:1001900069A7000869A7000869A7000869A70008FF
:0C01A0005D54000869A7000869540008BD
:1001B00010B5054C237833B9044B13B10448AFF3A1
:1001C00000800123237010BD6001002000000000AA
:1001D0004826020808B5034B1BB103490348AFF397
:1001E000008008BD000000006401002048260208CD
:1001F00053B94AB9002908BF00281CBF4FF0FF318E
:100200004FF0FF3000F072B9ADF1080C6DE904CE8B
:1002100000F006F8DDF804E0DDE9022304B07047E1
:100220002DE9F047089E04468846002B4BD18A42B0
:10023000154667D9B2FA82F24AB1C2F1200701FA33
:1002400002F320FA07F7954047EA030894404FEA83
:10025000154E230CB8FBFEF71FFA85FC0EFB178822
:1002600043EA084307FB0CF1994209D9EB1807F15F
:10027000FF3080F01B81994240F21881023F2B44ED
:100280005B1AA4B2B3FBFEF00EFB103344EA034446
:1002900000FB0CFCA44509D92C1900F1FF3380F0B8
:1002A0000781A44540F2048102382C4440EA07400B
:1002B000A4EB0C0400271EB1D4400023C6E9004380
:1002C0003946BDE8F0878B4209D9002E00F0EB805B
:1002D0000027C6E9000138463946BDE8F087B3FA81
:1002E00083F7002F47D18B4202D3824200F2FA807B
:1002F000841A61EB030301209846002EE0D0C6E982
:100300000048DDE702B9FFDEB2FA82F2002A40F0CF
:100310008F80491B4FEA154E1FFA85F80127B1FB64
:10032000FEFC230C0EFB1C1143EA014308FB0CF1FD
:10033000994207D9EB180CF1FF3002D2994200F232
:10034000CD808446591AA3B2B1FBFEF00EFB101407
:1003500043EA044408FB00F8A04507D92C1900F132
:10036000FF3302D2A04500F2B6801846A4EB080481
:1003700040EA0C409FE7C7F1200CBB4022FA0CFE7C
:100380004EEA030E01FA07F420FA0CF521FA0CF3F9
:100390004FEA1E482543B3FBF8F92C0C08FB193330
:1003A0001FFA8EFA44EA034309FB0AF49C4202FA5C
:1003B00007F200FA07F10BD91EEB030309F1FF3036
:1003C00080F087809C4240F28480A9F10209734446
:1003D0001B1BADB2B3FBF8F008FB103345EA034436
:1003E00000FB0AFAA24508D91EEB040400F1FF3312
:1003F0006BD2A24569D90238744440EA0940A0FB97
:100400000289A4EB0A044C45C2464B4654D351D052
:10041000002E69D0B1EB0A0564EB030404FA0CFC6E
:10042000FD40FC404CEA0505C6E90054002747E7BB
:10043000C2F1200320FA03F7954001FA02F021FAF5
:1004400003F34FEA154E3843010CB3FBFEF71FFAD6
:1004500085F80EFB173341EA034107FB08F38B4293
:1004600004FA02F407D9691807F1FF3C2FD28B4236
:100470002DD9023F2944CB1A81B2B3FBFEF00EFB0B
:10048000103341EA034100FB08F38B4207D9691896
:1004900000F1FF3C17D28B4215D902382944C91A02
:1004A00040EA07473BE73746304609E70746E7E6B5
:1004B0001846FBE64145ABD2B8EB020A69EB0E02E7
:1004C00001381346A4E76046E9E7184695E7674612
:1004D000D1E781467CE702382C4447E7ACF1020CB7
:1004E0002B442FE7384608E73746E9E6704700BF58
:1004F00001F0FF01102A2BDB10F0070F08D010F8D5
:10050000013B013A8B422DD010F0070F42B3F6D1D8
:10051000F0B441EA012141EA014122F007047FF0F1
:1005200000070023F0E80256083C85EA010586EA48
:10053000010685FA47F5A3FA87F586FA47F6A5FA84
:1005400087F68EB9EED1F0BC01F0FF0102F0070290
:1005500032B110F8013B013A83EA010313B1F8D13B
:100560000020704701387047002D06BF354603381C
:10057000073815F0010F07D1013015F4807F02BF55
:10058000013015F4C03F0130F0BC0138704700BFA6
:10059000704704387047704710B51021044620F0AA
:1005A000D5F9204610BDA0F10400F5E710B50022F2
:1005B0008260044AC16002F1080420320460426093
:1005C00010BD00BFA02602087047704770477047F3
:1005D00000F0B2BC38B52DED028B41F2D872044662
:1005E000835801338350DA074ED407EE903A9FEDDB
:1005F000280AF8EE677A00F1CC0527EE800A20F091
:10060000A9F9B0EE408A21F017FC0A2390FBF3F21F
:1006100002FB130007EE900AF8EEE76ADFED1D7AA1
:10062000B2EE047AE8EE077A36EEA77AD4ED407A95
:10063000F8EEE77A67EE277AF5EEC07AF1EE10FA77
:100640000EDBB6EE007A77EE877AFDEEE77A17EEEC
:10065000901ABDEC028B2846BDE838400CF0DDBA9C
:10066000BDEEE77AF8EEC76A17EE103A77EEE67A53
:10067000F7EE086A77EEA67A591EFDEEE77A17EED6
:10068000903A0B441946E4E7BDEC028B38BD00BF3D
:10069000295C8F3D0000484210B541F2DC710446F0
:1006A00020F054F9204610BD10B5044600F0A4FD1A
:1006B000034B236041F2D8730022E250204610BD64
:1006C000D02602080022026070477047704700F58C
:1006D00096730868496803C37047704703F064BAAB
:1006E00010B54FF4AC71044620F030F9204610BD2F
:1006F00010B50446D0F85401FFF7E7FF2046BDE8E7
:1007000010400FF003BA10B50446D0F83C0158B1C0
:100710000368DB68984738B1D4F83C0103689B68EC
:1007200098470023C4F83C3110BD000010B50446C2
:1007300003F002FA014B2360204610BD0427020893
:1007400090F8252012B103685B69184770470020B4
:10075000704781807047C180704701817047418137
:10076000704770477047704770477047C38810B430
:10077000D21A83885DF8044BC91A036812B25B6D04
:1007800009B218474FF6FF7383814FF0FF330362BE
:100790001368C36110607047806A70477047704784
:1007A000704790F825201AB190F8242002B1186003
:1007B000704780F82C10704710B40468036BD4F8AD
:1007C000A4405A43594323465DF8044B1847D0EDE3
:1007D0000C7A0368F8EEE77AD3F8A43020EE270A03
:1007E000B5EEC00AF1EE10FA17DBB6EE007A30EE85
:1007F000070ABDEEC07A17EE101A60EEA70AF5EEF2
:10080000C00AF1EE10FA1CDBF6EE007A70EEA70AD1
:10081000FDEEE07A17EE902A1847BDEEC07AF8EEAA
:10082000C76A17EE102A30EE660AF7EE086A30EE55
:10083000260A511EBDEEC00A10EE102A0A441146C7
:10084000DBE7FDEEE07AB8EEE77A17EE902A70EE7D
:10085000C70AB7EE087A70EE870A013AFDEEE00AA1
:1008600010EE90CA94446246D6E710B40368046B55
:10087000D3F8B03062435DF8044B1847D0ED0C7AE2
:100880000368F8EEE77AD3F8B03027EE800AB5EEC9
:10089000C00AF1EE10FA08DBF6EE007A30EE270A15
:1008A000FDEEC07A17EE902A1847FDEEC07AB8EE3A
:1008B000E77A17EE902A30EE470AB7EE087A30EE64
:1008C000070A013ABDEEC00A10EE10CA944462460F
:1008D000EAE710B40468436BD4F8BC405A43594368
:1008E00023465DF8044B1847D0ED0D7A0368F8EE07
:1008F000E77AD3F8BC3020EE270AB5EEC00AF1EE55
:1009000010FA17DBB6EE007A30EE070ABDEEC07AB9
:1009100017EE101A60EEA70AF5EEC00AF1EE10FA13
:100920001CDBF6EE007A70EEA70AFDEEE07A17EE19
:10093000902A1847BDEEC07AF8EEC76A17EE102A63
:1009400030EE660AF7EE086A30EE260A511EBDEE5A
:10095000C00A10EE102A0A441146DBE7FDEEE07AE9
:10096000B8EEE77A17EE902A70EEC70AB7EE087A6B
:1009700070EE870A013AFDEEE00A10EE90CA944448
:100980006246D6E710B40368446BD3F8C0306243C4
:100990005DF8044B1847D0ED0D7A0368F8EEE77A5E
:1009A000D3F8C03027EE800AB5EEC00AF1EE10FA97
:1009B00008DBF6EE007A30EE270AFDEEC07A17EE7D
:1009C000902A1847FDEEC07AB8EEE77A17EE902A23
:1009D00030EE470AB7EE087A30EE070A013ABDEE6C
:1009E000C00A10EE10CA94446246EAE7D0F82C31EF
:1009F000026B002B07DB02EB4300022390FBF2F0BB
:100A000090FBF3F070476FF0010000FB032001380A
:100A1000022390FBF2F090FBF3F040427047D0EDE0
:100A20004B7A90ED0C0AF8EEE77AB8EEC00A87EE42
:100A3000800A7047D0F82C017047D0F83031026B33
:100A4000002B07DB02EB4300022390FBF2F090FB4C
:100A5000F3F070476FF0010000FB03200138022320
:100A600090FBF2F090FBF3F040427047D0ED4C7AEF
:100A700090ED0C0AF8EEE77AB8EEC00A87EE800A2D
:100A80007047D0F830017047D0F83431426B002BFA
:100A900007DB02EB4300022390FBF2F090FBF3F044
:100AA00070476FF0010000FB03200138022390FB28
:100AB000F2F090FBF3F040427047D0ED4D7A90EDAC
:100AC0000D0AF8EEE77AB8EEC00A87EE800A7047A2
:100AD000D0F834017047D0F83831426B002B07DB77
:100AE00002EB4300022390FBF2F090FBF3F070471F
:100AF0006FF0010000FB03200138022390FBF2F0AD
:100B000090FBF3F040427047D0ED4E7A90ED0D0A25
:100B1000F8EEE77AB8EEC00A87EE800A7047D0F8A0
:100B20003801704770B503680446D3F888300D4625
:100B3000164698472368324629462046D3F8903017
:100B4000BDE8704018470368D3F89430184703682D
:100B5000D3F8D43018470368D3F8E030184710B4FE
:100B60000368046BD3F8A430002A0EDB04EB4201C7
:100B7000022291FBF4F191FBF2F1B0F91E215DF834
:100B8000044B013A0A44494218476FF0010101FB46
:100B900002410139022291FBF4F191FBF2F1494249
:100BA000EBE70368D3F83C311847026B0368514305
:100BB000D3F8483118470368D3F844311847D0EDCB
:100BC0000C7A0368F8EEE77AD3F8483127EE800A0A
:100BD000B5EEC00AF1EE10FA08DBF6EE007A30EE60
:100BE000270AFDEEC07A17EE901A1847FDEEC07A7C
:100BF000B8EEE77A17EE902A30EE470AB7EE087A99
:100C000030EE070A511EBDEEC00A10EE102A0A444B
:100C10001146EAE7C0F83C1170470368D3F8503139
:100C2000184710B50368D3F85C310446984700288C
:100C3000236B07DB03EB400090FBF3F0022390FBF8
:100C4000F3F010BD6FF0010202FB0030013890FBA1
:100C5000F3F0022390FBF3F04042F2E70368D3F88D
:100C60005831184710B50368D3F85C3104469847EB
:100C700094ED0C0A07EE900AB8EEC00AF8EEE77A97
:100C800087EE800A10BDD0F83C017047026B036804
:100C90005143D3F868311847D0ED0C7A0368F8EE69
:100CA000E77AD3F8683127EE800AB5EEC00AF1EE94
:100CB00010FA08DBF6EE007A30EE270AFDEEC07A75
:100CC00017EE901A1847FDEEC07AB8EEE77A17EEE5
:100CD000902A30EE470AB7EE087A30EE070A511E26
:100CE000BDEEC00A10EE102A0A441146EAE7C0F829
:100CF0004011704710B50368D3F874310446984723
:100D00000028236B07DB03EB400090FBF3F002238A
:100D100090FBF3F010BD6FF0010202FB00300138D0
:100D200090FBF3F0022390FBF3F04042F2E710B5A2
:100D30000368D3F874310446984794ED0C0A07EE23
:100D4000900AB8EEC00AF8EEE77A87EE800A10BD86
:100D5000D0F8400170470846704710B50368026B31
:100D6000D3F884310029044610DB02EB410191FBEA
:100D7000F2F1022291FBF2F109B220469847D4F831
:100D80003C21D4F8403102FB003010BD6FF001006F
:100D900000FB0121013991FBF2F1022291FBF2F1FA
:100DA0004942E9E7006B7047406B70470368D3F82E
:100DB000483118470368D3F85C311847026B036861
:100DC0005143D3F81431184770B50368D0F8446123
:100DD000D3F81851D3F88031044698472B4656F87B
:100DE00020102046BDE870401847D0F84831B0F9CF
:100DF0001E011944081A704780F82610704790F8B1
:100E00002600704701637047006B704701207047F0
:100E100070477047006C18B10368D3F884301847E6
:100E2000704730B5B2F91441B2F81A11B2F9405016
:100E3000B2F8422044802144521A0021018085806A
:100E4000C28030BD10B54280BDF90840BDF90C200C
:100E500004808280C38010BD0B680846D3F8D4306C
:100E600018470B680846D3F8E0301847B1F9140169
:100E70007047B1F81401B1F81A310344B1F84200D7
:100E8000C01A00B27047B1F916017047B1F81601E7
:100E9000B1F818310344B1F84000C01A00B27047ED
:100EA0000B680846D3F814311146184730B5B2F92B
:100EB0001651B2F8181105806C18B2F84010B2F94A
:100EC0004220C280091B00244480818030BD028002
:100ED0008380BDF90020BDF904304280C380704793
:100EE0000B680846D3F8EC3018470B680846D3F86F
:100EF000F8301847B1F916017047B1F81601B1F88A
:100F000018310344B1F84000C01A00B27047B1F97B
:100F100014017047B1F81401B1F81A310344B1F863
:100F20004200C01A00B270470B680846D3F8183167
:100F300011461847704770477047704770477047B1
:100F400010B5082104461FF001FD204610BD10B564
:100F50004FF4377104461FF0F9FC204610BD10B560
:100F6000442104461FF0F2FC204610BD10B5442178
:100F700004461FF0EBFC204610BD10B541F2D871BD
:100F800004461FF0E3FC204610BD90F82C300BB156
:100F900009F0AEBC704700000A1E10B503DBB0F9C3
:100FA0001E41944206DC084B084A094840F2316170
:100FB00020F022FB0368D0F84441D3F880319847F1
:100FC00054F8200010BD00BF222B0208582C020844
:100FD000452B02080B1E10B5044603DBB0F91E2199
:100FE0009A4206DC084B094A094840F22B6120F07E
:100FF00003FB0368D3F884319847D4F83C21D4F834
:10100000403102FB003010BD222B0208092C0208DF
:10101000452B020838B50A68D0E90D54D2F88C2067
:1010200008469047294602462046BDE838400BF066
:1010300091BD38B50A68D0E90D54D2F8942008461D
:101040009047294602462046BDE838400BF082BD55
:101050002DE9F0411E460368BDF918501B6B04468C
:10106000174698472368394620465B6B98472368A4
:10107000314620469A6B9047236829462046DB6B11
:10108000BDE8F04118470000012180F825100B4908
:1010900001600022FF218280C28002814281828120
:1010A000C28102824282C0E90522C2610284428476
:1010B00080F8242080F8261082627047584C02087D
:1010C00037B501AB15460FF06FFF00284FEA40140B
:1010D0002A4601994FF0200004DB0FF084FF2044E2
:1010E00003B030BD0FF07FFF201AF9E738B5B0F933
:1010F0001441B0F81A51D0F838216319B0F84250B1
:10110000ED1AD0F834312DB2C81AD21A691EFFF781
:10111000D7FF2C44013CC0EB441038BD38B5044621
:10112000D0F82C51B0F81631D0F83021B0F81801B1
:101130001844B4F840301B1A1BB2481B521B591EEE
:10114000FFF7BEFFB4F9163100EB431038BD0000C5
:1011500070B5FF2200230272124E134A0260C0E9EA
:1011600003333268436092F87610044609B1D06CBC
:1011700000B990680368DB6A98473368B0FA80F575
:10118000D86C6D0928B10368DB6A9847002808BF4E
:1011900001252DB9054B064A06482C2120F02CFAD2
:1011A000204670BD8037012048430208682A0208A3
:1011B000D02B0208C62A020810B504460BF068F8C6
:1011C0000B4A226000230122C4E90D23094AE2638D
:1011D0004FF6FF72A4F840202E22236384F8443097
:1011E000A4F84630A4F84820E364204610BD00BFB0
:1011F000844B0208C82802082DE9F04F04468DB040
:10120000A146002610F09AF8E94BE66349F8403B06
:101210004846FFF739FF0DF1300A04F16C030293E1
:101220004FF6FF732AF8043D0127E24AE266514671
:10123000A4F8923084F894300298A4F87060A4F86E
:101240007260A4F87460A4F87660A4F87860A4F8DA
:101250007A60A4F87C60A4F87E60C4E92066C4F8D3
:101260008860A4F88C60A4F88E6084F8906084F89C
:1012700091700CF0C5FF04F19803184604F1CC05F9
:101280000393FFF701FFCC4BC4F898306421C4F8F6
:10129000C460A4F8C86028460BF0EAFBC74BC4F84A
:1012A000CC3004F5067363223146C4F81032284668
:1012B000C4F80872C4F80C62C4F81462FFF77CFA30
:1012C000BF4BC4F8CC3004F56A73184604930AF097
:1012D000DFFFBC4BC4F8A8334FF0020384F8D633C9
:1012E00004F5767318460993FFF732FFB64BC4F83E
:1012F000D83304F57C731846C4F8EC6305930AF000
:10130000C7FFB24BC4F8F0334FF00A0B04F234437A
:10131000C4F828B41846C4F82064C4F8247484F8C7
:101320002C74C4F8306406930AF0B2FFA84BC4F8DA
:10133000343404F58F63C4F86CB41846C4F864649C
:10134000C4F8687484F87074C4F874640793FFF781
:1013500033FFA04BC4F8783404F59963184608931A
:10136000FFF72AFF9C4BC4F8C8344FF4965104F59C
:10137000A3600CF0C3FFF0234FF07F483246009388
:1013800031464FF4A0734846FFF762FE514602987B
:10139000C4F868804FF0DE0A2667ADF82C600CF0C8
:1013A0002FFFCDF800A04FF499730922072103986D
:1013B000FFF74EFE4FF0FF33C4E930380523A4F8A1
:1013C000C830324642F210712846FFF7ABFBCDF829
:1013D00000A04FF49973092207212846FFF738FE31
:1013E0001423594600931722042328460BF0F2FADF
:1013F0000223009306223346314628460BF0EDF9CE
:10140000642231462846FFF764FA42F2107ADFF888
:10141000E4B1D4F82414D4F8280442F210720BF08A
:1014200099FB0599C4F824A42846C4F82084C4F87C
:1014300028B484F82C740BF0DBF95246D4F8681405
:10144000D4F86C040BF086FB0699C4F868A428460F
:10145000C4F86484C4F86CB484F870740BF0C8F9F0
:101460005246D4F8AC14D4F8B0040BF073FB0799CF
:10147000C4F8ACA42846C4F8B0B4A4F8B874C4F84E
:10148000A8840BF0D9F95246D4F8FC14D4F800051E
:101490000BF060FB0899C4F8FCA42846C4F800B51A
:1014A000A4F80865C4F8F8840BF0B4F94B4BC4F801
:1014B000EC33099904980AF0E7FD032384F8D63346
:1014C000049928460BF094F9D4ED407A9FED447AC4
:1014D000F8EEE77A67EE877AF5EEC07AF1EE10FA69
:1014E000C1F2B182B6EE007A77EE877AFDEEE77A46
:1014F00017EE901A28460BF090FBD4ED407A9FED42
:10150000397AF8EEE77A67EE877AF5EEC07AF1EE8F
:1015100010FAC1F2AD82B6EE007A77EE877AFDEE70
:10152000E77A17EE901A28460BF077FBD4ED407A55
:101530009FED2D7AF8EEE77A67EE877AF5EEC07ABE
:10154000F1EE10FAC1F2A982B6EE007A77EE877A50
:10155000FDEEE77A17EE901A28460BF05EFBD4ED0D
:10156000407A9FED227AF8EEE77A67EE877AF5EE19
:10157000C07AF1EE10FAC1F2A582B6EE007A77EEEB
:10158000877AFDEEE77A17EE901A28460BF045FBB6
:10159000D4ED407A9FED167AF8EEE77A67EE877A17
:1015A000F5EEC07AF1EE10FAC1F2A1824CE000BF74
:1015B000A42B0208284D0208C04C0208FC44020873
:1015C000D82802080C4902082843020850270208BC
:1015D0000C2802083C4A0208E04A0208C59714FF9A
:1015E00026E8B0425897C142C28AC542155BBB4249
:1015F000A1B3A442A086010021F2854242424A42A0
:1016000012191142C722D5416C1EB8417612CA4147
:1016100055A8FE41F9CD2042A9FE3D4288084D4221
:10162000502E4842E14F2F4286FF07421554B841E1
:1016300051965E41FB0115410A243041E1F19A4186
:101640002FF90442B8DC4842B6EE007A77EE877A8A
:10165000FDEEE77A17EE901A28460BF0DEFAD4ED8D
:10166000407A1FED1B7AF8EEE77A67EE877AF5EE9F
:10167000C07AF1EE10FAC1F24F82B6EE007A77EE40
:10168000877AFDEEE77A17EE901A28460BF0C5FA36
:10169000D4ED407A1FED277AF8EEE77A67EE877A85
:1016A000F5EEC07AF1EE10FAC1F24B82B6EE007A96
:1016B00077EE877AFDEEE77A17EE901A28460BF060
:1016C000ACFAD4ED407A1FED327AF8EEE77A67EEA5
:1016D000877AF5EEC07AF1EE10FAC1F24782B6EEE3
:1016E000007A77EE877AFDEEE77A17EE901A2846B1
:1016F0000BF093FAD4ED407A1FED3E7AF8EEE77ADC
:1017000067EE877AF5EEC07AF1EE10FAC1F2438205
:10171000B6EE007A77EE877AFDEEE77A17EE901A4A
:1017200028460BF07AFAD4ED407A1FED497AF8EEAC
:10173000E77A67EE877AF5EEC07AF1EE10FAC1F239
:101740003F82B6EE007A77EE877AFDEEE77A17EE03
:10175000901A28460BF061FAD4ED407A1FED557AC5
:10176000F8EEE77A67EE877AF5EEC07AF1EE10FAD6
:10177000C1F23B82B6EE007A77EE877AFDEEE77A29
:1017800017EE901A28460BF048FAD4ED407A1FED78
:10179000607AF8EEE77A67EE877AF5EEC07AF1EED6
:1017A00010FAC1F23782B6EE007A77EE877AFDEE54
:1017B000E77A17EE901A28460BF02FFAD4ED407A0C
:1017C0001FED6C7AF8EEE77A67EE877AF5EEC07A6D
:1017D000F1EE10FAC1F23382B6EE007A77EE877A34
:1017E000FDEEE77A17EE901A28460BF016FAD4EDC4
:1017F000407A1FED777AF8EEE77A67EE877AF5EEB2
:10180000C07AF1EE10FAC1F22F82B6EE007A77EECE
:10181000877AFDEEE77A17EE901A28460BF0FDF96D
:10182000D4ED407A1FED837AF8EEE77A67EE877A97
:10183000F5EEC07AF1EE10FAC1F22B82B6EE007A24
:1018400077EE877AFDEEE77A17EE901A28460BF0CE
:10185000E4F9D4ED407A1FED8E7AF8EEE77A67EE80
:10186000877AF5EEC07AF1EE10FAC1F22782B6EE71
:10187000007A77EE877AFDEEE77A17EE901A28461F
:101880000BF0CBF9D4ED407A1FED9A7AF8EEE77AB7
:1018900067EE877AF5EEC07AF1EE10FAC1F2238294
:1018A000B6EE007A77EE877AFDEEE77A17EE901AB9
:1018B00028460BF0B2F9D4ED407A1FEDA57AF8EE88
:1018C000E77A67EE877AF5EEC07AF1EE10FAC1F2A8
:1018D0001F82B6EE007A77EE877AFDEEE77A17EE92
:1018E000901A28460BF099F9D4ED407A1FEDB17AA1
:1018F000F8EEE77A67EE877AF5EEC07AF1EE10FA45
:10190000C1F21B82B6EE007A77EE877AFDEEE77AB7
:1019100017EE901A28460BF080F9D4ED407A1FEDAF
:10192000BC7AF8EEE77A67EE877AF5EEC07AF1EEE8
:1019300010FAC1F21782B6EE007A77EE877AFDEEE2
:10194000E77A17EE901A28460BF067F9D4ED407A43
:101950001FEDC87AF8EEE77A67EE877AF5EEC07A7F
:10196000F1EE10FAC1F21382B6EE007A77EE877AC2
:10197000FDEEE77A17EE901A28460BF04EF9D4EDFB
:10198000407A1FEDD37AF8EEE77A67EE877AF5EEC4
:10199000C07AF1EE10FAC1F20F82B6EE007A77EE5D
:1019A000877AFDEEE77A17EE901A28460BF035F9A4
:1019B000D4ED407A1FEDDF7AF8EEE77A67EE877AAA
:1019C000F5EEC07AF1EE10FAC1F20B82B6EE007AB3
:1019D00077EE877AFDEEE77A17EE901A28460BF03D
:1019E0001CF9D4ED407A1FEDEA7AF8EEE77A67EE5B
:1019F000877AF5EEC07AF1EE10FAC1F20782B6EE00
:101A0000007A77EE877AFDEEE77A17EE901A28468D
:101A10000BF003F9D4ED407A1FEDF67AF8EEE77A91
:101A200067EE877AF5EEC07AF1EE10FAC1F2038222
:101A3000B6EE007A77EE877AFDEEE77A17EE901A27
:101A400028460BF0EAF8D4ED407A9FEDFE7AF8EEE6
:101A5000E77A67EE877AF5EEC07AF1EE10FAC1F216
:101A6000FF81B6EE007A77EE877AFDEEE77A17EE21
:101A7000901A28460BF0D1F8D4ED407A9FEDF27A17
:101A8000F8EEE77A67EE877AF5EEC07AF1EE10FAB3
:101A9000C1F2FB81B6EE007A77EE877AFDEEE77A47
:101AA00017EE901A28460BF0B8F8D4ED407A9FED67
:101AB000E77AF8EEE77A67EE877AF5EEC07AF1EE2C
:101AC00010FAC1F2F781B6EE007A77EE877AFDEE72
:101AD000E77A17EE901A28460BF09FF8D4ED407A7B
:101AE0009FEDDB7AF8EEE77A67EE877AF5EEC07A5B
:101AF000F1EE10FAC1F2F381B6EE007A77EE877A52
:101B0000FDEEE77A17EE901A28460BF086F8D4ED32
:101B1000407A9FEDD07AF8EEE77A67EE877AF5EEB5
:101B2000C07AF1EE10FAC1F2EF81B6EE007A77EEEC
:101B3000877AFDEEE77A17EE901A28460BF06DF8DB
:101B4000D4ED407A9FEDC47AF8EEE77A67EE877AB3
:101B5000F5EEC07AF1EE10FAC1F2EB81B6EE007A42
:101B600077EE877AFDEEE77A17EE901A28460BF0AB
:101B700054F8D4ED407A9FEDB97AF8EEE77A67EE43
:101B8000877AF5EEC07AF1EE10FAC1F2E781B6EE8F
:101B9000007A77EE877AFDEEE77A17EE901A2846FC
:101BA0000BF03BF8D4ED407A9FEDAD7AF8EEE77A92
:101BB00067EE877AF5EEC07AF1EE10FAC1F2E381B2
:101BC000B6EE007A77EE877AFDEEE77A17EE901A96
:101BD00028460BF022F8D4ED407A9FEDA27AF8EE79
:101BE000E77A67EE877AF5EEC07AF1EE10FAC1F285
:101BF000DF81B6EE007A77EE877AFDEEE77A17EEB0
:101C0000901A28460BF009F8D4ED407A9FED967AA9
:101C1000F8EEE77A67EE877AF5EEC07AF1EE10FA21
:101C2000C1F2DB81B6EE007A77EE877AFDEEE77AD5
:101C300017EE901A28460AF0F0FFD4ED407A9FED97
:101C40008B7AF8EEE77A67EE877AF5EEC07AF1EEF6
:101C500010FAC1F2D781B6EE007A77EE877AFDEE00
:101C6000E77A17EE901A28460AF0D7FFD4ED407AAB
:101C70009FED7F7AF8EEE77A67EE877AF5EEC07A25
:101C8000F1EE10FAC1F2D381B6EE007A77EE877AE0
:101C9000FDEEE77A17EE901A28460AF0BEFFD4ED63
:101CA000407A9FED747AF8EEE77A67EE877AF5EE80
:101CB000C07AF1EE10FAC1F2CF81B6EE007A77EE7B
:101CC000877AFDEEE77A17EE901A28460AF0A5FF0C
:101CD000D4ED407A9FED687AF8EEE77A67EE877A7E
:101CE000F5EEC07AF1EE10FAC1F2CB81B6EE007AD1
:101CF00077EE877AFDEEE77A17EE901A28460AF01B
:101D00008CFFD4ED407A9FED5D7AF8EEE77A67EECE
:101D1000877AF5EEC07AF1EE10FAC1F2C781B6EE1D
:101D2000007A77EE877AFDEEE77A17EE901A28466A
:101D30000AF073FFD4ED407A9FED517AF8EEE77A1E
:101D400067EE877AF5EEC07AF1EE10FAC1F2C38140
:101D5000B6EE007A77EE877AFDEEE77A17EE901A04
:101D600028460AF05AFFD4ED407A9FED467AF8EE05
:101D7000E77A67EE877AF5EEC07AF1EE10FAC1F2F3
:101D8000BF81B6EE007A77EE877AFDEEE77A17EE3E
:101D9000901A28460AF041FFD4ED407A9FED3A7A36
:101DA000F8EEE77A67EE877AF5EEC07AF1EE10FA90
:101DB000C1F2BB81B6EE007A77EE877AFDEEE77A64
:101DC00017EE901A28460AF028FFD4ED407A9FEDCE
:101DD0002F7AF8EEE77A67EE877AF5EEC07AF1EEC1
:101DE00010FAC1F2B781B6EE007A77EE877AFDEE8F
:101DF000E77A17EE901A28460AF00FFFD4ED407AE2
:101E00009FED237AF8EEE77A67EE877AF5EEC07AEF
:101E1000F1EE10FAC1F2B381B6EE007A77EE877A6E
:101E2000FDEEE77A17EE901A28460AF0F6FED4ED9A
:101E3000407A9FED187AF8EEE77A67EE877AF5EE4A
:101E4000C07A51E0924B8642CCD2A142B23AB24221
:101E5000154AB542FAD0AB42C165994251778342E7
:101E600056DE5F42917247426D1C43429296524247
:101E7000C7037042D8B98842D3B695429CF09942C4
:101E8000696192422BAF7D42592D4442907D0242BE
:101E9000777B8A416FB0C340A1A3983FF8B8554003
:101EA00042133D410252C44150581A42999F4B423D
:101EB00028356C42F7067742D2DA6C42F8FA534280
:101EC0001E85364243C71F42665119426575284236
:101ED00065D34C42A627804296399C428374B44213
:101EE000CE38C34287CFC442F1EE10FAC1F25C8112
:101EF000B6EE007A77EE877AFDEEE77A17EE901A63
:101F000028460AF08AFED4ED407A1FED1D7AF8EEDD
:101F1000E77A67EE877AF5EEC07AF1EE10FAC1F251
:101F20005881B6EE007A77EE877AFDEEE77A17EE03
:101F3000901A28460AF071FED4ED407A1FED297AF6
:101F4000F8EEE77A67EE877AF5EEC07AF1EE10FAEE
:101F5000C1F25481B6EE007A77EE877AFDEEE77A29
:101F600017EE901A28460AF058FED4ED407A1FED7D
:101F7000347AF8EEE77A67EE877AF5EEC07AF1EE1A
:101F800010FAC1F25081B6EE007A77EE877AFDEE54
:101F9000E77A17EE901A28460AF03FFED4ED407A11
:101FA0001FED407AF8EEE77A67EE877AF5EEC07AB1
:101FB000F1EE10FAC1F24C81B6EE007A77EE877A34
:101FC000FDEEE77A17EE901A28460AF026FED4EDC9
:101FD000407A1FED4B7AF8EEE77A67EE877AF5EEF6
:101FE000C07AF1EE10FAC1F24881B6EE007A77EECF
:101FF000877AFDEEE77A17EE901A28460AF00DFE72
:10200000D4ED407A1FED577AF8EEE77A67EE877ADB
:10201000F5EEC07AF1EE10FAC1F24481B6EE007A24
:1020200077EE877AFDEEE77A17EE901A28460AF0E7
:10203000F4FDD4ED407A1FED627AF8EEE77A67EEB0
:10204000877AF5EEC07AF1EE10FAC1F24081B6EE71
:10205000007A77EE877AFDEEE77A17EE901A284637
:102060000AF0DBFDD4ED407A1FED6E7AF8EEE77AE8
:1020700067EE877AF5EEC07AF1EE10FAC1F23C8194
:10208000B6EE007A77EE877AFDEEE77A17EE901AD1
:1020900028460AF0C2FDD4ED407A1FED797AF8EEB9
:1020A000E77A67EE877AF5EEC07AF1EE10FAC1F2C0
:1020B0003881B6EE007A77EE877AFDEEE77A17EE92
:1020C000901A28460AF0A9FDD4ED407A1FED857AD2
:1020D000F8EEE77A67EE877AF5EEC07AF1EE10FA5D
:1020E000C1F23481B6EE007A77EE877AFDEEE77AB8
:1020F00017EE901A28460AF090FDD4ED407A1FEDB5
:10210000907AF8EEE77A67EE877AF5EEC07AF1EE2C
:1021100010FAC1F23081B6EE007A77EE877AFDEEE2
:10212000E77A17EE901A28460AF077FDD4ED407A48
:102130001FED9C7AF8EEE77A67EE877AF5EEC07AC3
:10214000F1EE10FAC1F22C81B6EE007A77EE877AC2
:10215000FDEEE77A17EE901A28460AF05EFDD4ED00
:10216000407A1FEDA77AF8EEE77A67EE877AF5EE08
:10217000C07AF1EE10FAC1F22881B6EE007A77EE5D
:10218000877AFDEEE77A17EE901A28460AF045FDA9
:10219000D4ED407A1FEDB37AF8EEE77A67EE877AEE
:1021A000F5EEC07AF1EE10FAC1F22481B6EE007AB3
:1021B00077EE877AFDEEE77A17EE901A28460AF056
:1021C0002CFDD4ED407A1FEDBE7AF8EEE77A67EE8B
:1021D000877AF5EEC07AF1EE10FAC1F22081B6EE00
:1021E000007A77EE877AFDEEE77A17EE901A2846A6
:1021F0000AF013FDD4ED407A1FEDCA7AF8EEE77AC3
:1022000067EE877AF5EEC07AF1EE10FAC1F21C8122
:10221000B6EE007A77EE877AFDEEE77A17EE901A3F
:1022200028460AF0FAFCD4ED407A1FEDD57AF8EE94
:10223000E77A67EE877AF5EEC07AF1EE10FAC1F22E
:102240001881B6EE007A77EE877AFDEEE77A17EE20
:10225000901A28460AF0E1FCD4ED407A1FEDE17AAD
:10226000F8EEE77A67EE877AF5EEC07AF1EE10FACB
:10227000C1F21481B6EE007A77EE877AFDEEE77A46
:1022800017EE901A28460AF0C8FCD4ED407A1FEDEC
:10229000EC7AF8EEE77A67EE877AF5EEC07AF1EE3F
:1022A00010FAC1F21081B6EE007A77EE877AFDEE71
:1022B000E77A17EE901A28460AF0AFFCD4ED407A80
:1022C0001FEDF87AF8EEE77A67EE877AF5EEC07AD6
:1022D000F1EE10FAC1F20C81B6EE007A77EE877A51
:1022E000FDEEE77A17EE901A28460AF096FCD4ED38
:1022F000407A9FEDFE7AF8EEE77A67EE877AF5EEA0
:10230000C07AF1EE10FAC1F20881B6EE007A77EEEB
:10231000877AFDEEE77A17EE901A28460AF07DFCE0
:10232000D4ED407A9FEDF27AF8EEE77A67EE877A9D
:10233000F5EEC07AF1EE10FAC1F20481B6EE007A41
:1023400077EE877AFDEEE77A17EE901A28460AF0C4
:1023500064FCD4ED407A9FEDE77AF8EEE77A67EE19
:10236000877AF5EEC07AF1EE10FAC1F20081B6EE8E
:10237000007A77EE877AFDEEE77A17EE901A284614
:102380000AF04BFCD4ED407A9FEDDB7AF8EEE77A69
:1023900067EE877AF5EEC07AF1EE10FAC1F2FC80B2
:1023A000B6EE007A77EE877AFDEEE77A17EE901AAE
:1023B00028460AF032FCD4ED407A9FEDD07AF8EE50
:1023C000E77A67EE877AF5EEC07AF1EE10FAC1F29D
:1023D000F880B6EE007A77EE877AFDEEE77A17EEB0
:1023E000901A28460AF019FCD4ED407A9FEDC47A81
:1023F000F8EEE77A67EE877AF5EEC07AF1EE10FA3A
:10240000C1F2F480B6EE007A77EE877AFDEEE77AD5
:1024100017EE901A28460AF000FCD4ED407A9FEDA2
:10242000B97AF8EEE77A67EE877AF5EEC07AF1EEE0
:1024300010FAC1F2F080B6EE007A77EE877AFDEE00
:10244000E77A17EE901A28460AF0E7FBD4ED407AB7
:102450009FEDAD7AF8EEE77A67EE877AF5EEC07A0F
:10246000F1EE10FAC1F2EC80B6EE007A77EE877AE0
:10247000FDEEE77A17EE901A28460AF0CEFBD4ED6F
:10248000407A9FEDA27AF8EEE77A67EE877AF5EE6A
:10249000C07AF1EE10FAC1F2E880B6EE007A77EE7B
:1024A000877AFDEEE77A17EE901A28460AF0B5FB18
:1024B000D4ED407A9FED967AF8EEE77A67EE877A68
:1024C000F5EEC07AF1EE10FAC1F2E480B6EE007AD1
:1024D00077EE877AFDEEE77A17EE901A28460AF033
:1024E0009CFBD4ED407A9FED8B7AF8EEE77A67EEAD
:1024F000877AF5EEC07AF1EE10FAC1F2E080B6EE1E
:10250000007A77EE877AFDEEE77A17EE901A284682
:102510000AF083FBD4ED407A9FED7F7AF8EEE77AFC
:1025200067EE877AF5EEC07AF1EE10FAC1F2DC8040
:10253000B6EE007A77EE877AFDEEE77A17EE901A1C
:1025400028460AF06AFBD4ED407A9FED747AF8EEE3
:10255000E77A67EE877AF5EEC07AF1EE10FAC1F20B
:10256000D880B6EE007A77EE877AFDEEE77A17EE3E
:10257000901A28460AF051FBD4ED407A9FED687A14
:10258000F8EEE77A67EE877AF5EEC07AF1EE10FAA8
:10259000C1F2D480B6EE007A77EE877AFDEEE77A64
:1025A00017EE901A28460AF038FBD4ED407A9FEDDA
:1025B0005D7AF8EEE77A67EE877AF5EEC07AF1EEAB
:1025C00010FAC1F2D080B6EE007A77EE877AFDEE8F
:1025D000E77A17EE901A28460AF01FFBD4ED407AEE
:1025E0009FED517AF8EEE77A67EE877AF5EEC07ADA
:1025F000F1EE10FAC1F2CC80B6EE007A77EE877A6F
:10260000FDEEE77A17EE901A28460AF006FBD4EDA5
:10261000407A9FED467AF8EEE77A67EE877AF5EE34
:10262000C07AF1EE10FAC1F2C880B6EE007A77EE09
:10263000877AFDEEE77A17EE901A28460AF0EDFA4F
:10264000D4ED407A9FED3A7AF8EEE77A67EE877A32
:10265000F5EEC07AF1EE10FAC1F2C480B6EE007A5F
:1026600077EE877AFDEEE77A17EE901A28460AF0A1
:10267000D4FAD4ED407A9FED2F7AF8EEE77A67EE40
:10268000877AF5EEC07AF1EE10FAC1F2C080B6EEAC
:10269000007A77EE877AFDEEE77A17EE901A2846F1
:1026A0000AF0BBFAD4ED407A9FED237AF8EEE77A90
:1026B00067EE877AF5EEC07AF1EE10FAC1F2BC80CF
:1026C000B6EE007A77EE877AFDEEE77A17EE901A8B
:1026D00028460AF0A2FAD4ED407A9FED187AF8EE77
:1026E000E77A67EE877AF5EEC07A43E04554B84260
:1026F00035F29F4239658042A1BB3F42A71909428A
:102700000FC6CC41510FB84151F8D04151C40442D9
:102710001551264272BB4142ABAF4D428E504542ED
:102720001B7C294239A10042C360AA4164234C4169
:10273000D50F1241B9603F412CF1AA41C9D70F42D0
:10274000949E5442E1858B42EF74A54283B1B3421B
:10275000A781B4429C36A942D4CA95425AB87F4256
:102760004A865A42263F4542306C4442CCCA5642C1
:1027700066AA7542F1EE10FAC1F27380B6EE007AE5
:1027800077EE877AFDEEE77A17EE901A28460AF080
:1027900044FAD4ED407A1FED167AF8EEE77A67EE48
:1027A000877AF5EEC07AF1EE10FAC1F26F80B6EEDC
:1027B000007A77EE877AFDEEE77A17EE901A2846D0
:1027C0000AF02BFAD4ED407A1FED227AF8EEE77A80
:1027D00067EE877AF5EEC07AF1EE10FAC1F26B80FF
:1027E000B6EE007A77EE877AFDEEE77A17EE901A6A
:1027F00028460AF012FAD4ED407A1FED2D7AF8EE51
:10280000E77A67EE877AF5EEC07AF1EE10FAC1F258
:102810006780B6EE007A77EE877AFDEEE77A17EEFC
:10282000901A28460AF0F9F9D4ED407A1FED397A6A
:10283000F8EEE77A67EE877AF5EEC07AF1EE10FAF5
:10284000C1F26380B6EE007A77EE877AFDEEE77A22
:1028500017EE901A28460AF0E0F9D4ED407A1FED01
:10286000447AF8EEE77A67EE877AF5EEC07AF1EE11
:1028700010FAC1F25F80B6EE007A77EE877AFDEE4D
:10288000E77A17EE901A28460AF0C7F9D4ED407A95
:102890001FED507AF8EEE77A67EE877AF5EEC07AA8
:1028A000F1EE10FAC1F25B80B6EE007A77EE877A2D
:1028B000FDEEE77A17EE901A28460AF0AEF9D4ED4D
:1028C000407A1FED5B7AF8EEE77A67EE877AF5EEED
:1028D000C07AF1EE10FAC1F25780B6EE007A77EEC8
:1028E000877AFDEEE77A17EE901A28460AF095F9F6
:1028F000D4ED407A1FED677AF8EEE77A67EE877AD3
:10290000F5EEC07AF1EE10FAC1F25380B6EE007A1D
:1029100077EE877AFDEEE77A17EE901A28460AF0EE
:102920007CF9D4ED407A1FED727AF8EEE77A67EE23
:10293000877AF5EEC07AF1EE10FAC1F24F80B6EE6A
:10294000007A77EE877AFDEEE77A17EE901A28463E
:102950000AF063F9D4ED407A1FED7E7AF8EEE77A5B
:1029600067EE877AF5EEC07AF1EE10FAC1F24B808D
:10297000B6EE007A77EE877AFDEEE77A17EE901AD8
:1029800028460AF04AF9D4ED407A1FED897AF8EE2C
:10299000E77A67EE877AF5EEC07AF1EE10FAC1F2C7
:1029A0004780B6EE007A77EE877AFDEEE77A17EE8B
:1029B000901A28460AF031F9D4ED407A1FED957A45
:1029C000F8EEE77A67EE877AF5EEC07AF1EE10FA64
:1029D000C1F24380B6EE007A77EE877AFDEEE77AB1
:1029E00017EE901A28460AF018F9D4ED407A1FED38
:1029F000A07AF8EEE77A67EE877AF5EEC07AF1EE24
:102A000010FAC1F23F80B6EE007A77EE877AFDEEDB
:102A1000E77A17EE901A261D28460AF0FEF8494676
:102A2000304607F0A9FF0299304607F0A5FF039949
:102A3000304607F0A1FF3046294607F09DFF2046AB
:102A40000DB0BDE8F08FBDEEE77AF8EEC76A17EE7D
:102A5000103A77EEE67AF7EE086A77EEA67A591E14
:102A6000FDEEE77A17EE903A0B441946FEF742BDA9
:102A7000BDEEE77AF8EEC76A17EE103A77EEE67A1F
:102A8000F7EE086A77EEA67A591EFDEEE77A17EEA2
:102A9000903A0B441946FEF746BDBDEEE77AF8EED4
:102AA000C76A17EE103A77EEE67AF7EE086A77EE25
:102AB000A67A591EFDEEE77A17EE903A0B441946B6
:102AC000FEF74ABDBDEEE77AF8EEC76A17EE103A98
:102AD00077EEE67AF7EE086A77EEA67A591EFDEEF3
:102AE000E77A17EE903A0B441946FEF74EBDBDEE5D
:102AF000E77AF8EEC76A17EE103A77EEE67AF7EE65
:102B0000086A77EEA67A591EFDEEE77A17EE903A3C
:102B10000B441946FEF7A0BDBDEEE77AF8EEC76A92
:102B200017EE103A77EEE67AF7EE086A77EEA67AB5
:102B3000591EFDEEE77A17EE903A0B441946FEF760
:102B4000A4BDBDEEE77AF8EEC76A17EE103A77EE4D
:102B5000E67AF7EE086A77EEA67A591EFDEEE77A76
:102B600017EE903A0B441946FEF7A8BDBDEEE77A82
:102B7000F8EEC76A17EE103A77EEE67AF7EE086AD3
:102B800077EEA67A591EFDEEE77A17EE903A0B44DF
:102B90001946FEF7ACBDBDEEE77AF8EEC76A17EE50
:102BA000103A77EEE67AF7EE086A77EEA67A591EC3
:102BB000FDEEE77A17EE903A0B441946FEF7B0BDEA
:102BC000BDEEE77AF8EEC76A17EE103A77EEE67ACE
:102BD000F7EE086A77EEA67A591EFDEEE77A17EE51
:102BE000903A0B441946FEF7B4BDBDEEE77AF8EE15
:102BF000C76A17EE103A77EEE67AF7EE086A77EED4
:102C0000A67A591EFDEEE77A17EE903A0B44194664
:102C1000FEF7B8BDBDEEE77AF8EEC76A17EE103AD8
:102C200077EEE67AF7EE086A77EEA67A591EFDEEA1
:102C3000E77A17EE903A0B441946FEF7BCBDBDEE9D
:102C4000E77AF8EEC76A17EE103A77EEE67AF7EE13
:102C5000086A77EEA67A591EFDEEE77A17EE903AEB
:102C60000B441946FEF7C0BDBDEEE77AF8EEC76A21
:102C700017EE103A77EEE67AF7EE086A77EEA67A64
:102C8000591EFDEEE77A17EE903A0B441946FEF70F
:102C9000C4BDBDEEE77AF8EEC76A17EE103A77EEDC
:102CA000E67AF7EE086A77EEA67A591EFDEEE77A25
:102CB00017EE903A0B441946FEF7C8BDBDEEE77A11
:102CC000F8EEC76A17EE103A77EEE67AF7EE086A82
:102CD00077EEA67A591EFDEEE77A17EE903A0B448E
:102CE0001946FEF7CCBDBDEEE77AF8EEC76A17EEDF
:102CF000103A77EEE67AF7EE086A77EEA67A591E72
:102D0000FDEEE77A17EE903A0B441946FEF7D0BD78
:102D1000BDEEE77AF8EEC76A17EE103A77EEE67A7C
:102D2000F7EE086A77EEA67A591EFDEEE77A17EEFF
:102D3000903A0B441946FEF7D4BDBDEEE77AF8EEA3
:102D4000C76A17EE103A77EEE67AF7EE086A77EE82
:102D5000A67A591EFDEEE77A17EE903A0B44194613
:102D6000FEF7D8BDBDEEE77AF8EEC76A17EE103A67
:102D700077EEE67AF7EE086A77EEA67A591EFDEE50
:102D8000E77A17EE903A0B441946FEF7DCBDBDEE2C
:102D9000E77AF8EEC76A17EE103A77EEE67AF7EEC2
:102DA000086A77EEA67A591EFDEEE77A17EE903A9A
:102DB0000B441946FEF7E0BDBDEEE77AF8EEC76AB0
:102DC00017EE103A77EEE67AF7EE086A77EEA67A13
:102DD000591EFDEEE77A17EE903A0B441946FEF7BE
:102DE000E4BDBDEEE77AF8EEC76A17EE103A77EE6B
:102DF000E67AF7EE086A77EEA67A591EFDEEE77AD4
:102E000017EE903A0B441946FEF7E8BDBDEEE77A9F
:102E1000F8EEC76A17EE103A77EEE67AF7EE086A30
:102E200077EEA67A591EFDEEE77A17EE903A0B443C
:102E30001946FEF7ECBDBDEEE77AF8EEC76A17EE6D
:102E4000103A77EEE67AF7EE086A77EEA67A591E20
:102E5000FDEEE77A17EE903A0B441946FEF7F0BD07
:102E6000BDEEE77AF8EEC76A17EE103A77EEE67A2B
:102E7000F7EE086A77EEA67A591EFDEEE77A17EEAE
:102E8000903A0B441946FEF7F4BDBDEEE77AF8EE32
:102E9000C76A17EE103A77EEE67AF7EE086A77EE31
:102EA000A67A591EFDEEE77A17EE903A0B441946C2
:102EB000FEF7F8BDBDEEE77AF8EEC76A17EE103AF6
:102EC00077EEE67AF7EE086A77EEA67A591EFDEEFF
:102ED000E77A17EE903A0B441946FEF7FCBDBDEEBB
:102EE000E77AF8EEC76A17EE103A77EEE67AF7EE71
:102EF000086A77EEA67A591EFDEEE77A17EE903A49
:102F00000B441946FEF700BEBDEEE77AF8EEC76A3D
:102F100017EE103A77EEE67AF7EE086A77EEA67AC1
:102F2000591EFDEEE77A17EE903A0B441946FEF76C
:102F300004BEBDEEE77AF8EEC76A17EE103A77EEF8
:102F4000E67AF7EE086A77EEA67A591EFDEEE77A82
:102F500017EE903A0B441946FEF708BEBDEEE77A2D
:102F6000F8EEC76A17EE103A77EEE67AF7EE086ADF
:102F700077EEA67A591EFDEEE77A17EE903A0B44EB
:102F80001946FEF70CBEBDEEE77AF8EEC76A17EEFB
:102F9000103A77EEE67AF7EE086A77EEA67A591ECF
:102FA000FDEEE77A17EE903A0B441946FEF710BE95
:102FB000BDEEE77AF8EEC76A17EE103A77EEE67ADA
:102FC000F7EE086A77EEA67A591EFDEEE77A17EE5D
:102FD000903A0B441946FEF714BEBDEEE77AF8EEC0
:102FE000C76A17EE103A77EEE67AF7EE086A77EEE0
:102FF000A67A591EFDEEE77A17EE903A0B44194671
:10300000FEF718BEBDEEE77AF8EEC76A17EE103A83
:1030100077EEE67AF7EE086A77EEA67A591EFDEEAD
:10302000E77A17EE903A0B441946FEF71CBEBDEE48
:10303000E77AF8EEC76A17EE103A77EEE67AF7EE1F
:10304000086A77EEA67A591EFDEEE77A17EE903AF7
:103050000B441946FEF720BEBDEEE77AF8EEC76ACC
:1030600017EE103A77EEE67AF7EE086A77EEA67A70
:10307000591EFDEEE77A17EE903A0B441946FEF71B
:1030800024BEBDEEE77AF8EEC76A17EE103A77EE87
:10309000E67AF7EE086A77EEA67A591EFDEEE77A31
:1030A00017EE903A0B441946FEF728BEBDEEE77ABC
:1030B000F8EEC76A17EE103A77EEE67AF7EE086A8E
:1030C00077EEA67A591EFDEEE77A17EE903A0B449A
:1030D0001946FEF72CBEBDEEE77AF8EEC76A17EE8A
:1030E000103A77EEE67AF7EE086A77EEA67A591E7E
:1030F000FDEEE77A17EE903A0B441946FEF730BE24
:10310000BDEEE77AF8EEC76A17EE103A77EEE67A88
:10311000F7EE086A77EEA67A591EFDEEE77A17EE0B
:10312000903A0B441946FEF734BEBDEEE77AF8EE4E
:10313000C76A17EE103A77EEE67AF7EE086A77EE8E
:10314000A67A591EFDEEE77A17EE903A0B4419461F
:10315000FEF738BEBDEEE77AF8EEC76A17EE103A12
:1031600077EEE67AF7EE086A77EEA67A591EFDEE5C
:10317000E77A17EE903A0B441946FEF73CBEBDEED7
:10318000E77AF8EEC76A17EE103A77EEE67AF7EECE
:10319000086A77EEA67A591EFDEEE77A17EE903AA6
:1031A0000B441946FEF740BEBDEEE77AF8EEC76A5B
:1031B00017EE103A77EEE67AF7EE086A77EEA67A1F
:1031C000591EFDEEE77A17EE903A0B441946FEF7CA
:1031D00097BEBDEEE77AF8EEC76A17EE103A77EEC3
:1031E000E67AF7EE086A77EEA67A591EFDEEE77AE0
:1031F00017EE903A0B441946FEF79BBEBDEEE77AF8
:10320000F8EEC76A17EE103A77EEE67AF7EE086A3C
:1032100077EEA67A591EFDEEE77A17EE903A0B4448
:103220001946FEF79FBEBDEEE77AF8EEC76A17EEC5
:10323000103A77EEE67AF7EE086A77EEA67A591E2C
:10324000FDEEE77A17EE903A0B441946FEF7A3BE5F
:10325000BDEEE77AF8EEC76A17EE103A77EEE67A37
:10326000F7EE086A77EEA67A591EFDEEE77A17EEBA
:10327000903A0B441946FEF7A7BEBDEEE77AF8EE8A
:10328000C76A17EE103A77EEE67AF7EE086A77EE3D
:10329000A67A591EFDEEE77A17EE903A0B441946CE
:1032A000FEF7ABBEBDEEE77AF8EEC76A17EE103A4E
:1032B00077EEE67AF7EE086A77EEA67A591EFDEE0B
:1032C000E77A17EE903A0B441946FEF7AFBEBDEE13
:1032D000E77AF8EEC76A17EE103A77EEE67AF7EE7D
:1032E000086A77EEA67A591EFDEEE77A17EE903A55
:1032F0000B441946FEF7B3BEBDEEE77AF8EEC76A97
:1033000017EE103A77EEE67AF7EE086A77EEA67ACD
:10331000591EFDEEE77A17EE903A0B441946FEF778
:10332000B7BEBDEEE77AF8EEC76A17EE103A77EE51
:10333000E67AF7EE086A77EEA67A591EFDEEE77A8E
:1033400017EE903A0B441946FEF7BBBEBDEEE77A86
:10335000F8EEC76A17EE103A77EEE67AF7EE086AEB
:1033600077EEA67A591EFDEEE77A17EE903A0B44F7
:103370001946FEF7BFBEBDEEE77AF8EEC76A17EE54
:10338000103A77EEE67AF7EE086A77EEA67A591EDB
:10339000FDEEE77A17EE903A0B441946FEF7C3BEEE
:1033A000BDEEE77AF8EEC76A17EE103A77EEE67AE6
:1033B000F7EE086A77EEA67A591EFDEEE77A17EE69
:1033C000903A0B441946FEF7C7BEBDEEE77AF8EE19
:1033D000C76A17EE103A77EEE67AF7EE086A77EEEC
:1033E000A67A591EFDEEE77A17EE903A0B4419467D
:1033F000FEF7CBBEBDEEE77AF8EEC76A17EE103ADD
:1034000077EEE67AF7EE086A77EEA67A591EFDEEB9
:10341000E77A17EE903A0B441946FEF7CFBEBDEEA1
:10342000E77AF8EEC76A17EE103A77EEE67AF7EE2B
:10343000086A77EEA67A591EFDEEE77A17EE903A03
:103440000B441946FEF7D3BEBDEEE77AF8EEC76A25
:1034500017EE103A77EEE67AF7EE086A77EEA67A7C
:10346000591EFDEEE77A17EE903A0B441946FEF727
:10347000D7BEBDEEE77AF8EEC76A17EE103A77EEE0
:10348000E67AF7EE086A77EEA67A591EFDEEE77A3D
:1034900017EE903A0B441946FEF7DBBEBDEEE77A15
:1034A000F8EEC76A17EE103A77EEE67AF7EE086A9A
:1034B00077EEA67A591EFDEEE77A17EE903A0B44A6
:1034C0001946FEF7DFBEBDEEE77AF8EEC76A17EEE3
:1034D000103A77EEE67AF7EE086A77EEA67A591E8A
:1034E000FDEEE77A17EE903A0B441946FEF7E3BE7D
:1034F000BDEEE77AF8EEC76A17EE103A77EEE67A95
:10350000F7EE086A77EEA67A591EFDEEE77A17EE17
:10351000903A0B441946FEF7E7BEBDEEE77AF8EEA7
:10352000C76A17EE103A77EEE67AF7EE086A77EE9A
:10353000A67A591EFDEEE77A17EE903A0B4419462B
:10354000FEF7EBBEBDEEE77AF8EEC76A17EE103A6B
:1035500077EEE67AF7EE086A77EEA67A591EFDEE68
:10356000E77A17EE903A0B441946FEF7EFBEBDEE30
:10357000E77AF8EEC76A17EE103A77EEE67AF7EEDA
:10358000086A77EEA67A591EFDEEE77A17EE903AB2
:103590000B441946FEF7F3BEBDEEE77AF8EEC76AB4
:1035A00017EE103A77EEE67AF7EE086A77EEA67A2B
:1035B000591EFDEEE77A17EE903A0B441946FEF7D6
:1035C000F7BEBDEEE77AF8EEC76A17EE103A77EE6F
:1035D000E67AF7EE086A77EEA67A591EFDEEE77AEC
:1035E00017EE903A0B441946FEF7FBBEBDEEE77AA4
:1035F000F8EEC76A17EE103A77EEE67AF7EE086A49
:1036000077EEA67A591EFDEEE77A17EE903A0B4454
:103610001946FEF7FFBEBDEEE77AF8EEC76A17EE71
:10362000103A77EEE67AF7EE086A77EEA67A591E38
:10363000FDEEE77A17EE903A0B441946FEF703BF0A
:10364000BDEEE77AF8EEC76A17EE103A77EEE67A43
:10365000F7EE086A77EEA67A591EFDEEE77A17EEC6
:10366000903A0B441946FEF707BFBDEEE77AF8EE35
:10367000C76A17EE103A77EEE67AF7EE086A77EE49
:10368000A67A591EFDEEE77A17EE903A0B441946DA
:10369000FEF70BBFBDEEE77AF8EEC76A17EE103AF9
:1036A00077EEE67AF7EE086A77EEA67A591EFDEE17
:1036B000E77A17EE903A0B441946FEF70FBFBDEEBE
:1036C000E77AF8EEC76A17EE103A77EEE67AF7EE89
:1036D000086A77EEA67A591EFDEEE77A17EE903A61
:1036E0000B441946FEF713BFBDEEE77AF8EEC76A42
:1036F00017EE103A77EEE67AF7EE086A77EEA67ADA
:10370000591EFDEEE77A17EE903A0B441946FEF784
:1037100017BFBDEEE77AF8EEC76A17EE103A77EEFC
:10372000E67AF7EE086A77EEA67A591EFDEEE77A9A
:1037300017EE903A0B441946FEF71BBFBDEEE77A31
:10374000F8EEC76A17EE103A77EEE67AF7EE086AF7
:1037500077EEA67A591EFDEEE77A17EE903A0B4403
:103760001946FEF71FBFBDEEE77AF8EEC76A17EEFF
:10377000103A77EEE67AF7EE086A77EEA67A591EE7
:10378000FDEEE77A17EE903A0B441946FEF723BF99
:10379000BDEEE77AF8EEC76A17EE103A77EEE67AF2
:1037A000F7EE086A77EEA67A591EFDEEE77A17EE75
:1037B000903A0B441946FEF727BFBDEEE77AF8EEC4
:1037C000C76A17EE103A77EEE67AF7EE086A77EEF8
:1037D000A67A591EFDEEE77A17EE903A0B44194689
:1037E000FEF72BBFBDEEE77AF8EEC76A17EE103A88
:1037F00077EEE67AF7EE086A77EEA67A591EFDEEC6
:10380000E77A17EE903A0B441946FEF72FBFBDEE4C
:10381000E77AF8EEC76A17EE103A77EEE67AF7EE37
:10382000086A77EEA67A591EFDEEE77A17EE903A0F
:103830000B441946FEF733BFBDEEE77AF8EEC76AD0
:1038400017EE103A77EEE67AF7EE086A77EEA67A88
:10385000591EFDEEE77A17EE903A0B441946FEF733
:1038600037BFBDEEE77AF8EEC76A17EE103A77EE8B
:10387000E67AF7EE086A77EEA67A591EFDEEE77A49
:1038800017EE903A0B441946FEF780BFBDEEE77A7B
:10389000F8EEC76A17EE103A77EEE67AF7EE086AA6
:1038A00077EEA67A591EFDEEE77A17EE903A0B44B2
:1038B0001946FEF784BFBDEEE77AF8EEC76A17EE49
:1038C000103A77EEE67AF7EE086A77EEA67A591E96
:1038D000FDEEE77A17EE903A0B441946FEF788BFE3
:1038E000BDEEE77AF8EEC76A17EE103A77EEE67AA1
:1038F000F7EE086A77EEA67A591EFDEEE77A17EE24
:10390000903A0B441946FEF78CBFBDEEE77AF8EE0D
:10391000C76A17EE103A77EEE67AF7EE086A77EEA6
:10392000A67A591EFDEEE77A17EE903A0B44194637
:10393000FEF790BFBDEEE77AF8EEC76A17EE103AD1
:1039400077EEE67AF7EE086A77EEA67A591EFDEE74
:10395000E77A17EE903A0B441946FEF794BFBDEE96
:10396000E77AF8EEC76A17EE103A77EEE67AF7EEE6
:10397000086A77EEA67A591EFDEEE77A17EE903ABE
:103980000B441946FEF798BFBDEEE77AF8EEC76A1A
:1039900017EE103A77EEE67AF7EE086A77EEA67A37
:1039A000591EFDEEE77A17EE903A0B441946FEF7E2
:1039B0009CBFBDEEE77AF8EEC76A17EE103A77EED5
:1039C000E67AF7EE086A77EEA67A591EFDEEE77AF8
:1039D00017EE903A0B441946FEF7A0BFBDEEE77A0A
:1039E000F8EEC76A17EE103A77EEE67AF7EE086A55
:1039F00077EEA67A591EFDEEE77A17EE903A0B4461
:103A00001946FEF7A4BFBDEEE77AF8EEC76A17EED7
:103A1000103A77EEE67AF7EE086A77EEA67A591E44
:103A2000FDEEE77A17EE903A0B441946FEF7A8BF71
:103A3000BDEEE77AF8EEC76A17EE103A77EEE67A4F
:103A4000F7EE086A77EEA67A591EFDEEE77A17EED2
:103A5000903A0B441946FEF7ACBFBDEEE77AF8EE9C
:103A6000C76A17EE103A77EEE67AF7EE086A77EE55
:103A7000A67A591EFDEEE77A17EE903A0B441946E6
:103A8000FEF7B0BFBDEEE77AF8EEC76A17EE103A60
:103A900077EEE67AF7EE086A77EEA67A591EFDEE23
:103AA000E77A17EE903A0B441946FEF7B4BF00BF11
:103AB0007047704770474160704770470123037239
:103AC00070477047704710B4C4684168621003467D
:103AD000E40701EB02009B6848BF8A585DF8044B7D
:103AE00048BFD358184743682BB183682BB9C068C7
:103AF00000F001007047184670470120704710B56C
:103B00000C2104461CF022FF204610BD10B54FF4D6
:103B1000AC7104461CF01AFF204610BD10B51021F0
:103B200004461CF013FF204610BD08B50CF006F942
:103B3000BDE808400CF0CABCF8B5044617460E466E
:103B40000CF01CF9144BC4F854611C60134E144B58
:103B5000236000253068134BC4F83851C4F83C5139
:103B6000C4F84031C4F84451C4F84851C4F84C5129
:103B7000C4F85071036829469B689847284600F0AE
:103B8000B5FA336893F876200AB1D86C00B9986812
:103B900014F065F92046F8BDEC370120803701208C
:103BA000C82C0208B02C0208064BC0F8483100238C
:103BB000C0F84C3100F5A073C0F84401C0F83C31A6
:103BC000704700BF093D00082DE9F047074690689F
:103BD000DDF820A0994603681B6A88461546984779
:103BE00041F2DB73984205D8414B424AA321424837
:103BF0001DF002FD686803681B6A98470F2803D808
:103C00003E4B3C4AA421F2E7E86803681B6A9847E8
:103C10000B2803D83A4B374AA521E8E70CF08EF879
:103C20000CF092F8D9F8000010B10368DB689847EF
:103C3000D9F8000010B103681B689847386810B1C4
:103C400003685B699847D8F8000010B103685B68A7
:103C50009847386810B103681B689847D8F8000087
:103C600010B103689B689847E868036800215B6AA5
:103C70009847044620B1002343600372214B036040
:103C8000A868036800215B6A9847064608B1FCF7FC
:103C90000BFD6868036800215B6A9847054610B110
:103CA0003146FCF783FCC9F80040C8F800503E607C
:103CB000E5B12B1DCAF80030C5F808A03368F563DC
:103CC0003046DB6898472B6828461B689847214692
:103CD00030460DF0DFFC236820461B6998472368B7
:103CE00020465B6998472846BDE8F0872B46E1E708
:103CF000302D0208452F0208BE2D0208FF2D0208B4
:103D0000A22E0208142D020807B5D0F854310093F2
:103D1000D0F85021044B00F59C710448FFF754FF84
:103D200003B05DF804FB00BFE0370120DC37012061
:103D300013B5002249B102AB019203F8052D0268C8
:103D4000946801AAA04702B010BD0846FBE740896D
:103D500070478089704780887047837980881844CD
:103D600080B27047C07900F07F007047C079C00909
:103D70007047006A7047406A704770478B88806957
:103D80000A68DB0A50F823001044704710B5C2B12E
:103D9000137BB3B1547BD27A240204F4E06414435D
:103DA000C26998B202EB840213888B4202D192F965
:103DB000020010BD05D8013880B204320028F3D1CA
:103DC000F7E70020F5E710B5282104461CF0BEFDFA
:103DD000204610BD30B589B00446BDF85050069558
:103DE000BDF84C5005959DF8405004959DF83C5009
:103DF00003959DF8385002959DF8345001959DF833
:103E0000305000950CF0D4FF064B2360119BA3614A
:103E1000129BE361159B2362169B6362204609B0E7
:103E200030BD00BF5430020830B5174D2C78BFF3B9
:103E30005B8F14F001048DB022D128461CF05EFD8A
:103E4000F0B13F230793114B0693114B114908948E
:103E5000CDE9044301220423CDE9013202230F22DC
:103E60000093CDE909440A2303940B48FFF7B2FFFE
:103E700028461CF04FFD094A094907481CF061FD1E
:103E800005480DB030BD00BF7C010020D06F020896
:103E9000CC6F0208C06D02088001002000000020E5
:103EA0007B3D000830B5164D2C78BFF35B8F14F0C6
:103EB00001048DB020D128461CF020FDE0B13F2345
:103EC0000793104B0693104B104908940122CDE93B
:103ED00004430423CDE90132CDE9094428230394A6
:103EE00000940B48FFF776FF28461CF013FD094AA3
:103EF000094907481CF025FD05480DB030BD00BF3D
:103F0000A8010020C86F0208D86F0208A86F020835
:103F1000AC010020000000207B3D000830B5164DAC
:103F20002C78BFF35B8F14F001048DB020D12846AC
:103F30001CF0E4FCE0B13F230793104B0693104BB9
:103F4000104908940122CDE904430423CDE901324C
:103F5000CDE909441423039400940B48FFF73AFF7A
:103F600028461CF0D7FC094A094907481CF0E9FC1F
:103F700005480DB030BD00BFD4010020D46F020849
:103F8000DC6F0208B86F0208D80100200000002092
:103F90007B3D0008704710B5042104461CF0D6FC98
:103FA000204610BD012908B508D003D3022909D045
:103FB000002002E000F012F8006808BD00F00EF8E2
:103FC0004068FAE700F00AF88068F6E700487047B2
:103FD000B83002080120704702207047004870473F
:103FE0000002002010B5FFF799FF044C2060FFF796
:103FF00059FF6060FFF718FFA06010BD00020020AD
:1040000000207047002070470EB403B503AB0021B9
:1040100053F8042B01930CF0FDFC02B05DF804EBA7
:1040200003B070470CB407B504AB53F8042B0193ED
:104030000CF0F0FC03B05DF804EB02B07047000038
:1040400010B5436C044673B3038F2BB9184B194A50
:10405000C02119481DF0D0FAC38E00EB43035B8CDE
:104060000BB30EF085F8238F012B03D8134B144AA2
:10407000C521EEE7E28E531C9BB2092B194688BF7F
:10408000A3F10A0104EB410140F63F10498C814243
:1040900009D10A2B04EB420228BF002304EB43039F
:1040A000508C588451842046BDE810400DF044BF28
:1040B000CC300208F9310208D53002081931020863
:1040C000273102080DF0F0BE10B586B002AC84E8CE
:1040D00006001A460AAB05930193099B00932146FB
:1040E000089B0BF0B4F906B010BD000038B5D8B984
:1040F000114B12481B681249BBB11A689C681A44DC
:1041000002605A681A440A601C446CB10D4B0022CC
:104110001A80FFF763FF0546FFF75EFF0A4B1C603E
:104120000A4B1D600A4B188038BD0A4B03600A4BCE
:104130000B600A4B1C68E8E70C020020100200200C
:104140001402002018020020F0370120F837012067
:10415000F4370120F0C70408E0C70408ECC70408DE
:10416000044B1B6853F82100034B1B6803EB400012
:10417000704700BF1402002010020020012380F8C5
:10418000741080F875307047002070474164034B0D
:10419000003118BF01211970704700BF7D37012021
:1041A00000207047836B0BB10846184770474FF6E5
:1041B000FF707047406803689B69184770477047F5
:1041C000034B902283F85A2383F85823704700BF8B
:1041D00000E100E0094A0A49D3680A48C3F30A0328
:1041E000013B9BB20B801169C1F30A0101390180C7
:1041F0001364536B43F0010353637047006801403D
:104200001C0200201A020020014B986A704700BF70
:1042100084680140024B0122996243F8602C704788
:104220008468014038B5044606F04FFE23685D6E91
:104230000BF084FD01462046A8472368054AD3F8C1
:104240008850A2F5163100232046A847002384F8A1
:104250004A3038BD005802D010B531B90A4B0B4A6C
:104260000B4840F2BB211DF0C7F9C0E90F12003224
:10427000084918BF01220A7002681946D2F88C203A
:10428000BDE81040104700BF07330208C1330208E1
:104290003F3302087C37012008B5094B1B888B424D
:1042A00003D8084B1B88934205D9074B074A084897
:1042B0009E211DF0A1F9074B1980074B1A8008BDFC
:1042C0007237012074370120A43202087E330208BD
:1042D0003F330208783701207A37012006F0A6BD67
:1042E00010B5044607F012FC23682046D3F8AC3022
:1042F000BDE81040184790F877301BB1406803685C
:104300001B6818471846704710B590F8744090F82D
:1043100034100C4B8C421A7809D03AB90A4A0B492E
:104320001488088810800C8001221A7010BD002AA1
:10433000FCD0054A05491488088810800C800022AA
:10434000F3E700BF76370120723701207437012070
:10435000034B4FF080629A604FF080729A60704712
:1043600000E100E0084B4FF08062C3F88820BFF303
:104370004F8FBFF36F8F4FF08072C3F88820BFF369
:104380004F8FBFF36F8F704700E100E010B5134B04
:10439000134A1B6C1188134C8B4213D1124B198892
:1043A00003F04EFC226892F86630013382F86630E2
:1043B00000F06AFA206807F0A9FB0020BDE8104071
:1043C00000F070BC03F03CFC002000F06CFC2068A6
:1043D0000368BDE810401B6A184700BF0068014031
:1043E0001C020020803701201A02002003685B6C49
:1043F00018470020704703689B6A184740F26F30E7
:104400007047000010B5074C074B2360204603F0AF
:1044100089F8064B2361064B6361064B4FF08062BF
:104420009A6010BD443A012000B002405544000893
:104430003944000800E100E008B5034A034B044892
:1044400036211DF0D9F800BF88340208E444020880
:104450000F340208024B1B68586803685B691847F1
:1044600080370120084B10B503600446074803F06D
:1044700027F9074B4FF08062C3F88820BFF34F8FB6
:10448000BFF36F8F204610BD40340208443A01202C
:1044900000E100E010B50446FFF7E4FF20464FF4CA
:1044A0005A611CF053FA204610BD0000044B1B68F3
:1044B00093F876200AB1D86C00B99868704700BFAD
:1044C000803701202DE9F3410D68202D0C4600F0C6
:1044D000A180402D00F09E802A1F56425641B5F51E
:1044E000807F00F09980A5F500735D425D41FFF784
:1044F000DDFF03689B6A98472368402B00F0A48087
:1045000000F28C80042B00F09880202B00F09C801F
:10451000102814BF4FF0010C4FF0020C0021514B3A
:10452000A28AB4F81A80D3F800E059601028A8EBEA
:10453000020814BF012702279F60C3F80C80DEF831
:10454000002022F440321143CEF80010D3F800E0EE
:10455000C3F82CC0DEF8341021F007013943CEF83F
:104560003410DEF8402022F47F5222F03F0242EA6B
:104570000802CEF84020228BA18A521A9A620EB904
:10458000002D34D0227FFF2A1FBF02221A63227F10
:104590005A6304BF00221A6305B3227FE168102822
:1045A0004FEA026053D14FF01F0EC1F3C422C2EB99
:1045B0000222B2FBFEFC01EA0E02C2EB0222B2FBB7
:1045C000FEF2024342EA0C42C1F34511C1EB012164
:1045D0003F20B1FBF0F142EA01225A63A18A628BCB
:1045E0002048521AC3E90627002103F035F90121BA
:1045F0001C4803F031F9A38AE28A06B955B3CDE924
:1046000000322369616817481A4602F0D8FF02B0E9
:10461000BDE8F081012666E7012568E7B3F5807FF4
:1046200006D0B3F5007F7FF473AF4FF0090C01E0C3
:104630004FF00A0C4FF4003171E7102814BF4FF00F
:10464000010C4FF0020CF5E74FF0000CF2E70143CC
:104650005963C3E7009261682269024802F090FF43
:10466000D5E700BF443A0120F7B50D46FFF71EFF1E
:1046700003689B6A98471028EB68297F6FD103F085
:104680001F02C2EB02221F20B2FBF0F4C3F3C422CC
:1046900044EA0164C2EB0222C3F34513B2FBF0F219
:1046A00044EA0244C3EB03233F22B3FBF2F30222AA
:1046B00044EA03242B682C486F8B082B08BF4FF467
:1046C0000036AB8A18BF4FF44036C0E90162FF1ACA
:1046D0000368C760196821F4403131431960D0F88C
:1046E00000C0DCF8341021F007011143CCF834107D
:1046F000DCF8403023F47F5323F03F033B43B6F50F
:10470000003FCCF840301FD10123C0E90C3409230D
:10471000C362A98A6B8B5B1AC0E90632002103F0E1
:104720009BF80121104803F097F8B6F5003FAB8ADB
:10473000EA8A0DD129690C48CDE900320B460A46B8
:1047400002F03DFF03B0F0BD0023C2628362E8E7E0
:10475000009221462A69044802F012FFF2E743EA78
:1047600001640122A6E700BF443A012070B5054666
:104770002C460A4B0C30002668602E726E7244F88C
:10478000203B6022214607F029FB05F55A63E660CD
:104790002434A342FBD1284670BD00BF4034020838
:1047A000012108B50022084605F0CEF8064B4FF06F
:1047B000FF31186005F01EF900220421012005F0E8
:1047C0008DF9024B186008BD240200202002002051
:1047D00008B5074B186828B9064B074A0748312126
:1047E0001CF00AFF4FF0FF31BDE8084005F002B9A8
:1047F00024020020BB34020832350208CC340208FF
:1048000008B5064B186828B9054B064A06483A21F0
:104810001CF0F2FEBDE8084005F028B92402002093
:10482000BB340208F5340208CC34020808B5074B43
:10483000186828B9064B074A074847211CF0DCFED8
:104840000021BDE8084005F0D5B800BF24020020D3
:10485000BB3402086F350208CC34020808B5064B99
:10486000186828B9054B064A064854211CF0C4FEB6
:10487000BDE8084005F0FAB824020020BB34020865
:10488000AF350208CC340208044B186820B100236D
:104890001A46034905F068B9704700BF200200209E
:1048A0000400002013B5084C206858B100231A46B4
:1048B00001A905F09BF94FF0FF33002201A9206800
:1048C00005F094F902B010BD200200207047704737
:1048D0007047012070470C2070470C2303FB010038
:1048E000083070470C2303FB01000830704701209B
:1048F000704741F2DC70704741F2DC7303FB01004A
:104900000830704741F2DC7303FB01000830704748
:10491000012070471020704700EB011008307047ED
:1049200000EB0110083070470846FFF73DB9000062
:1049300010B5034B0360044605F09AFF204610BDF6
:104940006436020810B50446FFF7F2FF2046142132
:104950001BF0FCFF204610BD10B5034B036004465E
:1049600005F086FF204610BD3036020810B504461B
:10497000FFF7F2FF204641F2E4711BF0E7FF20460B
:1049800010BD000010B5034B0360044605F070FF36
:10499000204610BDFC35020810B50446FFF7F2FFB3
:1049A000204618211BF0D2FF204610BD10B5094B40
:1049B0000360044600F5C0501030FFF7B9FF04F162
:1049C0002C00FFF7C9FF04F11400FFF7DBFF2046BE
:1049D00010BD00BF9836020810B50446FFF7E6FF89
:1049E00020464FF4CC511BF0B1FF204610BD000013
:1049F0002DE9F341FFF7EAFA0546FFF7EBFA002449
:104A0000014623462846224600940EF03BFA264BE8
:104A1000264A274D1A602046FFF768FB25480EF00E
:104A20007DF92B78BFF35B8FDB0736D428461BF06C
:104A300065FF002831D0204C204F214BE76007F163
:104A4000180604F1140004F12C086060C4F8088012
:104A50002661236005F00EFF1A4B6361404605F0A6
:104A600009FF194BE362384605F004FF174B3B6022
:104A700007F11400FBF726FE224607F11401304629
:104A8000FBF754FE3046FFF78FF828461BF042FF35
:104A90000F4A104920461BF054FF0F4802B0BDE8F2
:104AA000F04100F0D3B800BFFC370120CC29002032
:104AB00028020020080000202C0200203C1A0020C0
:104AC00098360208FC3502083036020864360208BF
:104AD00000000020AD49000850290020014800F0E6
:104AE000B7B800BF5029002010B5042104461BF0C0
:104AF0002DFF204610BD10B5782104461BF026FF7F
:104B0000204610BD10B57C2104461BF01FFF204637
:104B100010BD0000F8B5394C394D3A4F3A4B3B497E
:104B20002B60224628461BF00CFF394E3846FFF713
:104B30001DFE2246374938461BF003FF304611F070
:104B400043FB2246344930461BF0FBFE22463349E4
:104B500033481BF0F6FE3348334941663349C5609C
:104B600000230122324D0385C0E90176C0E90433F8
:104B7000C0E90633C0E9083380F82A30C3620386EF
:104B8000C0E90E33C0E9103380F8483080F849207E
:104B900080F84A3080F84B30C0E91333C0E9153350
:104BA000C0E9173380F8683080F8693080F86A30DF
:104BB00080F86B3080F86C300860F02129801D4D42
:104BC000036729801C4D80F874304FF4A071298050
:104BD0001A4D80F875302980194980F876300B70AD
:104BE000184B80F8772080F8782080F83420036014
:104BF00022461549BDE8F8401BF0A3BE0000002086
:104C0000AC1B0020B01B002084370208CD480008F0
:104C1000D029002065440008CF480008953F0008CF
:104C200008000020502900200100000180370120E9
:104C30007237012078370120743701207A3701203C
:104C400076370120AC360208D1480008FFF7EABAEF
:104C500008B503680446D3F8803098472368204697
:104C60009B6F9847FFF71EFE236820461B6F9847EF
:104C7000292000F08DFBFFF715FE236820461B6FEF
:104C80009847F8E7FFF7C0BAFFF7C4BAFFF726BBAB
:104C9000FFF796BAFFF75CBBFFF764BBFFF79ABA62
:104CA00006F0BEB8704770477047000038B50C4B2F
:104CB0000C4C18800C4B822019806368984740F692
:104CC000110398420AD1094D23682C60822098472D
:104CD0002B688220DB689847002038BD0120FCE764
:104CE000482A0020240000204A2A00204C2A0020C4
:104CF0004FF4A071F020FFF7D9BF0000F7B52C4D9D
:104D00002B6804461B698220984780B220800028C7
:104D10004BD02B680DF106025B6901A982209847F0
:104D2000BDF80630A3F5B4739BB20B22B3FBF2F3CC
:104D300033B1204A12889A423CBF02F1FF339BB242
:104D4000BDF8042040F6B8318A4295BFC2F57162C1
:104D5000C2F56D620E320832ADF80420BDF80410C1
:104D60000F22B1FBF2F131B1134A12888A423CBFE3
:104D700002F1FF3189B2114E114D30682F6882B2B5
:104D8000814288BF8A1AB8B298BF521ABB428CBF00
:104D9000181AC01A92B280B20244052AC4BF316008
:104DA0002B60336863802B68A38003B0F0BD00BF25
:104DB0004C2A00204A2A0020482A0020502A00209D
:104DC000542A002037B568460D461446FFF796FF73
:104DD000BDF8000030B1BDF802302B60BDF80430E2
:104DE0002360012003B030BD054BD3F8882042F486
:104DF0007002C3F888204FF000629A60704700BFCD
:104E000000ED00E030B5014689B00022362001F007
:104E10005DFE362001F08EFE0025154B02951A6CC2
:104E2000144C42F010021A641B6C03F0100302933E
:104E300001A903A8029B01F06FF801F05DF80E4B89
:104E4000236040F2E733E36040000C4BB0FBF3F02B
:104E50000138606020462561A56001F09DF920B908
:104E6000204601F078F809B030BD0120FBE700BF13
:104E700000380240A43801200010004040420F00DA
:104E800007B5064B02A91B6821F8020D0122044850
:104E900002F0D2F803B05DF804FB00BF140000205C
:104EA00038390120F0B53024A1B02246002108A8ED
:104EB0001CF025FC1422002103A81CF020FC224633
:104EC000002114A81CF01BFC0024224B01941A6C36
:104ED00042F080521A641B6C03F080530193019BD3
:104EE0001D4B02941A6842F440421A601B6803F496
:104EF000404302930122029B4FF48033CDE9082303
:104F000002254FF48003CDE90E5308274FF4A87310
:104F1000042608A8CDE910731295139600F07AFDC7
:104F20000F23CDE903354FF4A0514FF48053CDE961
:104F3000061303A80521059400F040FFC023189331
:104F400014A84FF4003314971A961D9302F0D8FE5C
:104F500021B0F0BD003802400070004080B5002054
:104F60009AB01CF0F1FF1CF043FF02F089FEFFF73E
:104F700099FF142200210DA800241CF0C0FBB44BA3
:104F800000941A6BB348B44D42F020021A631A6BB6
:104F900002F020020092009A01941A6B42F0800203
:104FA0001A631A6B02F080020192019A02941A6B42
:104FB00042F004021A631A6B02F004020292029A8F
:104FC00003941A6B42F001021A631A6B02F0010299
:104FD0000392039A04941A6B42F002021A631A6B4A
:104FE00002F002020492049A05941A6B42F0400205
:104FF0001A631A6B02F040020592059A06941A6B26
:1050000042F010021A631A6B02F010020692069A1E
:1050100007941A6B42F008021A631B6B03F0080333
:10502000079322460421079B01F02AFF22464FF4F2
:1050300040518A4801F024FF012602274FF004085E
:105040000DA984480F94CDE90D86109701F032FE2A
:105050000DA94FF440538148CDE90D36CDE90F47F6
:1050600001F028FE7E487F4B036002F077FF7E4A06
:105070007E4B2C62C5E9002328464FF48043C5E9E6
:105080000434C5E90244C5E9064401F075FA10216B
:10509000284601F0C3FC2146284601F0E1FC744893
:1050A000744984624FF48273C0E900134FF40075B1
:1050B0001823C0E906530A236F4DC362C0E90244B6
:1050C000C0E90444C0E9084401F076FF6B4B0D973A
:1050D0004FF0100CC5E900364023C5E904C34FF476
:1050E000C073C5E906344FF40063C5E908344FF4D2
:1050F0000053AB624FF0030A07230DA92846CDE900
:105100000E3810934FF00809C5E90248CDE911A700
:10511000139700F035FC4FF6FF7209A92846CDE938
:105120000A96089409960C9400F04AFC304602F066
:10513000D3FD4FF6FF7209A92846CDE90979CDE9DB
:105140000B6400F03DFC4FF6FF7209A92846CDE93B
:1051500009A9CDE90B8400F033FC4FF40C730893DC
:10516000089B0C934FF6FF7209A92846CDE90989DF
:105170000B9600F025FC40F26A51284600F037FCFF
:10518000342221460DEB02001CF0B9FA3C4D3D4B98
:105190002C61C5E900340923C5E905361D2340F219
:1051A0000D1EC5E9073A40F24313C5E909E340F291
:1051B000171840F24713C5E90B83C5E90244AC86D2
:1051C00085F83640284602F035FCFF21F022CDE973
:1051D00012144FF4806905214FF4A073CDE90E2419
:1051E000CDE91491CDE916420DA922462846CDE914
:1051F0001037254D18930D94ADF864408DF8664036
:1052000002F0F5FC214B2B601B6898472B68204D62
:10521000DB6898471F4BC5E90A47C5E90C44284697
:10522000C5E90034C5E9027402F07CF9314628462C
:1052300002F012FB02F0A2FE04F0F6FA164A17483A
:10524000214604F02BFB164B186004F007FBFEE729
:105250000038024000080240E4380120000C0240FF
:105260009039012000300240005C0040A08601001F
:105270003839012000500140843A0120400100A04B
:105280009839012000680140582A00204C00002075
:10529000443A012000B00240AC370208817F000888
:1052A000403A01207047704710B586B006AC074BF6
:1052B00004F8012D1B68029301230A46CDE900433F
:1052C0000146034801F008FA06B010BD10000020A6
:1052D000E43801207FB506AA002302F8013D084BFF
:1052E0001B6802930123CDE900230A4601460548C5
:1052F00001F086FA9DF8170007B05DF804FB00BFC7
:1053000010000020E43801201FB5084C24680092EA
:10531000CDE901340A4601230146054801F070FA3F
:10532000003018BF012004B010BD00BF10000020E5
:10533000E438012002F0D0BC10B5064C0022204613
:10534000042101F09DFD204601220421BDE810400A
:1053500001F096BD0008024038B50B4C054601220D
:105360004FF40051094801F08BFD00220421204632
:1053700001F086FD2846FFF783FD20460122042127
:10538000BDE8384001F07CBD00080240000C02403E
:1053900038B50B4C054600224FF40051094801F086
:1053A0006FFD00220421204601F06AFD2846FFF728
:1053B00067FD204601220421BDE8384001F060BDB0
:1053C00000080240000C0240F7B5144C144D07468B
:1053D0000E4620460022042101F052FD00224FF427
:1053E0000051284601F04CFD3846FFF749FD0D4BB2
:1053F0000D481B68324601A901F0B6FF284601227C
:105400004FF40051019E01F03BFD20460122042192
:1054100001F036FD304603B0F0BD00BF0008024089
:10542000000C0240140000203839012002F054BC66
:105430000268034B9A4201D102F03CBC704700BFA6
:10544000001000407047FEE7FEE7FEE7FEE770470A
:10545000014800F095BD00BFA4380120014802F0CA
:1054600065BB00BF98390120014802F065B900BF53
:10547000443A012008B50A4B1968024609B909499E
:1054800019601868694602448A4206D91CF0E0F89F
:105490000C2303604FF0FF3008BD1A60FCE700BF2B
:1054A0005C2A0020003B012082B00E4B00220092BB
:1054B000596C41F480415964596C01F48041009168
:1054C00000990192196C41F0805119641B6C03F032
:1054D00080530193019B0F216FF0010002B001F096
:1054E000F5BA00BF003802400268094B9A4282B008
:1054F0000BD100230193074B1A6B42F480521A63BD
:105500001B6B03F480530193019B02B0704700BFF3
:10551000003002400038024007B50F4B02689A4243
:1055200016D10022A3F5F0430192196B41F400015A
:1055300019631B6B03F40003019305215A20019B9F
:1055400001F0C4FA5A2003B05DF804EB01F0F2BA9E
:1055500003B05DF804FB00BF00B002400268064BD8
:105560009A4207D1054A136B23F4000313635A20B0
:1055700001F0EEBA704700BF00B0024000380240B0
:105580002DE9F043044689B01422002103A81CF041
:10559000B6F82268244B9A4243D1244C2448002573
:1055A0000095236B43F004032363236B03F0040390
:1055B0000093009B0195236B43F001032363236B4E
:1055C00003F001030193019B4FF012094FF40073A4
:1055D0004FF001080327042603A9CDE90339CDE9DB
:1055E0000587079601F066FB4FF4807303A9114805
:1055F0000796CDE90339CDE9058701F05BFB0295FC
:10560000236C43F400032364236C03F4000302932C
:10561000029B236A43F400032362236A23F40003FA
:10562000236209B0BDE8F083005C0040003802400E
:105630000008024000000240F0B504468DB014227C
:10564000002107A81CF05BF82268574B9A4240F0F3
:10565000A88003F55043002500955A6C534842F04A
:1056600080625A645A6C02F080620092009A01953E
:105670001A6B42F020021A631A6B02F020020192A8
:10568000019A02951A6B42F001021A631A6B02F03A
:1056900001020292029A03951A6B42F002021A6307
:1056A0001A6B02F002020392039A04951A6B42F0FD
:1056B00040021A631A6B02F040020492049A0595A4
:1056C0001A6B42F004021A631A6B02F0040205928C
:1056D000059A06951A6B42F008021A631B6B03F0D9
:1056E0000803069302240E26069B0A944FF4806357
:1056F00007A9CDE907340B9601F0DCFA41F658030F
:1057000007A92B480B96CDE907340927CDE90954A1
:1057100001F0D0FA032307A926480B97CDE90734F7
:10572000CDE9095401F0C6FA4FF4706307A9214886
:105730000B96CDE90734CDE9095401F0BBFA4FF4DB
:105740000C6307A91C480B96CDE90734CDE9095431
:1057500001F0B0FAC02307A918480B96CDE9073429
:10576000CDE9095401F0A6FA082307A914480B96BD
:10577000CDE90734CDE9095401F09CFA4FF4A05368
:1057800007A90D480B97CDE90734CDE9095401F07D
:1057900091FA58202A46052101F098F9582001F085
:1057A000C9F90DB0F0BD00BF00680140001402400F
:1057B00000000240000402400018024000080240BD
:1057C000000C024010B5044688B01422002103A842
:1057D0001BF095FF2268144B9A4223D103F56843CE
:1057E000002101915A6C114842F480125A645A6C9B
:1057F00002F480120192019A02911A6B42F0200287
:105800001A631B6B03F020030293029B4FF4607238
:1058100002230321CDE903230523CDE9061303A9C0
:1058200001F048FA08B010BD0050014000140240D9
:105830002DE9F04186B01422002101A81BF05FFF82
:105840002B4B1C68002C4FD14FF00108C3F800808F
:10585000284B00949A6B284842EA08029A639B6B93
:1058600003EA08030093022703260C25009B01A9E5
:105870004FF63F03CDE90137CDE9046501F01AFA8F
:1058800001A91E480595CDE90187CDE9034601F040
:1058900011FA48F2331301A919480595CDE90137EA
:1058A000CDE9034601F006FA4FF6837301A91548C6
:1058B0000595CDE90137CDE9034601F0FBF94CF23E
:1058C000037301A910480595CDE90137CDE90346D9
:1058D00001F0F0F9602301A90C480595CDE90137E5
:1058E000CDE9034601F0E6F906B0BDE8F08100BF5E
:1058F000602A0020003802400014024000080240E4
:105900000018024000100240000C02400004024057
:105910000120704708B51BF09BFE162303604FF073
:10592000FF3008BD08B51BF093FE16230360FEE7A9
:1059300070B50E4615460C46A31B9D4201DC284659
:1059400070BDAFF3008004F8010BF5E770B50E46AB
:1059500015460C46A31B9D4201DC284670BD14F879
:10596000010BAFF30080F5E74FF0FF3070474FF4C5
:1059700000534B60002070470120704700207047A3
:1059800038B50D460446C8B190F82C3003F0FF023C
:105990001BB980F82D20FFF74BFF022384F82C3031
:1059A000211D206801F0E8F862682068294601F0AE
:1059B00019F9012384F82C30002038BD0120FCE7C0
:1059C00038B5044690F82C00C0B202280D460DD020
:1059D000022384F82C30206801F041F92B68022B57
:1059E0000CBF0523012384F82C30002038BD10B5EE
:1059F000044690F82C00C0B2022809D0022384F893
:105A00002C30206801F050F9012384F82C3000205C
:105A100010BD00002DE9F341044608B9012041E022
:105A20000368DD0710D4236898075AD423681A073F
:105A300000F19C8023685B0700F1BA80A069002810
:105A400040F01C8100202DE0A44B9A6802F00C026B
:105A5000042A07D09A6802F00C02082A0AD15B686F
:105A6000590207D59D4B1B689A03DCD56368002B50
:105A7000D9D1D3E76268994BB2F5803F15D11A6846
:105A800042F480321A606368F3B102F01FF9934D5B
:105A900006462B689B03C6D402F018F9801B6428C5
:105AA000F7D9032002B0BDE8F081B2F5A02F1A6843
:105AB00003D142F480221A60E1E722F480321A60B6
:105AC0001A6822F48022DDE702F000F9834D0646D1
:105AD0002B689F03A7D502F0F9F8801B6428F7D93B
