:020000040800F2
:1000000000000320E9A40008195200081B52000850
:100010001D5200081F520008215200080000000075
:10002000000000000000000000000000F19C00083B
:100030002352000800000000819D0008E59D000893
:1000400039A5000839A5000839A5000839A5000818
:1000500039A5000839A5000839A5000839A5000808
:1000600039A5000839A5000839A5000839A50008F8
:1000700039A5000839A5000839A5000839A50008E8
:1000800039A5000839A5000839A5000839A50008D8
:1000900039A5000839A5000839A5000839A50008C8
:1000A00039A5000839A5000839A5000839A50008B8
:1000B00039A5000839A5000839A5000839A50008A8
:1000C00039A5000839A5000839A5000839A5000898
:1000D00039A5000839A5000839A5000839A5000888
:1000E00039A5000839A5000839A5000839A5000878
:1000F00039A5000839A5000839A5000839A5000868
:1001000039A5000839A5000839A5000839A5000857
:1001100039A5000839A500082552000839A50008AE
:1001200039A5000839A5000839A5000839A5000837
:1001300039A5000839A5000839A5000839A5000827
:1001400039A5000839A5000839A5000839A5000817
:1001500039A5000839A5000839A5000839A5000807
:1001600039A5000839A5000839A5000839A50008F7
:1001700039A5000839A5000839A5000800000000CD
:1001800039A5000839A5000839A5000839A50008D7
:1001900039A5000839A5000839A5000839A50008C7
:0C01A0003152000839A500083D5200084B
:1001B00010B5054C237833B9044B13B10448AFF3A1
:1001C00000800123237010BD6001002000000000AA
:1001D000001F020808B5034B1BB103490348AFF3E6
:1001E000008008BD0000000064010020001F02081C
:1001F00053B94AB9002908BF00281CBF4FF0FF318E
:100200004FF0FF3000F072B9ADF1080C6DE904CE8B
:1002100000F006F8DDF804E0DDE9022304B07047E1
:100220002DE9F047089E04468846002B4BD18A42B0
:10023000154667D9B2FA82F24AB1C2F1200701FA33
:1002400002F320FA07F7954047EA030894404FEA83
:10025000154E230CB8FBFEF71FFA85FC0EFB178822
:1002600043EA084307FB0CF1994209D9EB1807F15F
:10027000FF3080F01B81994240F21881023F2B44ED
:100280005B1AA4B2B3FBFEF00EFB103344EA034446
:1002900000FB0CFCA44509D92C1900F1FF3380F0B8
:1002A0000781A44540F2048102382C4440EA07400B
:1002B000A4EB0C0400271EB1D4400023C6E9004380
:1002C0003946BDE8F0878B4209D9002E00F0EB805B
:1002D0000027C6E9000138463946BDE8F087B3FA81
:1002E00083F7002F47D18B4202D3824200F2FA807B
:1002F000841A61EB030301209846002EE0D0C6E982
:100300000048DDE702B9FFDEB2FA82F2002A40F0CF
:100310008F80491B4FEA154E1FFA85F80127B1FB64
:10032000FEFC230C0EFB1C1143EA014308FB0CF1FD
:10033000994207D9EB180CF1FF3002D2994200F232
:10034000CD808446591AA3B2B1FBFEF00EFB101407
:1003500043EA044408FB00F8A04507D92C1900F132
:10036000FF3302D2A04500F2B6801846A4EB080481
:1003700040EA0C409FE7C7F1200CBB4022FA0CFE7C
:100380004EEA030E01FA07F420FA0CF521FA0CF3F9
:100390004FEA1E482543B3FBF8F92C0C08FB193330
:1003A0001FFA8EFA44EA034309FB0AF49C4202FA5C
:1003B00007F200FA07F10BD91EEB030309F1FF3036
:1003C00080F087809C4240F28480A9F10209734446
:1003D0001B1BADB2B3FBF8F008FB103345EA034436
:1003E00000FB0AFAA24508D91EEB040400F1FF3312
:1003F0006BD2A24569D90238744440EA0940A0FB97
:100400000289A4EB0A044C45C2464B4654D351D052
:10041000002E69D0B1EB0A0564EB030404FA0CFC6E
:10042000FD40FC404CEA0505C6E90054002747E7BB
:10043000C2F1200320FA03F7954001FA02F021FAF5
:1004400003F34FEA154E3843010CB3FBFEF71FFAD6
:1004500085F80EFB173341EA034107FB08F38B4293
:1004600004FA02F407D9691807F1FF3C2FD28B4236
:100470002DD9023F2944CB1A81B2B3FBFEF00EFB0B
:10048000103341EA034100FB08F38B4207D9691896
:1004900000F1FF3C17D28B4215D902382944C91A02
:1004A00040EA07473BE73746304609E70746E7E6B5
:1004B0001846FBE64145ABD2B8EB020A69EB0E02E7
:1004C00001381346A4E76046E9E7184695E7674612
:1004D000D1E781467CE702382C4447E7ACF1020CB7
:1004E0002B442FE7384608E73746E9E6704700BF58
:1004F00001F0FF01102A2BDB10F0070F08D010F8D5
:10050000013B013A8B422DD010F0070F42B3F6D1D8
:10051000F0B441EA012141EA014122F007047FF0F1
:1005200000070023F0E80256083C85EA010586EA48
:10053000010685FA47F5A3FA87F586FA47F6A5FA84
:1005400087F68EB9EED1F0BC01F0FF0102F0070290
:1005500032B110F8013B013A83EA010313B1F8D13B
:100560000020704701387047002D06BF354603381C
:10057000073815F0010F07D1013015F4807F02BF55
:10058000013015F4C03F0130F0BC0138704700BFA6
:10059000704704387047704710B5102104461FF0AB
:1005A00089FE204610BDA0F10400F5E710B5002239
:1005B0008260044AC16002F1080420320460426093
:1005C00010BD00BF581F0208704770477047704742
:1005D00000F028BC38B52DED028B41F25C72044668
:1005E000835801338350DA074ED407EE903A9FEDDB
:1005F000280AF8EE677A00F1CC0527EE800A1FF092
:100600005DFEB0EE408A21F0A7F8142390FBF3F2D0
:1006100002FB130007EE900AF7EE086A38EE260A8E
:10062000F8EEE77AB3EE0E7AE0EE077AB0EE677A8C
:10063000D4ED407AF8EEE77A67EE277AF5EEC07AE5
:10064000F1EE10FA0EDBB6EE007A77EE877AFDEE69
:10065000E77A17EE901ABDEC028B2846BDE83840C9
:100660000CF0C5B9BDEEE77AB8EEC76A17EE103ADE
:1006700077EEC67A591E77EEA67AFDEEE77A17EE88
:10068000903A0B441946E6E7BDEC028B38BD00BF3B
:10069000295C8F3D10B54FF4BB5104461FF00AFE94
:1006A000204610BD10B5044600F0EEFC034B23605D
:1006B00041F25C730022E250204610BD881F020800
:1006C0000022026070477047704700F59673086813
:1006D000496803C37047704703F056B910B54FF42B
:1006E000AC7104461FF0E6FD204610BD10B504466F
:1006F000D0F85401FFF7E7FF2046BDE810400EF0A8
:10070000B9BE10B50446D0F83C0158B10368DB68A7
:10071000984738B1D4F83C0103689B689847002398
:10072000C4F83C3110BD000010B5044603F0F4F8E5
:10073000014B2360204610BDBC1F020890F8252005
:1007400012B103685B6918477047002070478180C9
:100750007047C18070470181704741817047704781
:100760007047704770477047C38810B4D21A8388A7
:100770005DF8044BC91A036812B25B6D09B21847E1
:100780004FF6FF7383814FF0FF3303621368C36139
:1007900010607047806A704770477047704790F8E4
:1007A00025201AB190F8242002B11860704780F813
:1007B0002C10704710B40468036BD4F8A4405A435B
:1007C000594323465DF8044B1847D0ED0C7A036873
:1007D000F8EEE77AD3F8A43020EE270AB5EEC00A87
:1007E000F1EE10FA17DBB6EE007A30EE070ABDEE36
:1007F000C07A17EE101A60EEA70AF5EEC00AF1EE05
:1008000010FA1CDBF6EE007A70EEA70AFDEEE07A35
:1008100017EE902A1847BDEEC07AF8EEC76A17EEB9
:10082000102A30EE660AF7EE086A30EE260A511EEC
:10083000BDEEC00A10EE102A0A441146DBE7FDEEB9
:10084000E07AB8EEE77A17EE902A70EEC70AB7EEB4
:10085000087A70EE870A013AFDEEE00A10EE90CABF
:1008600094446246D6E710B40368046BD3F8B03002
:1008700062435DF8044B1847D0ED0C7A0368F8EE3C
:10088000E77AD3F8B03027EE800AB5EEC00AF1EE71
:1008900010FA08DBF6EE007A30EE270AFDEEC07A99
:1008A00017EE902A1847FDEEC07AB8EEE77A17EEF9
:1008B000902A30EE470AB7EE087A30EE070A013A7E
:1008C000BDEEC00A10EE10CA94446246EAE710B4C6
:1008D0000468436BD4F8BC405A43594323465DF83F
:1008E000044B1847D0ED0D7A0368F8EEE77AD3F899
:1008F000BC3020EE270AB5EEC00AF1EE10FA17DB85
:10090000B6EE007A30EE070ABDEEC07A17EE101A86
:1009100060EEA70AF5EEC00AF1EE10FA1CDBF6EE67
:10092000007A70EEA70AFDEEE07A17EE902A1847DB
:10093000BDEEC07AF8EEC76A17EE102A30EE660AEE
:10094000F7EE086A30EE260A511EBDEEC00A10EE20
:10095000102A0A441146DBE7FDEEE07AB8EEE77AAA
:1009600017EE902A70EEC70AB7EE087A70EE870A83
:10097000013AFDEEE00A10EE90CA94446246D6E7D2
:1009800010B40368446BD3F8C03062435DF8044B85
:100990001847D0ED0D7A0368F8EEE77AD3F8C03047
:1009A00027EE800AB5EEC00AF1EE10FA08DBF6EE8B
:1009B000007A30EE270AFDEEC07A17EE902A18472B
:1009C000FDEEC07AB8EEE77A17EE902A30EE470ACD
:1009D000B7EE087A30EE070A013ABDEEC00A10EE13
:1009E00010CA94446246EAE7D0F82C31026B002B1F
:1009F00007DB02EB4300022390FBF2F090FBF3F0E5
:100A000070476FF0010000FB03200138022390FBC8
:100A1000F2F090FBF3F040427047D0ED4B7A90ED4E
:100A20000C0AF8EEE77AB8EEC00A87EE800A704743
:100A3000D0F82C017047D0F83031026B002B07DB67
:100A400002EB4300022390FBF2F090FBF3F07047BF
:100A50006FF0010000FB03200138022390FBF2F04D
:100A600090FBF3F040427047D0ED4C7A90ED0C0AC9
:100A7000F8EEE77AB8EEC00A87EE800A7047D0F841
:100A800030017047D0F83431426B002B07DB02EBAA
:100A90004300022390FBF2F090FBF3F070476FF0FD
:100AA000010000FB03200138022390FBF2F090FBD1
:100AB000F3F040427047D0ED4D7A90ED0D0AF8EE1C
:100AC000E77AB8EEC00A87EE800A7047D0F83401A2
:100AD0007047D0F83831426B002B07DB02EB430044
:100AE000022390FBF2F090FBF3F070476FF00100EF
:100AF00000FB03200138022390FBF2F090FBF3F09F
:100B000040427047D0ED4E7A90ED0D0AF8EEE77A4C
:100B1000B8EEC00A87EE800A7047D0F838017047F7
:100B200070B503680446D3F888300D4616469847DA
:100B30002368324629462046D3F89030BDE87040FD
:100B400018470368D3F8943018470368D3F8D430B3
:100B500018470368D3F8E030184710B40368046BF3
:100B6000D3F8A430002A0EDB04EB4201022291FBF1
:100B7000F4F191FBF2F1B0F91E215DF8044B013A5A
:100B80000A44494218476FF0010101FB0241013953
:100B9000022291FBF4F191FBF2F14942EBE7036889
:100BA000D3F83C311847026B03685143D3F84831FE
:100BB00018470368D3F844311847D0ED0C7A03681E
:100BC000F8EEE77AD3F8483127EE800AB5EEC00A8E
:100BD000F1EE10FA08DBF6EE007A30EE270AFDEEB1
:100BE000C07A17EE901A1847FDEEC07AB8EEE77A91
:100BF00017EE902A30EE470AB7EE087A30EE070A71
:100C0000511EBDEEC00A10EE102A0A441146EAE752
:100C1000C0F83C1170470368D3F85031184710B53D
:100C20000368D3F85C31044698470028236B07DB40
:100C300003EB400090FBF3F0022390FBF3F010BDB8
:100C40006FF0010202FB0030013890FBF3F0022349
:100C500090FBF3F04042F2E70368D3F858311847AD
:100C600010B50368D3F85C310446984794ED0C0A3C
:100C700007EE900AB8EEC00AF8EEE77A87EE800A2F
:100C800010BDD0F83C017047026B03685143D3F8A4
:100C900068311847D0ED0C7A0368F8EEE77AD3F89C
:100CA000683127EE800AB5EEC00AF1EE10FA08DBD3
:100CB000F6EE007A30EE270AFDEEC07A17EE901AB3
:100CC0001847FDEEC07AB8EEE77A17EE902A30EEBC
:100CD000470AB7EE087A30EE070A511EBDEEC00A89
:100CE00010EE102A0A441146EAE7C0F84011704796
:100CF00010B50368D3F87431044698470028236B75
:100D000007DB03EB400090FBF3F0022390FBF3F0D2
:100D100010BD6FF0010202FB0030013890FBF3F0D0
:100D2000022390FBF3F04042F2E710B50368D3F8DA
:100D300074310446984794ED0C0A07EE900AB8EE19
:100D4000C00AF8EEE77A87EE800A10BDD0F84001BD
:100D5000704710B50368026BD3F88431002904464C
:100D600010DB02EB410191FBF2F1022291FBF2F167
:100D700009B220469847D4F83C21D4F8403102FB10
:100D8000003010BD6FF0010000FB0121013991FB23
:100D9000F2F1022291FBF2F14942E9E7006B704760
:100DA000406B70470368D3F8483118470368D3F89D
:100DB0005C311847026B03685143D3F8143118476C
:100DC00070B50368D0F84461D3F81851D3F8803176
:100DD000044698472B4656F820102046BDE8704040
:100DE0001847B0F91C31B0F91E219A4207DBB0F95F
:100DF0004C01084490FBF3F103FB110109B20846D2
:100E000070474801704780F82610704790F8260018
:100E1000704701637047006B70470120704770474F
:100E2000704770477047704710B5082104461FF09F
:100E300041FA204610BD10B54FF4387104461FF03A
:100E400039FA204610BD10B541F25C7104461FF01E
:100E500031FA204610BD90F82C300BB109F030BCAF
:100E6000704700000A1E10B503DBB0F91E41944222
:100E700006DC084B084A094840F2316120F070F85E
:100E80000368D0F84441D3F88031984754F82000E3
:100E900010BD00BF662202089C23020889220208B6
:100EA0000B1E10B5044603DBB0F91E219A4206DC86
:100EB000084B094A094840F22B6120F051F80368B9
:100EC000D3F884319847D4F83C21D4F8403102FB60
:100ED000003010BD662202084D2302088922020854
:100EE0002DE9F0411E460368BDF918501B6B0446FE
:100EF000174698472368394620465B6B9847236816
:100F0000314620469A6B9047236829462046DB6B82
:100F1000BDE8F04118470000012180F825100B4979
:100F200001600022FF218280C28002814281828191
:100F3000C28102824282C0E90522C26102844284E7
:100F400080F8242080F82610826270479C430208B3
:100F500037B501AB15460FF0DBFC00284FEA401413
:100F60002A4601994FF0200004DB0FF0F0FC2044EA
:100F700003B030BD0FF0EBFC201AF9E738B5B0F93B
:100F80001441B0F81A51D0F838216319B0F8425022
:100F9000ED1AD0F834312DB2C81AD21A691EFFF7F3
:100FA000D7FF2C44013CC0EB441038BD38B5044693
:100FB000D0F82C51B0F81631D0F83021B0F8180123
:100FC0001844B4F840301B1A1BB2481B521B591E60
:100FD000FFF7BEFFB4F9163100EB431038BD000037
:100FE00070B5FF2200230272124E134A0260C0E95C
:100FF00003333268436092F87610044609B1D06C2E
:1010000000B990680368DB6A98473368B0FA80F5E6
:10101000D86C6D0928B10368DB6A9847002808BFBF
:1010200001252DB9054B064A06482C211FF098FFD3
:10103000204670BD043701208C3A0208AC2102081A
:10104000142302080A22020810B504460BF008F81F
:101050000B4A226000230122C4E90D23094AE263FE
:101060004FF6FF72A4F840202E22236384F8443008
:10107000A4F84630A4F84820E364204610BD00BF21
:10108000C8420208082002082DE9F04F04468BB040
:10109000A04600260FF006FEF04BE66348F8403B02
:1010A0004046FFF739FF0DF1280904F16C03039363
:1010B0004FF6FF7329F8043D0127E94AE2664946E5
:1010C000A4F8923084F894300398A4F87060A4F8DF
:1010D0007260A4F87460A4F87660A4F87860A4F84C
:1010E0007A60A4F87C60A4F87E60C4E92066C4F845
:1010F0008860A4F88C60A4F88E6084F8906084F80E
:1011000091700CF031FD04F19803184604F1CC0500
:101110000493FFF701FFD34BC4F898306421C4F85F
:10112000C460A4F8C86028460BF08CFBCE4BC4F812
:10113000CC3004F5077363223146C4F810322846D8
:10114000C4F80872C4F80C62C4F81462FFF732FBEA
:1011500004F56B7AC54BC4F8CC30A4F8186250463D
:101160000AF07EFFC24BC4F8AC3304F5797318461D
:10117000C4F8DC73C4F8E0630793FFF731FFBD4B9D
:10118000C4F8E43304F57F731846C4F8F863059394
:10119000FFF75AFFB84BC4F8FC3304F24C4318462F
:1011A0000693FFF751FFB54BC4F84C344FF49651FA
:1011B00004F29C400CF056FDF02332464FF07F4B7A
:1011C000009331464FF4A0734046FFF789FE49462D
:1011D000C4F868B04FF0DE0903982667ADF82460C4
:1011E0000CF0C2FCCDF800904FF49973092207214E
:1011F0000498FFF775FE4FF0FF33C4E9303B052339
:10120000A4F8C830324639462846FFF789FCCDF8A5
:1012100000904FF49973092207212846FFF760FEDA
:1012200014230093172204230A2128460BF0BCFA4A
:101230000223009306223346314628460BF0B7F9C5
:10124000642231462846FFF742FBDFF85892D4F873
:101250003014D4F834043A464FF00A0B0BF064FB18
:101260000599C4F830742846C4F834B4A4F83C7422
:10127000C4F82C940BF0CAF93A46D4F88014D4F888
:1012800084040BF051FB0699C4F880742846C4F816
:1012900084B4A4F88C64C4F87C940BF0A5F9079985
:1012A000C4F8F89350460AF0D7FDC4F8E0635146FD
:1012B00028460BF087F9D4ED407A9FED717AF8EE6D
:1012C000E77A67EE877AF5EEC07AF1EE10FAC1F2AE
:1012D000AA82B6EE007A77EE877AFDEEE77A17EE0D
:1012E000901A28460BF083FBD4ED407A9FED657A87
:1012F000F8EEE77A67EE877AF5EEC07AF1EE10FA4B
:10130000C1F2A682B6EE007A77EE877AFDEEE77A32
:1013100017EE901A28460BF06AFBD4ED407A9FED49
:101320005A7AF8EEE77A67EE877AF5EEC07AF1EE50
:1013300010FAC1F2A282B6EE007A77EE877AFDEE5D
:10134000E77A17EE901A28460BF051FBD4ED407A5D
:101350009FED4E7AF8EEE77A67EE877AF5EEC07A7F
:10136000F1EE10FAC1F29E82B6EE007A77EE877A3D
:10137000FDEEE77A17EE901A28460BF038FBD4ED15
:10138000407A9FED437AF8EEE77A67EE877AF5EEDA
:10139000C07AF1EE10FAC1F29A82B6EE007A77EED8
:1013A000877AFDEEE77A17EE901A28460BF01FFBBE
:1013B000D4ED407A9FED377AF8EEE77A67EE877AD8
:1013C000F5EEC07AF1EE10FAC1F29682B6EE007A2E
:1013D00077EE877AFDEEE77A17EE901A28460BF043
:1013E00006FBD4ED407A9FED2C7AF8EEE77A67EEB3
:1013F000877AF5EEC07AF1EE10FAC1F29282B6EE7B
:10140000007A77EE877AFDEEE77A17EE901A284693
:101410000BF0EDFAD4ED407A9FED207AF8EEE77A02
:1014200067EE877AF5EEC07AF1EE10FAC1F28E829D
:10143000B6EE007A77EE877AFDEEE77A17EE901A2D
:1014400028460BF0D4FAD4ED407A9FED157AF8EEE9
:10145000E77A67EE877AF5EEC07A4DE0E822020877
:101460006C44020804440208403C020818200208A8
:10147000504002086C3A02088041020824420208E7
:1014800026E8B0425897C142C28AC542155BBB42AA
:10149000A1B3A44221F2854242424A4212191142AA
:1014A000C722D541C59714FF6C1EB8417612CA41B8
:1014B00055A8FE41F9CD2042A9FE3D4288084D4283
:1014C000502E4842E14F2F4286FF07421554B84143
:1014D00051965E41FB0115410A243041E1F19A41E8
:1014E0002FF90442B8DC4842924B8642CCD2A1424A
:1014F000B23AB242154AB542F1EE10FAC1F23B825D
:10150000B6EE007A77EE877AFDEEE77A17EE901A5C
:1015100028460BF06CFAD4ED407A1FED1D7AF8EEF8
:10152000E77A67EE877AF5EEC07AF1EE10FAC1F24B
:101530003782B6EE007A77EE877AFDEEE77A17EE1D
:10154000901A28460BF053FAD4ED407A1FED297A11
:10155000F8EEE77A67EE877AF5EEC07AF1EE10FAE8
:10156000C1F23382B6EE007A77EE877AFDEEE77A43
:1015700017EE901A28460BF03AFAD4ED407A1FED98
:10158000347AF8EEE77A67EE877AF5EEC07AF1EE14
:1015900010FAC1F22F82B6EE007A77EE877AFDEE6E
:1015A000E77A17EE901A28460BF021FAD4ED407A2C
:1015B0001FED407AF8EEE77A67EE877AF5EEC07AAB
:1015C000F1EE10FAC1F22B82B6EE007A77EE877A4E
:1015D000FDEEE77A17EE901A28460BF008FAD4EDE4
:1015E000407A1FED4B7AF8EEE77A67EE877AF5EEF0
:1015F000C07AF1EE10FAC1F22782B6EE007A77EEE9
:10160000877AFDEEE77A17EE901A28460BF0EFF98D
:10161000D4ED407A1FED577AF8EEE77A67EE877AD5
:10162000F5EEC07AF1EE10FAC1F22382B6EE007A3E
:1016300077EE877AFDEEE77A17EE901A28460BF0E0
:10164000D6F9D4ED407A1FED627AF8EEE77A67EECC
:10165000877AF5EEC07AF1EE10FAC1F21F82B6EE8B
:10166000007A77EE877AFDEEE77A17EE901A284631
:101670000BF0BDF9D4ED407A1FED6E7AF8EEE77A03
:1016800067EE877AF5EEC07AF1EE10FAC1F21B82AE
:10169000B6EE007A77EE877AFDEEE77A17EE901ACB
:1016A00028460BF0A4F9D4ED407A1FED797AF8EED4
:1016B000E77A67EE877AF5EEC07AF1EE10FAC1F2BA
:1016C0001782B6EE007A77EE877AFDEEE77A17EEAC
:1016D000901A28460BF08BF9D4ED407A1FED857AED
:1016E000F8EEE77A67EE877AF5EEC07AF1EE10FA57
:1016F000C1F21382B6EE007A77EE877AFDEEE77AD2
:1017000017EE901A28460BF072F9D4ED407A1FEDCF
:10171000907AF8EEE77A67EE877AF5EEC07AF1EE26
:1017200010FAC1F20F82B6EE007A77EE877AFDEEFC
:10173000E77A17EE901A28460BF059F9D4ED407A63
:101740001FED9C7AF8EEE77A67EE877AF5EEC07ABD
:10175000F1EE10FAC1F20B82B6EE007A77EE877ADC
:10176000FDEEE77A17EE901A28460BF040F9D4ED1B
:10177000407A1FEDA77AF8EEE77A67EE877AF5EE02
:10178000C07AF1EE10FAC1F20782B6EE007A77EE77
:10179000877AFDEEE77A17EE901A28460BF027F9C4
:1017A000D4ED407A1FEDB37AF8EEE77A67EE877AE8
:1017B000F5EEC07AF1EE10FAC1F20382B6EE007ACD
:1017C00077EE877AFDEEE77A17EE901A28460BF04F
:1017D0000EF9D4ED407A1FEDBE7AF8EEE77A67EEA7
:1017E000877AF5EEC07AF1EE10FAC1F2FF81B6EE1B
:1017F000007A77EE877AFDEEE77A17EE901A2846A0
:101800000BF0F5F8D4ED407A1FEDCA7AF8EEE77ADE
:1018100067EE877AF5EEC07AF1EE10FAC1F2FB813D
:10182000B6EE007A77EE877AFDEEE77A17EE901A39
:1018300028460BF0DCF8D4ED407A1FEDD57AF8EEAF
:10184000E77A67EE877AF5EEC07AF1EE10FAC1F228
:10185000F781B6EE007A77EE877AFDEEE77A17EE3B
:10186000901A28460BF0C3F8D4ED407A1FEDE17AC8
:10187000F8EEE77A67EE877AF5EEC07AF1EE10FAC5
:10188000C1F2F381B6EE007A77EE877AFDEEE77A61
:1018900017EE901A28460BF0AAF8D4ED407A1FED07
:1018A000EC7AF8EEE77A67EE877AF5EEC07AF1EE39
:1018B00010FAC1F2EF81B6EE007A77EE877AFDEE8C
:1018C000E77A17EE901A28460BF091F8D4ED407A9B
:1018D0001FEDF87AF8EEE77A67EE877AF5EEC07AD0
:1018E000F1EE10FAC1F2EB81B6EE007A77EE877A6C
:1018F000FDEEE77A17EE901A28460BF078F8D4ED53
:10190000407A9FEDFE7AF8EEE77A67EE877AF5EE99
:10191000C07AF1EE10FAC1F2E781B6EE007A77EE06
:10192000877AFDEEE77A17EE901A28460BF05FF8FB
:10193000D4ED407A9FEDF27AF8EEE77A67EE877A97
:10194000F5EEC07AF1EE10FAC1F2E381B6EE007A5C
:1019500077EE877AFDEEE77A17EE901A28460BF0BD
:1019600046F8D4ED407A9FEDE77AF8EEE77A67EE35
:10197000877AF5EEC07AF1EE10FAC1F2DF81B6EEA9
:10198000007A77EE877AFDEEE77A17EE901A28460E
:101990000BF02DF8D4ED407A9FEDDB7AF8EEE77A84
:1019A00067EE877AF5EEC07AF1EE10FAC1F2DB81CC
:1019B000B6EE007A77EE877AFDEEE77A17EE901AA8
:1019C00028460BF014F8D4ED407A9FEDD07AF8EE6B
:1019D000E77A67EE877AF5EEC07AF1EE10FAC1F297
:1019E000D781B6EE007A77EE877AFDEEE77A17EECA
:1019F000901A28460AF0FBFFD4ED407A9FEDC47A96
:101A0000F8EEE77A67EE877AF5EEC07AF1EE10FA33
:101A1000C1F2D381B6EE007A77EE877AFDEEE77AEF
:101A200017EE901A28460AF0E2FFD4ED407A9FEDB7
:101A3000B97AF8EEE77A67EE877AF5EEC07AF1EEDA
:101A400010FAC1F2CF81B6EE007A77EE877AFDEE1A
:101A5000E77A17EE901A28460AF0C9FFD4ED407ACB
:101A60009FEDAD7AF8EEE77A67EE877AF5EEC07A09
:101A7000F1EE10FAC1F2CB81B6EE007A77EE877AFA
:101A8000FDEEE77A17EE901A28460AF0B0FFD4ED83
:101A9000407A9FEDA27AF8EEE77A67EE877AF5EE64
:101AA000C07AF1EE10FAC1F2C781B6EE007A77EE95
:101AB000877AFDEEE77A17EE901A28460AF097FF2C
:101AC000D4ED407A9FED967AF8EEE77A67EE877A62
:101AD000F5EEC07AF1EE10FAC1F2C381B6EE007AEB
:101AE00077EE877AFDEEE77A17EE901A28460AF02D
:101AF0007EFFD4ED407A9FED8B7AF8EEE77A67EEC1
:101B0000877AF5EEC07AF1EE10FAC1F2BF81B6EE37
:101B1000007A77EE877AFDEEE77A17EE901A28467C
:101B20000AF065FFD4ED407A9FED7F7AF8EEE77A10
:101B300067EE877AF5EEC07AF1EE10FAC1F2BB815A
:101B4000B6EE007A77EE877AFDEEE77A17EE901A16
:101B500028460AF04CFFD4ED407A9FED747AF8EEF7
:101B6000E77A67EE877AF5EEC07AF1EE10FAC1F205
:101B7000B781B6EE007A77EE877AFDEEE77A17EE58
:101B8000901A28460AF033FFD4ED407A9FED687A28
:101B9000F8EEE77A67EE877AF5EEC07AF1EE10FAA2
:101BA000C1F2B381B6EE007A77EE877AFDEEE77A7E
:101BB00017EE901A28460AF01AFFD4ED407A9FEDEE
:101BC0005D7AF8EEE77A67EE877AF5EEC07AF1EEA5
:101BD00010FAC1F2AF81B6EE007A77EE877AFDEEA9
:101BE000E77A17EE901A28460AF001FFD4ED407A02
:101BF0009FED517AF8EEE77A67EE877AF5EEC07AD4
:101C0000F1EE10FAC1F2AB81B6EE007A77EE877A88
:101C1000FDEEE77A17EE901A28460AF0E8FED4EDBA
:101C2000407A9FED467AF8EEE77A67EE877AF5EE2E
:101C3000C07AF1EE10FAC1F2A781B6EE007A77EE23
:101C4000877AFDEEE77A17EE901A28460AF0CFFE63
:101C5000D4ED407A9FED3A7AF8EEE77A67EE877A2C
:101C6000F5EEC07AF1EE10FAC1F2A381B6EE007A79
:101C700077EE877AFDEEE77A17EE901A28460AF09B
:101C8000B6FED4ED407A9FED2F7AF8EEE77A67EE54
:101C9000877AF5EEC07AF1EE10FAC1F29F81B6EEC6
:101CA000007A77EE877AFDEEE77A17EE901A2846EB
:101CB0000AF09DFED4ED407A9FED237AF8EEE77AA4
:101CC00067EE877AF5EEC07AF1EE10FAC1F29B81E9
:101CD000B6EE007A77EE877AFDEEE77A17EE901A85
:101CE00028460AF084FED4ED407A9FED187AF8EE8B
:101CF000E77A67EE877AF5EEC07A51E0FAD0AB4228
:101D0000C16599425177834256DE5F4291724742E4
:101D10006D1C434292965242C7037042D8B9884222
:101D2000D3B695429CF09942696192422BAF7D42B5
:101D3000592D4442907D0242777B8A416FB0C34067
:101D4000A1A3983FF8B8554042133D410252C44107
:101D500050581A42999F4B4228356C42F7067742F9
:101D6000D2DA6C42F8FA53421E85364243C71F420C
:101D7000665119426575284265D34C42A6278042B8
:101D800096399C428374B442CE38C34287CFC44252
:101D90004554B84235F29F4239658042A1BB3F426B
:101DA000F1EE10FAC1F24481B6EE007A77EE877A4E
:101DB000FDEEE77A17EE901A28460AF018FED4EDE9
:101DC000407A1FED1D7AF8EEE77A67EE877AF5EE36
:101DD000C07AF1EE10FAC1F24081B6EE007A77EEE9
:101DE000877AFDEEE77A17EE901A28460AF0FFFD93
:101DF000D4ED407A1FED297AF8EEE77A67EE877A1C
:101E0000F5EEC07AF1EE10FAC1F23C81B6EE007A3E
:101E100077EE877AFDEEE77A17EE901A28460AF0F9
:101E2000E6FDD4ED407A1FED347AF8EEE77A67EEFE
:101E3000877AF5EEC07AF1EE10FAC1F23881B6EE8B
:101E4000007A77EE877AFDEEE77A17EE901A284649
:101E50000AF0CDFDD4ED407A1FED407AF8EEE77A36
:101E600067EE877AF5EEC07AF1EE10FAC1F23481AE
:101E7000B6EE007A77EE877AFDEEE77A17EE901AE3
:101E800028460AF0B4FDD4ED407A1FED4B7AF8EE07
:101E9000E77A67EE877AF5EEC07AF1EE10FAC1F2D2
:101EA0003081B6EE007A77EE877AFDEEE77A17EEAC
:101EB000901A28460AF09BFDD4ED407A1FED577A20
:101EC000F8EEE77A67EE877AF5EEC07AF1EE10FA6F
:101ED000C1F22C81B6EE007A77EE877AFDEEE77AD2
:101EE00017EE901A28460AF082FDD4ED407A1FEDD5
:101EF000627AF8EEE77A67EE877AF5EEC07AF1EE6D
:101F000010FAC1F22881B6EE007A77EE877AFDEEFC
:101F1000E77A17EE901A28460AF069FDD4ED407A68
:101F20001FED6E7AF8EEE77A67EE877AF5EEC07A03
:101F3000F1EE10FAC1F22481B6EE007A77EE877ADC
:101F4000FDEEE77A17EE901A28460AF050FDD4ED20
:101F5000407A1FED797AF8EEE77A67EE877AF5EE48
:101F6000C07AF1EE10FAC1F22081B6EE007A77EE77
:101F7000877AFDEEE77A17EE901A28460AF037FDC9
:101F8000D4ED407A1FED857AF8EEE77A67EE877A2E
:101F9000F5EEC07AF1EE10FAC1F21C81B6EE007ACD
:101FA00077EE877AFDEEE77A17EE901A28460AF068
:101FB0001EFDD4ED407A1FED907AF8EEE77A67EED9
:101FC000877AF5EEC07AF1EE10FAC1F21881B6EE1A
:101FD000007A77EE877AFDEEE77A17EE901A2846B8
:101FE0000AF005FDD4ED407A1FED9C7AF8EEE77A11
:101FF00067EE877AF5EEC07AF1EE10FAC1F214813D
:10200000B6EE007A77EE877AFDEEE77A17EE901A51
:1020100028460AF0ECFCD4ED407A1FEDA77AF8EEE2
:10202000E77A67EE877AF5EEC07AF1EE10FAC1F240
:102030001081B6EE007A77EE877AFDEEE77A17EE3A
:10204000901A28460AF0D3FCD4ED407A1FEDB37AFB
:10205000F8EEE77A67EE877AF5EEC07AF1EE10FADD
:10206000C1F20C81B6EE007A77EE877AFDEEE77A60
:1020700017EE901A28460AF0BAFCD4ED407A1FED0C
:10208000BE7AF8EEE77A67EE877AF5EEC07AF1EE7F
:1020900010FAC1F20881B6EE007A77EE877AFDEE8B
:1020A000E77A17EE901A28460AF0A1FCD4ED407AA0
:1020B0001FEDCA7AF8EEE77A67EE877AF5EEC07A16
:1020C000F1EE10FAC1F20481B6EE007A77EE877A6B
:1020D000FDEEE77A17EE901A28460AF088FCD4ED58
:1020E000407A1FEDD57AF8EEE77A67EE877AF5EE5B
:1020F000C07AF1EE10FAC1F20081B6EE007A77EE06
:10210000877AFDEEE77A17EE901A28460AF06FFC00
:10211000D4ED407A1FEDE17AF8EEE77A67EE877A40
:10212000F5EEC07AF1EE10FAC1F2FC80B6EE007A5C
:1021300077EE877AFDEEE77A17EE901A28460AF0D6
:1021400056FCD4ED407A1FEDEC7AF8EEE77A67EEB4
:10215000877AF5EEC07AF1EE10FAC1F2F880B6EEA9
:10216000007A77EE877AFDEEE77A17EE901A284626
:102170000AF03DFCD4ED407A1FEDF87AF8EEE77AEC
:1021800067EE877AF5EEC07AF1EE10FAC1F2F480CC
:10219000B6EE007A77EE877AFDEEE77A17EE901AC0
:1021A00028460AF024FCD4ED407A9FEDFE7AF8EE42
:1021B000E77A67EE877AF5EEC07AF1EE10FAC1F2AF
:1021C000F080B6EE007A77EE877AFDEEE77A17EECA
:1021D000901A28460AF00BFCD4ED407A9FEDF27A73
:1021E000F8EEE77A67EE877AF5EEC07AF1EE10FA4C
:1021F000C1F2EC80B6EE007A77EE877AFDEEE77AF0
:1022000017EE901A28460AF0F2FBD4ED407A9FEDC3
:10221000E77AF8EEE77A67EE877AF5EEC07AF1EEC4
:1022200010FAC1F2E880B6EE007A77EE877AFDEE1A
:10223000E77A17EE901A28460AF0D9FBD4ED407AD7
:102240009FEDDB7AF8EEE77A67EE877AF5EEC07AF3
:10225000F1EE10FAC1F2E480B6EE007A77EE877AFA
:10226000FDEEE77A17EE901A28460AF0C0FBD4ED8F
:10227000407A9FEDD07AF8EEE77A67EE877AF5EE4E
:10228000C07AF1EE10FAC1F2E080B6EE007A77EE95
:10229000877AFDEEE77A17EE901A28460AF0A7FB38
:1022A000D4ED407A9FEDC47AF8EEE77A67EE877A4C
:1022B000F5EEC07AF1EE10FAC1F2DC80B6EE007AEB
:1022C00077EE877AFDEEE77A17EE901A28460AF045
:1022D0008EFBD4ED407A9FEDB97AF8EEE77A67EE9F
:1022E000877AF5EEC07AF1EE10FAC1F2D880B6EE38
:1022F000007A77EE877AFDEEE77A17EE901A284695
:102300000AF075FBD4ED407A9FEDAD7AF8EEE77AEE
:1023100067EE877AF5EEC07AF1EE10FAC1F2D4805A
:10232000B6EE007A77EE877AFDEEE77A17EE901A2E
:1023300028460AF05CFBD4ED407A9FEDA27AF8EED5
:10234000E77A67EE877AF5EEC07AF1EE10FAC1F21D
:10235000D080B6EE007A77EE877AFDEEE77A17EE58
:10236000901A28460AF043FBD4ED407A9FED967A06
:10237000F8EEE77A67EE877AF5EEC07AF1EE10FABA
:10238000C1F2CC80B6EE007A77EE877AFDEEE77A7E
:1023900017EE901A28460AF02AFBD4ED407A9FEDFA
:1023A0008B7AF8EEE77A67EE877AF5EEC07AF1EE8F
:1023B00010FAC1F2C880B6EE007A77EE877AFDEEA9
:1023C000E77A17EE901A28460AF011FBD4ED407A0E
:1023D0009FED7F7AF8EEE77A67EE877AF5EEC07ABE
:1023E000F1EE10FAC1F2C480B6EE007A77EE877A89
:1023F000FDEEE77A17EE901A28460AF0F8FAD4EDC7
:10240000407A9FED747AF8EEE77A67EE877AF5EE18
:10241000C07AF1EE10FAC1F2C080B6EE007A77EE23
:10242000877AFDEEE77A17EE901A28460AF0DFFA6F
:10243000D4ED407A9FED687AF8EEE77A67EE877A16
:10244000F5EEC07AF1EE10FAC1F2BC80B6EE007A79
:1024500077EE877AFDEEE77A17EE901A28460AF0B3
:10246000C6FAD4ED407A9FED5D7AF8EEE77A67EE32
:10247000877AF5EEC07AF1EE10FAC1F2B880B6EEC6
:10248000007A77EE877AFDEEE77A17EE901A284603
:102490000AF0ADFAD4ED407A9FED517AF8EEE77A82
:1024A00067EE877AF5EEC07AF1EE10FAC1F2B480E9
:1024B000B6EE007A77EE877AFDEEE77A17EE901A9D
:1024C00028460AF094FAD4ED407A9FED467AF8EE69
:1024D000E77A67EE877AF5EEC07AF1EE10FAC1F28C
:1024E000B080B6EE007A77EE877AFDEEE77A17EEE7
:1024F000901A28460AF07BFAD4ED407A9FED3A7A9A
:10250000F8EEE77A67EE877AF5EEC07AF1EE10FA28
:10251000C1F2AC80B6EE007A77EE877AFDEEE77A0C
:1025200017EE901A28460AF062FAD4ED407A9FED31
:102530002F7AF8EEE77A67EE877AF5EEC07AF1EE59
:1025400010FAC1F2A880B6EE007A77EE877AFDEE37
:10255000E77A17EE901A28460AF049FAD4ED407A45
:102560009FED237AF8EEE77A67EE877AF5EEC07A88
:10257000F1EE10FAC1F2A480B6EE007A77EE877A17
:10258000FDEEE77A17EE901A28460AF030FAD4EDFD
:10259000407A9FED187AF8EEE77A67EE877AF5EEE3
:1025A000C07A3BE0A71909420FC6CC41510FB84190
:1025B00051F8D04151C404421551264272BB4142E8
:1025C000ABAF4D428E5045421B7C294239A100429F
:1025D000C360AA4164234C41D50F1241B9603F4109
:1025E0002CF1AA41C9D70F42949E5442E1858B42F7
:1025F000EF74A54283B1B342A781B4429C36A9428D
:10260000D4CA95425AB87F424A865A42263F45422A
:10261000306C4442CCCA564266AA7542F1EE10FABA
:10262000C1F26380B6EE007A77EE877AFDEEE77A44
:1026300017EE901A28460AF0DAF9D4ED407A1FED29
:10264000127AF8EEE77A67EE877AF5EEC07AF1EE65
:1026500010FAC1F25F80B6EE007A77EE877AFDEE6F
:10266000E77A17EE901A28460AF0C1F9D4ED407ABD
:102670001FED1E7AF8EEE77A67EE877AF5EEC07AFC
:10268000F1EE10FAC1F25B80B6EE007A77EE877A4F
:10269000FDEEE77A17EE901A28460AF0A8F9D4ED75
:1026A000407A1FED297AF8EEE77A67EE877AF5EE41
:1026B000C07AF1EE10FAC1F25780B6EE007A77EEEA
:1026C000877AFDEEE77A17EE901A28460AF08FF91E
:1026D000D4ED407A1FED357AF8EEE77A67EE877A27
:1026E000F5EEC07AF1EE10FAC1F25380B6EE007A40
:1026F00077EE877AFDEEE77A17EE901A28460AF011
:1027000076F9D4ED407A1FED407AF8EEE77A67EE7D
:10271000877AF5EEC07AF1EE10FAC1F24F80B6EE8C
:10272000007A77EE877AFDEEE77A17EE901A284660
:102730000AF05DF9D4ED407A1FED4C7AF8EEE77AB5
:1027400067EE877AF5EEC07AF1EE10FAC1F24B80AF
:10275000B6EE007A77EE877AFDEEE77A17EE901AFA
:1027600028460AF044F9D4ED407A1FED577AF8EE86
:10277000E77A67EE877AF5EEC07AF1EE10FAC1F2E9
:102780004780B6EE007A77EE877AFDEEE77A17EEAD
:10279000901A28460AF02BF9D4ED407A1FED637A9F
:1027A000F8EEE77A67EE877AF5EEC07AF1EE10FA86
:1027B000C1F24380B6EE007A77EE877AFDEEE77AD3
:1027C00017EE901A28460AF012F9D4ED407A1FED60
:1027D0006E7AF8EEE77A67EE877AF5EEC07AF1EE78
:1027E00010FAC1F23F80B6EE007A77EE877AFDEEFE
:1027F000E77A17EE901A261D28460AF0F8F84146A7
:10280000304607F0A1FF0399304607F09DFF049979
:10281000304607F099FF3046294607F095FF2046DD
:102820000BB0BDE8F08FBDEEE77AF8EEC76A17EEA1
:10283000103A77EEE67AF7EE086A77EEA67A591E36
:10284000FDEEE77A17EE903A0B441946FEF749BDC4
:10285000BDEEE77AF8EEC76A17EE103A77EEE67A41
:10286000F7EE086A77EEA67A591EFDEEE77A17EEC4
:10287000903A0B441946FEF74DBDBDEEE77AF8EEEF
:10288000C76A17EE103A77EEE67AF7EE086A77EE47
:10289000A67A591EFDEEE77A17EE903A0B441946D8
:1028A000FEF751BDBDEEE77AF8EEC76A17EE103AB3
:1028B00077EEE67AF7EE086A77EEA67A591EFDEE15
:1028C000E77A17EE903A0B441946FEF755BDBDEE78
:1028D000E77AF8EEC76A17EE103A77EEE67AF7EE87
:1028E000086A77EEA67A591EFDEEE77A17EE903A5F
:1028F0000B441946FEF759BDBDEEE77AF8EEC76AFC
:1029000017EE103A77EEE67AF7EE086A77EEA67AD7
:10291000591EFDEEE77A17EE903A0B441946FEF782
:102920005DBDBDEEE77AF8EEC76A17EE103A77EEB6
:10293000E67AF7EE086A77EEA67A591EFDEEE77A98
:1029400017EE903A0B441946FEF761BDBDEEE77AEB
:10295000F8EEC76A17EE103A77EEE67AF7EE086AF5
:1029600077EEA67A591EFDEEE77A17EE903A0B4401
:102970001946FEF765BDBDEEE77AF8EEC76A17EEB9
:10298000103A77EEE67AF7EE086A77EEA67A591EE5
:10299000FDEEE77A17EE903A0B441946FEF7B8BD04
:1029A000BDEEE77AF8EEC76A17EE103A77EEE67AF0
:1029B000F7EE086A77EEA67A591EFDEEE77A17EE73
:1029C000903A0B441946FEF7BCBDBDEEE77AF8EE2F
:1029D000C76A17EE103A77EEE67AF7EE086A77EEF6
:1029E000A67A591EFDEEE77A17EE903A0B44194687
:1029F000FEF7C0BDBDEEE77AF8EEC76A17EE103AF3
:102A000077EEE67AF7EE086A77EEA67A591EFDEEC3
:102A1000E77A17EE903A0B441946FEF7C4BDBDEEB7
:102A2000E77AF8EEC76A17EE103A77EEE67AF7EE35
:102A3000086A77EEA67A591EFDEEE77A17EE903A0D
:102A40000B441946FEF7C8BDBDEEE77AF8EEC76A3B
:102A500017EE103A77EEE67AF7EE086A77EEA67A86
:102A6000591EFDEEE77A17EE903A0B441946FEF731
:102A7000CCBDBDEEE77AF8EEC76A17EE103A77EEF6
:102A8000E67AF7EE086A77EEA67A591EFDEEE77A47
:102A900017EE903A0B441946FEF7D0BDBDEEE77A2B
:102AA000F8EEC76A17EE103A77EEE67AF7EE086AA4
:102AB00077EEA67A591EFDEEE77A17EE903A0B44B0
:102AC0001946FEF7D4BDBDEEE77AF8EEC76A17EEF9
:102AD000103A77EEE67AF7EE086A77EEA67A591E94
:102AE000FDEEE77A17EE903A0B441946FEF7D8BD93
:102AF000BDEEE77AF8EEC76A17EE103A77EEE67A9F
:102B0000F7EE086A77EEA67A591EFDEEE77A17EE21
:102B1000903A0B441946FEF7DCBDBDEEE77AF8EEBD
:102B2000C76A17EE103A77EEE67AF7EE086A77EEA4
:102B3000A67A591EFDEEE77A17EE903A0B44194635
:102B4000FEF7E0BDBDEEE77AF8EEC76A17EE103A81
:102B500077EEE67AF7EE086A77EEA67A591EFDEE72
:102B6000E77A17EE903A0B441946FEF7E4BDBDEE46
:102B7000E77AF8EEC76A17EE103A77EEE67AF7EEE4
:102B8000086A77EEA67A591EFDEEE77A17EE903ABC
:102B90000B441946FEF7E8BDBDEEE77AF8EEC76ACA
:102BA00017EE103A77EEE67AF7EE086A77EEA67A35
:102BB000591EFDEEE77A17EE903A0B441946FEF7E0
:102BC000ECBDBDEEE77AF8EEC76A17EE103A77EE85
:102BD000E67AF7EE086A77EEA67A591EFDEEE77AF6
:102BE00017EE903A0B441946FEF7F0BDBDEEE77ABA
:102BF000F8EEC76A17EE103A77EEE67AF7EE086A53
:102C000077EEA67A591EFDEEE77A17EE903A0B445E
:102C10001946FEF7F4BDBDEEE77AF8EEC76A17EE87
:102C2000103A77EEE67AF7EE086A77EEA67A591E42
:102C3000FDEEE77A17EE903A0B441946FEF7F8BD21
:102C4000BDEEE77AF8EEC76A17EE103A77EEE67A4D
:102C5000F7EE086A77EEA67A591EFDEEE77A17EED0
:102C6000903A0B441946FEF7FCBDBDEEE77AF8EE4C
:102C7000C76A17EE103A77EEE67AF7EE086A77EE53
:102C8000A67A591EFDEEE77A17EE903A0B441946E4
:102C9000FEF700BEBDEEE77AF8EEC76A17EE103A0F
:102CA00077EEE67AF7EE086A77EEA67A591EFDEE21
:102CB000E77A17EE903A0B441946FEF704BEBDEED4
:102CC000E77AF8EEC76A17EE103A77EEE67AF7EE93
:102CD000086A77EEA67A591EFDEEE77A17EE903A6B
:102CE0000B441946FEF708BEBDEEE77AF8EEC76A58
:102CF00017EE103A77EEE67AF7EE086A77EEA67AE4
:102D0000591EFDEEE77A17EE903A0B441946FEF78E
:102D10000CBEBDEEE77AF8EEC76A17EE103A77EE12
:102D2000E67AF7EE086A77EEA67A591EFDEEE77AA4
:102D300017EE903A0B441946FEF710BEBDEEE77A47
:102D4000F8EEC76A17EE103A77EEE67AF7EE086A01
:102D500077EEA67A591EFDEEE77A17EE903A0B440D
:102D60001946FEF714BEBDEEE77AF8EEC76A17EE15
:102D7000103A77EEE67AF7EE086A77EEA67A591EF1
:102D8000FDEEE77A17EE903A0B441946FEF718BEAF
:102D9000BDEEE77AF8EEC76A17EE103A77EEE67AFC
:102DA000F7EE086A77EEA67A591EFDEEE77A17EE7F
:102DB000903A0B441946FEF71CBEBDEEE77AF8EEDA
:102DC000C76A17EE103A77EEE67AF7EE086A77EE02
:102DD000A67A591EFDEEE77A17EE903A0B44194693
:102DE000FEF720BEBDEEE77AF8EEC76A17EE103A9E
:102DF00077EEE67AF7EE086A77EEA67A591EFDEED0
:102E0000E77A17EE903A0B441946FEF724BEBDEE62
:102E1000E77AF8EEC76A17EE103A77EEE67AF7EE41
:102E2000086A77EEA67A591EFDEEE77A17EE903A19
:102E30000B441946FEF728BEBDEEE77AF8EEC76AE6
:102E400017EE103A77EEE67AF7EE086A77EEA67A92
:102E5000591EFDEEE77A17EE903A0B441946FEF73D
:102E60002CBEBDEEE77AF8EEC76A17EE103A77EEA1
:102E7000E67AF7EE086A77EEA67A591EFDEEE77A53
:102E800017EE903A0B441946FEF730BEBDEEE77AD6
:102E9000F8EEC76A17EE103A77EEE67AF7EE086AB0
:102EA00077EEA67A591EFDEEE77A17EE903A0B44BC
:102EB0001946FEF734BEBDEEE77AF8EEC76A17EEA4
:102EC000103A77EEE67AF7EE086A77EEA67A591EA0
:102ED000FDEEE77A17EE903A0B441946FEF738BE3E
:102EE000BDEEE77AF8EEC76A17EE103A77EEE67AAB
:102EF000F7EE086A77EEA67A591EFDEEE77A17EE2E
:102F0000903A0B441946FEF73CBEBDEEE77AF8EE68
:102F1000C76A17EE103A77EEE67AF7EE086A77EEB0
:102F2000A67A591EFDEEE77A17EE903A0B44194641
:102F3000FEF740BEBDEEE77AF8EEC76A17EE103A2C
:102F400077EEE67AF7EE086A77EEA67A591EFDEE7E
:102F5000E77A17EE903A0B441946FEF744BEBDEEF1
:102F6000E77AF8EEC76A17EE103A77EEE67AF7EEF0
:102F7000086A77EEA67A591EFDEEE77A17EE903AC8
:102F80000B441946FEF748BEBDEEE77AF8EEC76A75
:102F900017EE103A77EEE67AF7EE086A77EEA67A41
:102FA000591EFDEEE77A17EE903A0B441946FEF7EC
:102FB0004CBEBDEEE77AF8EEC76A17EE103A77EE30
:102FC000E67AF7EE086A77EEA67A591EFDEEE77A02
:102FD00017EE903A0B441946FEF750BEBDEEE77A65
:102FE000F8EEC76A17EE103A77EEE67AF7EE086A5F
:102FF00077EEA67A591EFDEEE77A17EE903A0B446B
:103000001946FEF754BEBDEEE77AF8EEC76A17EE32
:10301000103A77EEE67AF7EE086A77EEA67A591E4E
:10302000FDEEE77A17EE903A0B441946FEF758BECC
:10303000BDEEE77AF8EEC76A17EE103A77EEE67A59
:10304000F7EE086A77EEA67A591EFDEEE77A17EEDC
:10305000903A0B441946FEF7AFBEBDEEE77AF8EEA4
:10306000C76A17EE103A77EEE67AF7EE086A77EE5F
:10307000A67A591EFDEEE77A17EE903A0B441946F0
:10308000FEF7B3BEBDEEE77AF8EEC76A17EE103A68
:1030900077EEE67AF7EE086A77EEA67A591EFDEE2D
:1030A000E77A17EE903A0B441946FEF7B7BEBDEE2D
:1030B000E77AF8EEC76A17EE103A77EEE67AF7EE9F
:1030C000086A77EEA67A591EFDEEE77A17EE903A77
:1030D0000B441946FEF7BBBEBDEEE77AF8EEC76AB1
:1030E00017EE103A77EEE67AF7EE086A77EEA67AF0
:1030F000591EFDEEE77A17EE903A0B441946FEF79B
:10310000BFBEBDEEE77AF8EEC76A17EE103A77EE6B
:10311000E67AF7EE086A77EEA67A591EFDEEE77AB0
:1031200017EE903A0B441946FEF7C3BEBDEEE77AA0
:10313000F8EEC76A17EE103A77EEE67AF7EE086A0D
:1031400077EEA67A591EFDEEE77A17EE903A0B4419
:103150001946FEF7C7BEBDEEE77AF8EEC76A17EE6E
:10316000103A77EEE67AF7EE086A77EEA67A591EFD
:10317000FDEEE77A17EE903A0B441946FEF7CBBE08
:10318000BDEEE77AF8EEC76A17EE103A77EEE67A08
:10319000F7EE086A77EEA67A591EFDEEE77A17EE8B
:1031A000903A0B441946FEF7CFBEBDEEE77AF8EE33
:1031B000C76A17EE103A77EEE67AF7EE086A77EE0E
:1031C000A67A591EFDEEE77A17EE903A0B4419469F
:1031D000FEF7D3BEBDEEE77AF8EEC76A17EE103AF7
:1031E00077EEE67AF7EE086A77EEA67A591EFDEEDC
:1031F000E77A17EE903A0B441946FEF7D7BEBDEEBC
:10320000E77AF8EEC76A17EE103A77EEE67AF7EE4D
:10321000086A77EEA67A591EFDEEE77A17EE903A25
:103220000B441946FEF7DBBEBDEEE77AF8EEC76A3F
:1032300017EE103A77EEE67AF7EE086A77EEA67A9E
:10324000591EFDEEE77A17EE903A0B441946FEF749
:10325000DFBEBDEEE77AF8EEC76A17EE103A77EEFA
:10326000E67AF7EE086A77EEA67A591EFDEEE77A5F
:1032700017EE903A0B441946FEF7E3BEBDEEE77A2F
:10328000F8EEC76A17EE103A77EEE67AF7EE086ABC
:1032900077EEA67A591EFDEEE77A17EE903A0B44C8
:1032A0001946FEF7E7BEBDEEE77AF8EEC76A17EEFD
:1032B000103A77EEE67AF7EE086A77EEA67A591EAC
:1032C000FDEEE77A17EE903A0B441946FEF7EBBE97
:1032D000BDEEE77AF8EEC76A17EE103A77EEE67AB7
:1032E000F7EE086A77EEA67A591EFDEEE77A17EE3A
:1032F000903A0B441946FEF7EFBEBDEEE77AF8EEC2
:10330000C76A17EE103A77EEE67AF7EE086A77EEBC
:10331000A67A591EFDEEE77A17EE903A0B4419464D
:10332000FEF7F3BEBDEEE77AF8EEC76A17EE103A85
:1033300077EEE67AF7EE086A77EEA67A591EFDEE8A
:10334000E77A17EE903A0B441946FEF7F7BEBDEE4A
:10335000E77AF8EEC76A17EE103A77EEE67AF7EEFC
:10336000086A77EEA67A591EFDEEE77A17EE903AD4
:103370000B441946FEF7FBBEBDEEE77AF8EEC76ACE
:1033800017EE103A77EEE67AF7EE086A77EEA67A4D
:10339000591EFDEEE77A17EE903A0B441946FEF7F8
:1033A000FFBEBDEEE77AF8EEC76A17EE103A77EE89
:1033B000E67AF7EE086A77EEA67A591EFDEEE77A0E
:1033C00017EE903A0B441946FEF703BFBDEEE77ABD
:1033D000F8EEC76A17EE103A77EEE67AF7EE086A6B
:1033E00077EEA67A591EFDEEE77A17EE903A0B4477
:1033F0001946FEF707BFBDEEE77AF8EEC76A17EE8B
:10340000103A77EEE67AF7EE086A77EEA67A591E5A
:10341000FDEEE77A17EE903A0B441946FEF70BBF24
:10342000BDEEE77AF8EEC76A17EE103A77EEE67A65
:10343000F7EE086A77EEA67A591EFDEEE77A17EEE8
:10344000903A0B441946FEF70FBFBDEEE77AF8EE4F
:10345000C76A17EE103A77EEE67AF7EE086A77EE6B
:10346000A67A591EFDEEE77A17EE903A0B441946FC
:10347000FEF713BFBDEEE77AF8EEC76A17EE103A13
:1034800077EEE67AF7EE086A77EEA67A591EFDEE39
:10349000E77A17EE903A0B441946FEF717BFBDEED8
:1034A000E77AF8EEC76A17EE103A77EEE67AF7EEAB
:1034B000086A77EEA67A591EFDEEE77A17EE903A83
:1034C0000B441946FEF71BBFBDEEE77AF8EEC76A5C
:1034D00017EE103A77EEE67AF7EE086A77EEA67AFC
:1034E000591EFDEEE77A17EE903A0B441946FEF7A7
:1034F0001FBFBDEEE77AF8EEC76A17EE103A77EE17
:10350000E67AF7EE086A77EEA67A591EFDEEE77ABC
:1035100017EE903A0B441946FEF723BFBDEEE77A4B
:10352000F8EEC76A17EE103A77EEE67AF7EE086A19
:1035300077EEA67A591EFDEEE77A17EE903A0B4425
:103540001946FEF727BFBDEEE77AF8EEC76A17EE19
:10355000103A77EEE67AF7EE086A77EEA67A591E09
:10356000FDEEE77A17EE903A0B441946FEF72BBFB3
:10357000BDEEE77AF8EEC76A17EE103A77EEE67A14
:10358000F7EE086A77EEA67A591EFDEEE77A17EE97
:10359000903A0B441946FEF72FBFBDEEE77AF8EEDE
:1035A000C76A17EE103A77EEE67AF7EE086A77EE1A
:1035B000A67A591EFDEEE77A17EE903A0B441946AB
:1035C000FEF733BFBDEEE77AF8EEC76A17EE103AA2
:1035D00077EEE67AF7EE086A77EEA67A591EFDEEE8
:1035E000E77A17EE903A0B441946FEF737BFBDEE67
:1035F000E77AF8EEC76A17EE103A77EEE67AF7EE5A
:10360000086A77EEA67A591EFDEEE77A17EE903A31
:103610000B441946FEF73BBFBDEEE77AF8EEC76AEA
:1036200017EE103A77EEE67AF7EE086A77EEA67AAA
:10363000591EFDEEE77A17EE903A0B441946FEF755
:103640003FBFBDEEE77AF8EEC76A17EE103A77EEA5
:10365000E67AF7EE086A77EEA67A591EFDEEE77A6B
:1036600017EE903A0B441946FEF743BFBDEEE77ADA
:10367000F8EEC76A17EE103A77EEE67AF7EE086AC8
:1036800077EEA67A591EFDEEE77A17EE903A0B44D4
:103690001946FEF747BFBDEEE77AF8EEC76A17EEA8
:1036A000103A77EEE67AF7EE086A77EEA67A591EB8
:1036B000FDEEE77A17EE903A0B441946FEF74BBF42
:1036C000BDEEE77AF8EEC76A17EE103A77EEE67AC3
:1036D000F7EE086A77EEA67A591EFDEEE77A17EE46
:1036E000903A0B441946FEF74FBFBDEEE77AF8EE6D
:1036F000C76A17EE103A77EEE67AF7EE086A77EEC9
:10370000A67A591EFDEEE77A17EE903A0B44194659
:10371000FEF790BFBDEEE77AF8EEC76A17EE103AF3
:1037200077EEE67AF7EE086A77EEA67A591EFDEE96
:10373000E77A17EE903A0B441946FEF794BFBDEEB8
:10374000E77AF8EEC76A17EE103A77EEE67AF7EE08
:10375000086A77EEA67A591EFDEEE77A17EE903AE0
:103760000B441946FEF798BFBDEEE77AF8EEC76A3C
:1037700017EE103A77EEE67AF7EE086A77EEA67A59
:10378000591EFDEEE77A17EE903A0B441946FEF704
:103790009CBFBDEEE77AF8EEC76A17EE103A77EEF7
:1037A000E67AF7EE086A77EEA67A591EFDEEE77A1A
:1037B00017EE903A0B441946FEF7A0BFBDEEE77A2C
:1037C000F8EEC76A17EE103A77EEE67AF7EE086A77
:1037D00077EEA67A591EFDEEE77A17EE903A0B4483
:1037E0001946FEF7A4BFBDEEE77AF8EEC76A17EEFA
:1037F000103A77EEE67AF7EE086A77EEA67A591E67
:10380000FDEEE77A17EE903A0B441946FEF7A8BF93
:10381000BDEEE77AF8EEC76A17EE103A77EEE67A71
:10382000F7EE086A77EEA67A591EFDEEE77A17EEF4
:10383000903A0B441946FEF7ACBFBDEEE77AF8EEBE
:10384000C76A17EE103A77EEE67AF7EE086A77EE77
:10385000A67A591EFDEEE77A17EE903A0B44194608
:10386000FEF7B0BFBDEEE77AF8EEC76A17EE103A82
:1038700077EEE67AF7EE086A77EEA67A591EFDEE45
:10388000E77A17EE903A0B441946FEF7B4BF00BF33
:10389000704770477047416070477047012303725B
:1038A00070477047704710B4C4684168621003469F
:1038B000E40701EB02009B6848BF8A585DF8044B9F
:1038C00048BFD358184743682BB183682BB9C068E9
:1038D00000F001007047184670470120704710B58E
:1038E0000C2104461CF0E6FC204610BD10B54FF438
:1038F000AC7104461CF0DEFC204610BD10B5102152
:1039000004461CF0D7FC204610BD08B50BF0CAFEDB
:10391000BDE808400CF08EBAF8B5044617460E46CE
:103920000BF0E0FE144BC4F854611C60134E144BB2
:10393000236000253068134BC4F83851C4F83C515B
:10394000C4F84031C4F84451C4F84851C4F84C514B
:10395000C4F85071036829469B689847284600F0D0
:10396000B5FA336893F876200AB1D86C00B9986834
:1039700013F029FF2046F8BD7037012004370120DD
:103980000C240208F4230208064BC0F84831002337
:10399000C0F84C3100F5A073C0F84401C0F83C31C8
:1039A000704700BFE93A00082DE9F04707469068E4
:1039B000DDF820A0994603681B6A8846154698479B
:1039C000B0F5BB5F05D2424B424AA32142481DF0ED
:1039D000C7FA686803681B6A98470F2803D83F4BEB
:1039E0003C4AA421F2E7E86803681B6A98470B2861
:1039F00003D83B4B374AA521E8E70BF053FE0BF009
:103A000057FED9F8000010B10368DB689847D9F871
:103A1000000010B103681B689847386810B103684C
:103A20005B699847D8F8000010B103685B68984755
:103A3000386810B103681B689847D8F8000010B1C7
:103A400003689B689847E868036800215B6A9847A9
:103A5000044620B1002343600372224B0360A86830
:103A6000036800215B6A9847064608B1FCF71AFE16
:103A70006868036800215B6A9847054610B13146C3
:103A8000FCF794FDC9F80040C8F800503E60E5B16D
:103A90002B1DCAF80030C5F808A03368F56330461E
:103AA000DB6898472B6828461B68984721463046B4
:103AB0000DF0A4FA236820461B6998472368204626
:103AC0005B6998472846BDE8F0872B46E1E700BFD1
:103AD00074240208892602080225020843250208E8
:103AE000E62502085824020807B5D0F8543100939F
:103AF000D0F85021044B00F59C710448FFF754FFA7
:103B000003B05DF804FB00BF64370120603701207B
:103B100013B5002249B102AB019203F8052D0268EA
:103B2000946801AAA04702B010BD0846FBE740898F
:103B300070478089704780887047837980881844EF
:103B400080B27047C07900F07F007047C079C0092B
:103B50007047006A7047406A704770478B88806979
:103B60000A68DB0A50F823001044704710B5C2B150
:103B7000137BB3B1547BD27A240204F4E06414437F
:103B8000C26998B202EB840213888B4202D192F987
:103B9000020010BD05D8013880B204320028F3D1EC
:103BA000F7E70020F5E710B5282104461CF082FB5A
:103BB000204610BD30B589B00446BDF8505006957A
:103BC000BDF84C5005959DF8405004959DF83C502B
:103BD00003959DF8385002959DF8345001959DF855
:103BE000305000950CF098FD064B2360119BA361AB
:103BF000129BE361159B2362169B6362204609B00A
:103C000030BD00BF9827020830B5174D2C78BFF3A0
:103C10005B8F14F001048DB022D128461CF022FBEA
:103C2000F0B13F230793114B0693114B11490894B0
:103C3000CDE9044301220423CDE9013202230F22FE
:103C40000093CDE909440A2303940B48FFF7B2FF20
:103C500028461CF013FB094A094907481CF025FBBC
:103C600005480DB030BD00BF7C010020146702087C
:103C7000106702080465020880010020000000208F
:103C80005B3B000830B5164D2C78BFF35B8F14F00A
:103C900001048DB020D128461CF0E4FAE0B13F23A6
:103CA0000793104B0693104B104908940122CDE95D
:103CB00004430423CDE90132CDE9094428230394C8
:103CC00000940B48FFF776FF28461CF0D7FA094A04
:103CD000094907481CF0E9FA05480DB030BD00BF9E
:103CE000A80100200C6702081C670208EC660208A5
:103CF000AC010020000000205B3B000830B5164DF1
:103D00002C78BFF35B8F14F001048DB020D12846CE
:103D10001CF0A8FAE0B13F230793104B0693104B19
:103D2000104908940122CDE904430423CDE901326E
:103D3000CDE909441423039400940B48FFF73AFF9C
:103D400028461CF09BFA094A094907481CF0ADFABD
:103D500005480DB030BD00BFD4010020186702082F
:103D600020670208FC660208D8010020000000203D
:103D70005B3B0008704710B5042104461CF09AFA1A
:103D8000204610BD012908B508D003D3022909D067
:103D9000002002E000F012F8006808BD00F00EF804
:103DA0004068FAE700F00AF88068F6E700487047D4
:103DB000FC27020801207047022070470048704726
:103DC0000002002010B5FFF799FF044C2060FFF7B8
:103DD00059FF6060FFF718FFA06010BD00020020CF
:103DE00000207047002070470EB403B503AB0021DC
:103DF00053F8042B01930CF0C1FA02B05DF804EB08
:103E000003B070470CB407B504AB53F8042B01930F
:103E10000CF0B4FA03B05DF804EB02B07047000098
:103E200010B5436C044673B3038F2BB9184B194A72
:103E3000C02119481DF094F8C38E00EB43035B8C3E
:103E40000BB30DF049FE238F012B03D8134B144AFB
:103E5000C521EEE7E28E531C9BB2092B194688BFA1
:103E6000A3F10A0104EB410140F63F10498C814265
:103E700009D10A2B04EB420228BF002304EB4303C1
:103E8000508C588451842046BDE810400DF008BD88
:103E9000102802083D290208192802085D28020896
:103EA0006B2802080DF0B4BC10B586B002AC84E8F3
:103EB00006001A460AAB05930193099B009321461D
:103EC000089B0AF078FF06B010BD000038B5D8B9DD
:103ED000114B12481B681249BBB11A689C681A44FE
:103EE00002605A681A440A601C446CB10D4B0022EF
:103EF0001A80FFF763FF0546FFF75EFF0A4B1C6061
:103F00000A4B1D600A4B188038BD0A4B03600A4BF0
:103F10000B600A4B1C68E8E70C020020100200202E
:103F20001402002018020020743701207C37012081
:103F30007837012034BF040824BF040830BF0408C8
:103F4000044B1B6853F82100034B1B6803EB400034
:103F5000704700BF1402002010020020012380F8E7
:103F6000741080F875307047002070474164034B2F
:103F7000003118BF01211970704700BF01370120BF
:103F800000207047836B0BB10846184770474FF607
:103F9000FF707047406803689B6918477047704717
:103FA000034B902283F85A2383F85823704700BFAD
:103FB00000E100E0094A0A49D3680A48C3F30A034A
:103FC000013B9BB20B801169C1F30A0101390180E9
:103FD0001364536B43F0010353637047006801405F
:103FE0001C0200201A020020014B986A704700BF93
:103FF00084680140024B0122996243F8602C7047AB
:104000008468014038B5044606F047FE23685D6EBB
:104010000BF048FB01462046A8472368054AD3F821
:104020008850A2F5163100232046A847002384F8C3
:104030004A3038BD005802D010B531B90A4B0B4A8E
:104040000B4840F2BB211CF08BFFC0E90F1200327D
:10405000084918BF01220A7002681946D2F88C205C
:10406000BDE81040104700BF4B2A0208052B02088C
:10407000832A02080037012008B5094B1B888B42B0
:1040800003D8084B1B88934205D9074B074A0848B9
:104090009E211CF065FF074B1980074B1A8008BD55
:1040A000F6360120F8360120E8290208C22A020863
:1040B000832A0208FC360120FE36012006F09EBD50
:1040C00010B5044607F00AFC23682046D3F8AC304C
:1040D000BDE81040184790F877301BB1406803687E
:1040E0001B6818471846704710B590F8744090F850
:1040F00034100C4B8C421A7809D03AB90A4A0B4951
:104100001488088810800C8001221A7010BD002AC3
:10411000FCD0054A05491488088810800C800022CC
:10412000F3E700BFFA360120F6360120F836012009
:10413000034B4FF080629A604FF080729A60704734
:1041400000E100E0084B4FF08062C3F88820BFF325
:104150004F8FBFF36F8F4FF08072C3F88820BFF38B
:104160004F8FBFF36F8F704700E100E010B5134B26
:10417000134A1B6C1188134C8B4213D1124B1988B4
:1041800003F048FC226892F86630013382F866300A
:1041900000F06AFA206807F0A1FB0020BDE810409B
:1041A00000F06EBC03F036FC002000F06AFC2068D2
:1041B0000368BDE810401B6A184700BF0068014053
:1041C0001C020020043701201A02002003685B6CE7
:1041D00018470020704703689B6A184740F26F3009
:1041E0007047000010B5074C074B2360204603F0D2
:1041F00083F8064B2361064B6361064B4FF08062E8
:104200009A6010BDC839012000B002403542000854
:104210001942000800E100E008B5034A034B0448D6
:1042200036211CF09DFE00BFCC2B0208283C020862
:10423000532B0208024B1B68586803685B691847D8
:1042400004370120084B10B503600446074803F00B
:1042500021F9074B4FF08062C3F88820BFF34F8FDE
:10426000BFF36F8F204610BD842B0208C839012090
:1042700000E100E010B50446FFF7E4FF20464FF4EC
:104280005A611CF017F8204610BD0000044B1B6853
:1042900093F876200AB1D86C00B99868704700BFCF
:1042A000043701202DE9F3410D68202D0C4600F064
:1042B000A180402D00F09E802A1F56425641B5F540
:1042C000807F00F09980A5F500735D425D41FFF7A6
:1042D000DDFF03689B6A98472368402B00F0A480A9
:1042E00000F28C80042B00F09880202B00F09C8042
:1042F000102814BF4FF0010C4FF0020C0021514B5D
:10430000A28AB4F81A80D3F800E059601028A8EB0C
:10431000020814BF012702279F60C3F80C80DEF853
:10432000002022F440321143CEF80010D3F800E010
:10433000C3F82CC0DEF8341021F007013943CEF861
:104340003410DEF8402022F47F5222F03F0242EA8D
:104350000802CEF84020228BA18A521A9A620EB926
:10436000002D34D0227FFF2A1FBF02221A63227F32
:104370005A6304BF00221A6305B3227FE168102844
:104380004FEA026053D14FF01F0EC1F3C422C2EBBB
:104390000222B2FBFEFC01EA0E02C2EB0222B2FBD9
:1043A000FEF2024342EA0C42C1F34511C1EB012186
:1043B0003F20B1FBF0F142EA01225A63A18A628BED
:1043C0002048521AC3E90627002103F02FF90121E2
:1043D0001C4803F02BF9A38AE28A06B955B3CDE94C
:1043E00000322369616817481A4602F0D2FF02B012
:1043F000BDE8F081012666E7012568E7B3F5807F17
:1044000006D0B3F5007F7FF473AF4FF0090C01E0E5
:104410004FF00A0C4FF4003171E7102814BF4FF031
:10442000010C4FF0020CF5E74FF0000CF2E70143EE
:104430005963C3E7009261682269024802F08AFF6B
:10444000D5E700BFC8390120F7B50D46FFF71EFFBD
:1044500003689B6A98471028EB68297F6FD103F0A7
:104460001F02C2EB02221F20B2FBF0F4C3F3C422EE
:1044700044EA0164C2EB0222C3F34513B2FBF0F23B
:1044800044EA0244C3EB03233F22B3FBF2F30222CC
:1044900044EA03242B682C486F8B082B08BF4FF489
:1044A0000036AB8A18BF4FF44036C0E90162FF1AEC
:1044B0000368C760196821F4403131431960D0F8AE
:1044C00000C0DCF8341021F007011143CCF834109F
:1044D000DCF8403023F47F5323F03F033B43B6F531
:1044E000003FCCF840301FD10123C0E90C34092330
:1044F000C362A98A6B8B5B1AC0E90632002103F004
:1045000095F80121104803F091F8B6F5003FAB8A09
:10451000EA8A0DD129690C48CDE900320B460A46DA
:1045200002F037FF03B0F0BD0023C2628362E8E708
:10453000009221462A69044802F00CFFF2E743EAA0
:1045400001640122A6E700BFC839012070B5054605
:104550002C460A4B0C30002668602E726E7244F8AE
:10456000203B6022214607F021FB05F55A63E660F7
:104570002434A342FBD1284670BD00BF842B02081F
:10458000012108B50022084605F0C8F8064B4FF097
:10459000FF31186005F018F900220421012005F010
:1045A00087F9024B186008BD240200202002002079
:1045B00008B5074B186828B9064B074A0748312148
:1045C0001CF0CEFC4FF0FF31BDE8084005F0FCB810
:1045D00024020020FF2B0208762C0208102C02086F
:1045E00008B5064B186828B9054B064A06483A2113
:1045F0001CF0B6FCBDE8084005F022B924020020FA
:10460000FF2B0208392C0208102C020808B5074BB2
:10461000186828B9064B074A074847211CF0A0FC38
:104620000021BDE8084005F0CFB800BF24020020FB
:10463000FF2B0208B32C0208102C020808B5064B09
:10464000186828B9054B064A064854211CF088FC16
:10465000BDE8084005F0F4B824020020FF2B020852
:10466000F32C0208102C0208044B186820B1002318
:104670001A46034905F062B9704700BF20020020C6
:104680000400002013B5084C206858B100231A46D6
:1046900001A905F095F94FF0FF33002201A9206828
:1046A00005F08EF902B010BD20020020704770475F
:1046B0007047012070470C2070470C2303FB01005A
:1046C000083070470C2303FB0100083070470120BD
:1046D00070474FF4BB5070474FF4BB5303FB0100CE
:1046E000083070474FF4BB5303FB0100083070479C
:1046F000012070471020704700EB01100830704710
:1047000000EB0110083070470846FFF73DB9000084
:1047100010B5034B0360044605F092FF204610BD20
:10472000A82D020810B50446FFF7F2FF2046142119
:104730001BF0C0FD204610BD10B5034B03600446BE
:1047400005F07EFF204610BD742D020810B504460A
:10475000FFF7F2FF204641F268711BF0ABFD2046E7
:1047600010BD000010B5034B0360044605F068FF60
:10477000204610BD402D020810B50446FFF7F2FF99
:10478000204618211BF096FD204610BD10B5094BA0
:104790000360044600F5BC501430FFF7B9FF04F184
:1047A0002C00FFF7C9FF04F11400FFF7DBFF2046E0
:1047B00010BD00BFDC2D020810B50446FFF7E6FF70
:1047C000204641F604111BF075FD204610BD000087
:1047D0002DE9F341FFF7EAFA0546FFF7EBFA00246B
:1047E000014623462846224600940DF0FFFF264B43
:1047F000264A274D1A602046FFF768FB25480DF032
:1048000041FF2B78BFF35B8FDB0737D428461BF0C3
:1048100029FD002832D0204C204B236004F11400E5
:1048200000F5BC5707F1180604F12C086060C4F8C5
:104830000880E760266105F005FF194B636140467B
:1048400005F000FF174BE362384605F0FBFE164B00
:104850003B6007F11400FBF733FF224607F1140118
:104860003046FBF761FF3046FFF78EF828461BF015
:1048700005FD0E4A0E4920461BF017FD0D4802B0FB
:10488000BDE8F04100F0D0B8803701205029002069
:1048900028020020080000202C020020DC2D020845
:1048A000402D0208742D0208A82D020800000020E7
:1048B0008D470008D4280020014800F0B7B800BF99
:1048C000D428002010B5042104461BF0F3FC204638
:1048D00010BD10B5782104461BF0ECFC204610BD3D
:1048E00010B57C2104461BF0E5FC204610BD0000FD
:1048F000F8B5394C394D3A4F3A4B3B492B6022467B
:1049000028461BF0D2FC394E3846FFF71FFE2246E0
:10491000374938461BF0C9FC304611F009F92246E8
:10492000344930461BF0C1FC2246334933481BF062
:10493000BCFC3348334941663349C560002301223A
:10494000324D0385C0E90176C0E90433C0E906337E
:10495000C0E9083380F82A30C3620386C0E90E3309
:10496000C0E9103380F8483080F8492080F84A3098
:1049700080F84B30C0E91333C0E91533C0E9173371
:1049800080F8683080F8693080F86A3080F86B30E1
:1049900080F86C300860F02129801D4D0367298064
:1049A0001C4D80F874304FF4A07129801A4D80F8A6
:1049B00075302980194980F876300B70184B80F8D3
:1049C000772080F8782080F834200360224615494B
:1049D000BDE8F8401BF069BC00000020301B00203F
:1049E000341B0020C82E0208AD46000854290020C0
:1049F00045420008AF460008753D00080800002049
:104A0000D42800200100000104370120F6360120DF
:104A1000FC360120F8360120FE360120FA3601204E
:104A2000F02D0208B1460008FFF7ECBA08B503689C
:104A30000446D3F880309847236820469B6F9847F8
:104A4000FFF720FE236820461B6F9847292000F0BF
:104A500089FBFFF717FE236820461B6F9847F8E78E
:104A6000FFF7C2BAFFF7C6BAFFF728BBFFF798BA3D
:104A7000FFF75EBBFFF766BBFFF79CBA06F0B8B85E
:104A8000704770477047000038B50C4B0C4C1880CD
:104A90000C4B822019806368984740F611039842B6
:104AA0000AD1094D23682C60822098472B68822008
:104AB000DB689847002038BD0120FCE7CC290020A6
:104AC00024000020CE290020D02900204FF4A0711E
:104AD000F020FFF7D9BF0000F7B52C4D2B68044636
:104AE0001B698220984780B2208000284BD02B6819
:104AF0000DF106025B6901A982209847BDF80630D6
:104B0000A3F5B4739BB20B22B3FBF2F333B1204A8B
:104B100012889A423CBF02F1FF339BB2BDF80420D9
:104B200040F6B8318A4295BFC2F57162C2F56D6236
:104B30000E320832ADF80420BDF804100F22B1FB8C
:104B4000F2F131B1134A12888A423CBF02F1FF31BF
:104B500089B2114E114D30682F6882B2814288BFF0
:104B60008A1AB8B298BF521ABB428CBF181AC01A20
:104B700092B280B20244052AC4BF31602B60336810
:104B800063802B68A38003B0F0BD00BFD029002054
:104B9000CE290020CC290020D4290020D8290020AB
:104BA00037B568460D461446FFF796FFBDF800007E
:104BB00030B1BDF802302B60BDF804302360012015
:104BC00003B030BD054BD3F8882042F47002C3F81F
:104BD00088204FF000629A60704700BF00ED00E04F
:104BE00030B5014689B00022362001F059FE36204A
:104BF00001F08AFE0025154B02951A6C144C42F008
:104C000010021A641B6C03F01003029301A903A89D
:104C1000029B01F06BF801F059F80E4B236040F253
:104C2000E733E36040000C4BB0FBF3F00138606009
:104C300020462561A56001F099F920B9204601F0D0
:104C400074F809B030BD0120FBE700BF0038024016
:104C5000283801200010004040420F0007B5064BE5
:104C600002A91B6821F8020D0122044802F0CEF8C7
:104C700003B05DF804FB00BF14000020BC38012025
:104C8000F0B53024A1B02246002108A81CF0EBF9B1
:104C90001422002103A81CF0E6F92246002114A8E2
:104CA0001CF0E1F90024224B01941A6C42F080526E
:104CB0001A641B6C03F080530193019B1D4B0294FB
:104CC0001A6842F440421A601B6803F4404302939E
:104CD0000122029B4FF48033CDE9082302254FF4D3
:104CE0008003CDE90E5308274FF4A873042608A8C3
:104CF000CDE910731295139600F076FD0F23CDE9E0
:104D000003354FF4A0514FF48053CDE9061303A8A7
:104D10000521059400F03CFFC023189314A84FF41C
:104D2000003314971A961D9302F0D4FE21B0F0BD03
:104D3000003802400070004080B59AB002F08AFE50
:104D4000FFF79EFF142200210DA800241CF08BF910
:104D5000B44B00941A6BB448B44D42F020021A636D
:104D60001A6B02F020020092009A01941A6B42F032
:104D700080021A631A6B02F080020192019A029477
:104D80001A6B42F004021A631A6B02F004020292D8
:104D9000029A03941A6B42F001021A631A6B02F032
:104DA00001020392039A04941A6B42F002021A63FE
:104DB0001A6B02F002020492049A05941A6B42F0F4
:104DC00040021A631A6B02F040020592059A06949B
:104DD0001A6B42F010021A631A6B02F0100206926C
:104DE000069A07941A6B42F008021A631B6B03F0D1
:104DF0000803079322460421079B01F02BFF22465C
:104E00004FF440518A4801F025FF012602274FF058
:104E100004080DA984480F94CDE90D86109701F080
:104E200033FE0DA94FF440538148CDE90D36CDE94D
:104E30000F4701F029FE7F487F4B036002F078FFA7
:104E40007E4A7F4B2C62C5E9002328464FF48043FD
:104E5000C5E90434C5E90244C5E9064401F076FA1F
:104E60001021284601F0C4FC2146284601F0E2FC4E
:104E70007448754984624FF48273C0E900134FF49B
:104E800000751823C0E906530A23704DC362C0E9B8
:104E90000244C0E90444C0E9084401F077FF6C4BC8
:104EA0000D974FF0100CC5E900364023C5E904C347
:104EB0004FF4C073C5E906344FF40063C5E9083404
:104EC0004FF40053AB624FF0030A07230DA92846A5
:104ED000CDE90E3810934FF00809C5E90248CDE935
:104EE00011A7139700F036FC4FF6FF7209A9284668
:104EF000CDE90A96089409960C9400F04BFC3046D4
:104F000002F0D4FD4FF6FF7209A92846CDE90979D0
:104F1000CDE90B6400F03EFC4FF6FF7209A928466C
:104F2000CDE909A9CDE90B8400F034FC4FF40C73F2
:104F30000893089B0C934FF6FF7209A92846CDE908
:104F400009890B9600F026FC40F26A51284600F0D1
:104F500038FC342221460DEB02001CF084F83D4D54
:104F60003D4B2C61C5E900340923C5E905361D23F5
:104F700040F20D1EC5E9073A40F24313C5E909E3C3
:104F800040F2171840F24713C5E90B83C5E9024404
:104F9000AC8685F83640284602F036FCFF21F02228
:104FA000CDE912144FF4806905214FF4A073CDE9C7
:104FB0000E24CDE91491CDE916420DA922462846CA
:104FC000CDE91037254D18930D94ADF864408DF858
:104FD000664002F0F6FC224B2B601B6898472B685A
:104FE000204DDB689847204BC5E90A47C5E90C44CA
:104FF0002846C5E90034C5E9027402F07DF931465E
:10500000284602F013FB02F0A3FE04F0F7FA174A59
:105010001748214604F02CFB164B186004F008FBDF
:10502000FEE700BF00380240000802406838012057
:10503000000C02401439012000300240005C0040A6
:10504000A0860100BC38012000500140083A012030
:10505000400100A01C39012000680140DC2900202B
:105060004C000020C839012000B00240F02E020898
:10507000557D0008C43901207047704710B586B0CF
:1050800006AC074B04F8012D1B68029301230A4666
:10509000CDE900430146034801F008FA06B010BD0F
:1050A00010000020683801207FB506AA002302F80E
:1050B000013D084B1B6802930123CDE900230A46FA
:1050C0000146054801F086FA9DF8170007B05DF823
:1050D00004FB00BF10000020683801201FB5084CF9
:1050E00024680092CDE901340A46012301460548AF
:1050F00001F070FA003018BF012004B010BD00BFED
:10510000100000206838012002F0D0BC10B5064C19
:1051100000222046042101F09DFD204601220421A9
:10512000BDE8104001F096BD0008024038B50B4CB8
:10513000054601224FF40051094801F08BFD002281
:105140000421204601F086FD2846FFF787FD204612
:1051500001220421BDE8384001F07CBD0008024076
:10516000000C024038B50B4C054600224FF40051AC
:10517000094801F06FFD00220421204601F06AFD7C
:105180002846FFF76BFD204601220421BDE8384088
:1051900001F060BD00080240000C0240F7B5144C5D
:1051A000144D07460E4620460022042101F052FD10
:1051B00000224FF40051284601F04CFD3846FFF71D
:1051C0004DFD0D4B0D481B68324601A901F0B6FF9D
:1051D000284601224FF40051019E01F03BFD20467C
:1051E0000122042101F036FD304603B0F0BD00BFBE
:1051F00000080240000C024014000020BC380120CE
:1052000002F054BC0268034B9A4201D102F03CBC4C
:10521000704700BF001000407047FEE7FEE7FEE762
:10522000FEE77047014800F095BD00BF2838012017
:10523000014802F065BB00BF1C390120014802F0A3
:1052400065B900BFC839012008B50A4B1968024684
:1052500009B9094919601868694602448A4206D9A1
:105260001BF0AAFE0C2303604FF0FF3008BD1A604C
:10527000FCE700BFE0290020883A012082B00E4BF5
:1052800000220092596C41F480415964596C01F438
:105290008041009100990192196C41F0805119648C
:1052A0001B6C03F080530193019B0F216FF00100F1
:1052B00002B001F0F5BA00BF003802400268094BA5
:1052C0009A4282B00BD100230193074B1A6B42F430
:1052D00080521A631B6B03F480530193019B02B04D
:1052E000704700BF003002400038024007B50F4B46
:1052F00002689A4216D10022A3F5F0430192196B7D
:1053000041F4000119631B6B03F4000301930521B1
:105310005A20019B01F0C4FA5A2003B05DF804EB57
:1053200001F0F2BA03B05DF804FB00BF00B0024028
:105330000268064B9A4207D1054A136B23F4000317
:1053400013635A2001F0EEBA704700BF00B002406C
:10535000003802402DE9F043044689B014220021B0
:1053600003A81BF080FE2268244B9A4243D1244CB0
:10537000244800250095236B43F004032363236B2B
:1053800003F004030093009B0195236B43F001039A
:105390002363236B03F001030193019B4FF0120978
:1053A0004FF400734FF001080327042603A9CDE949
:1053B0000339CDE90587079601F066FB4FF480734A
:1053C00003A911480796CDE90339CDE9058701F016
:1053D0005BFB0295236C43F400032364236C03F40A
:1053E00000030293029B236A43F400032362236AAF
:1053F00023F40003236209B0BDE8F083005C0040A1
:10540000003802400008024000000240F0B50446A7
:105410008DB01422002107A81BF025FE2268574BEF
:105420009A4240F0A88003F55043002500955A6C3D
:10543000534842F080625A645A6C02F080620092D3
:10544000009A01951A6B42F020021A631A6B02F05F
:1054500020020192019A02951A6B42F001021A632E
:105460001A6B02F001020292029A03951A6B42F043
:1054700002021A631A6B02F002020392039A049565
:105480001A6B42F040021A631A6B02F04002049257
:10549000049A05951A6B42F004021A631A6B02F023
:1054A00004020592059A06951A6B42F008021A63E7
:1054B0001B6B03F00803069302240E26069B0A9436
:1054C0004FF4806307A9CDE907340B9601F0DCFAAD
:1054D00041F6580307A92B480B96CDE90734092755
:1054E000CDE9095401F0D0FA032307A926480B9708
:1054F000CDE90734CDE9095401F0C6FA4FF47063E1
:1055000007A921480B96CDE90734CDE9095401F0EC
:10551000BBFA4FF40C6307A91C480B96CDE907347E
:10552000CDE9095401F0B0FAC02307A918480B9639
:10553000CDE90734CDE9095401F0A6FA082307A9FB
:1055400014480B96CDE90734CDE9095401F09CFAD3
:105550004FF4A05307A90D480B97CDE90734CDE9C7
:10556000095401F091FA58202A46052101F098F9D2
:10557000582001F0C9F90DB0F0BD00BF006801402E
:1055800000140240000002400004024000180240E3
:1055900000080240000C024010B5044688B01422F6
:1055A000002103A81BF05FFD2268144B9A4223D10F
:1055B00003F56843002101915A6C114842F48012AE
:1055C0005A645A6C02F480120192019A02911A6B89
:1055D00042F020021A631B6B03F020030293029B2C
:1055E0004FF4607202230321CDE903230523CDE9A3
:1055F000061303A901F048FA08B010BD005001409D
:10560000001402402DE9F04186B01422002101A8C7
:105610001BF029FD2B4B1C68002C4FD14FF00108CB
:10562000C3F80080284B00949A6B284842EA08028D
:105630009A639B6B03EA08030093022703260C2559
:10564000009B01A94FF63F03CDE90137CDE9046581
:1056500001F01AFA01A91E480595CDE90187CDE9A7
:10566000034601F011FA48F2331301A919480595D0
:10567000CDE90137CDE9034601F006FA4FF6837311
:1056800001A915480595CDE90137CDE9034601F09B
:10569000FBF94CF2037301A910480595CDE90137D8
:1056A000CDE9034601F0F0F9602301A90C48059506
:1056B000CDE90137CDE9034601F0E6F906B0BDE8D2
:1056C000F08100BFE42900200038024000140240AD
:1056D000000802400018024000100240000C024086
:1056E000000402400120704708B51BF065FC16233A
:1056F00003604FF0FF3008BD08B51BF05DFC1623BA
:105700000360FEE770B50E4615460C46A31B9D428E
:1057100001DC284670BDAFF3008004F8010BF5E70B
:1057200070B50E4615460C46A31B9D4201DC28466B
:1057300070BD14F8010BAFF30080F5E74FF0FF30B8
:1057400070474FF400534B600020704701207047B2
:105750000020704738B50D460446C8B190F82C308B
:1057600003F0FF021BB980F82D20FFF74BFF022347
:1057700084F82C30211D206801F0E8F86268206868
:10578000294601F019F9012384F82C30002038BD96
:105790000120FCE738B5044690F82C00C0B202287E
:1057A0000D460DD0022384F82C30206801F041F919
:1057B0002B68022B0CBF0523012384F82C3000201A
:1057C00038BD10B5044690F82C00C0B2022809D0AC
:1057D000022384F82C30206801F050F9012384F86A
:1057E0002C30002010BD00002DE9F341044608B91B
:1057F000012041E00368DD0710D4236898075AD4DC
:1058000023681A0700F19C8023685B0700F1BA80C7
:10581000A069002840F01C8100202DE0A44B9A686C
:1058200002F00C02042A07D09A6802F00C02082A3F
:105830000AD15B68590207D59D4B1B689A03DCD5DA
:105840006368002BD9D1D3E76268994BB2F5803FEA
:1058500015D11A6842F480321A606368F3B102F01D
:105860001FF9934D06462B689B03C6D402F018F926
:10587000801B6428F7D9032002B0BDE8F081B2F59F
:10588000A02F1A6803D142F480221A60E1E722F4C3
:1058900080321A601A6822F48022DDE702F000F9F3
:1058A000834D06462B689F03A7D502F0F9F8801BAD
:1058B0006428F7D9DFE77E4B9A6812F00C0F07D007
:1058C0009A6802F00C02082A11D15B685E020ED4BD
:1058D000774B1A68950702D5E268012A88D11A68C1
:1058E000216922F0F80242EAC1021A6088E7E26800
:1058F000704BB2B101221A6002F0D2F86C4D06462C
:105900002B68980707D52B68226923F0F80343EA30
:10591000C2032B6074E702F0C3F8801B0228EFD9A2
:10592000A9E71A6002F0BCF8614D06462B6899079A
:105930007FF566AF02F0B4F8801B0228F6D99AE72B
:1059400062695D4B7AB101221A6002F0A9F8584DE4
:1059500006466B6F9F073FF557AF02F0A1F8801B1B
:105960000228F6D987E71A6002F09AF8504D0646E9
:105970006B6F98077FF548AF02F092F8801B022802
:10598000F6D978E74A4B1A6C12F080522BD101926B
:105990001A6C42F080521A641B6C03F0805301931E
:1059A000019B0126454D2B68D9051ED5A268404BA9
:1059B000012A2AD11A6F42F001021A67A368002B4C
:1059C00037D002F06DF83A4D074641F288382B6F18
:1059D0009B0728D5002E3FF41BAF354A136C23F0EC
:1059E0008053136414E70026DCE72B6843F48073CC
:1059F0002B6002F055F807462B68DA05D6D402F082
:105A00004FF8C01B0228F7D935E7052A1A6F03D1D2
:105A100042F004021A67CDE722F001021A671A6FFA
:105A200022F00402C9E702F03BF8C01B4045CED982
:105A300021E702F035F81E4D074641F288382B6FFA
:105A40009807C7D502F02CF8C01B4045F7D912E7DC
:105A5000174DAB6803F00C03082B46D0184E0023FB
:105A60000228336034D102F01BF807462B689901F5
:105A700028D4D4E907321343626A43EA8213E26A04
:105A800043EA0263A26A0A4C5208013A43EA02431B
:105A90006B600123336002F003F8054623689A0126
:105AA0003FF5BAAE01F0FCFF401B0228F6D9E2E652
:105AB0000038024000004742800E4742007000401C
:105AC0006000474201F0ECFFC01B0228CED9D2E6AD
:105AD00001F0E6FF04462B689B017FF59DAE01F0C7
